:100000000C945C000C946E000C946E000C946E00CA
:100010000C946E000C946E000C946E000C946E00A8
:100020000C946E000C946E000C946E000C946E0098
:100030000C946E000C946E000C946E000C946E0088
:100040000C949D000C946E000C946E000C946E0049
:100050000C946E000C946E000C946E000C946E0068
:100060000C946E000C946E0000000007000201006A
:100070000003040600000000000000000102040864
:100080001020408001020408102001020408102002
:10009000040404040404040402020202020203032E
:1000A0000303030300000000250028002B000000CC
:1000B0000000240027002A0011241FBECFEFD8E043
:1000C000DEBFCDBF21E0A0E0B1E001C01D92AB30AA
:1000D000B207E1F70E948E000C94C6010C94000058
:1000E000CF93C82F61E00E94930160E08C2F0E94A3
:1000F0009301CF91089561E08CE00E94510161E08D
:100100008DE00E94510108958091000190910101BC
:100110000196909301018093000108950E94E700E9
:100120000E947B008DE090E00E9470000E9484009D
:100130008CE090E00E947000F5CF1F920F920FB6F6
:100140000F9211242F933F938F939F93AF93BF935D
:100150008091020190910301A0910401B0910501E9
:1001600030910A01232F2D5F2D3720F40196A11D18
:10017000B11D05C0232F2A570296A11DB11D209342
:100180000A018093020190930301A0930401B093AC
:1001900005018091060190910701A0910801B0919D
:1001A00009010196A11DB11D8093060190930701DD
:1001B000A0930801B0930901BF91AF919F918F91D6
:1001C0003F912F910F900FBE0F901F90189578942C
:1001D00084B5826084BD84B5816084BD85B582604C
:1001E00085BD85B5816085BDEEE6F0E080818160EA
:1001F0008083E1E8F0E010828081826080838081EA
:1002000081608083E0E8F0E0808181608083E1EBC1
:10021000F0E0808184608083E0EBF0E080818160A9
:100220008083EAE7F0E0808184608083808182605F
:100230008083808181608083808180688083109248
:10024000C1000895833069F028F48130B1F0823024
:1002500039F517C08630C9F08730E9F0843001F5F0
:1002600006C0E0E8F0E080818F7780830895E0E8C1
:10027000F0E080818F7D8083089584B58F7784BD81
:10028000089584B58F7D84BD0895E0EBF0E0808112
:100290008F7780830895E0EBF0E080818F7D80830D
:1002A0000895CF93DF9390E0FC01E458FF4F449111
:1002B000FC01E057FF4F8491882391F190E0880F73
:1002C000991FFC01E255FF4F25913491A22FB32FC6
:1002D0008C559F4FFC0185919491C82FD92F6111A6
:1002E0000BC08FB7F8949C91409594239C93E88120
:1002F0004E2348838FBF14C0623061F48FB7F894E7
:100300002C91942F909592239C93E8814E2B4883B7
:100310008FBF06C08FB7F894EC914E2B4C938FBFD4
:10032000DF91CF9108951F93CF93DF93C62F282F8E
:1003300030E0F901E859FF4F8491F901E458FF4F8B
:10034000D491F901E057FF4F14911123D9F0811195
:100350000E942201212F30E0F901EE0FFF1FEC5522
:10036000FF4F85919491A82FB92F8FB7F894C111A1
:1003700005C0EC91D095DE23DC9303C0EC91DE2B1D
:10038000DC938FBFDF91CF911F910895F894FFCF39
:00000001FF
