S01100006C61623370617274322E73726563C8
S11300000C945D000C94E3050C9410060C9485008C
S11300100C9485000C9485000C9485000C94850048
S11300200C9485000C9485000C9485000C94850038
S11300300C9485000C9485000C9485000C94850028
S11300400C943D060C9485000C94E1020C94260358
S11300500C9485000C9485000C9485000C94850008
S11300600C9485000C948500000000070002010038
S11300700003040600000000000000000102040860
S113008010204080010204081020010204081020FE
S1130090040404040404040402020202020203032A
S11300A00303030300000000250028002B000000C8
S11300B00000240027002A002A0411241FBECFEFC9
S11300C0D8E0DEBFCDBF11E0A0E0B1E0ECE9F2E1A1
S11300D002C005900D92A834B107D9F722E0A8E434
S11300E0B1E001C01D92AD30B207E1F710E0CAEBF8
S11300F0D0E004C02297FE010E94F507C83BD10757
S1130100C9F70E9476010C944C090C940000CF931B
S1130110DF93C5E0D0E061E086E00E949E076AEFCD
S113012070E080E090E00E94C80660E086E00E94F3
S11301309E076AEF70E080E090E00E94C806219775
S113014051F7DF91CF910895CF93DF93C0E0D0E0D2
S113015061E087E00E949E076DE770E080E090E038
S11301600E94C80660E087E00E949E076DE770E089
S113017080E090E00E94C8064AE050E0BE0182E5BB
S113018091E00E94AB052196C530D10509F7DF91B6
S1130190CF910895CF92DF92EF92FF92CF93DF93A6
S11301A0EC01C880D980EA80FB800E9487069B010D
S11301B0AC012C193D094E095F0969017A0135EF3B
S11301C0C31631E0D306E104F10438F0688379837F
S11301D08A839B8321E030E002C020E030E0822F5C
S11301E0932FDF91CF91FF90EF90DF90CF90089500
S11301F088E491E00E94CA00892B81F041E050E03C
S113020067E870E080915001909151010E9497013C
S113021066E071E082E591E00E94D40408958CE4E4
S113022091E00E94CA00892B81F040E050E064EA2A
S113023070E080915001909151010E94970161E119
S113024071E082E591E00E94D40408950E9488013F
S1130250909351018093500143E050E06FE071E0CE
S113026080E00E94C00543E050E068EF70E081E068
S11302700E94C00561E086E00E945C0761E087E0BF
S11302800E945C0740E855E260E070E082E591E09E
S11302900E94A50308956CE171E082E591E00E945B
S11302A09A0480915001909151010E942F024AE0DA
S11302B050E0BC0182E591E00E94AB0580915001C1
S11302C0909151010E942F021816190644F480914E
S11302D05001909151010E940202FC0109956CEDBC
S11302E075E080E090E00E94C80608950E94F2063E
S11302F00E9426010E944B018DE193E0892B29F095
S11303000E941D030E944B01FBCF0E944B01FDCFB5
S113031084E090E00E94F907E82FF92F309721F04C
S113032011821082138212828E2F9F2F0895CF92F2
S1130330DF92EF92FF920F931F93CF93DF938C0181
S11303407B016A0188E090E00E94F907A82FB92F89
S1130350109709F44EC01196FC92EE921396DC921B
S1130360CE92129715961C921E92149717961C9271
S11303701E921697E801E881F981309719F4B98340
S1130380A88321C082819381C816D9066CF417967C
S1130390FC93EE931697E801E881F981B583A48371
S11303A0B983A88310C0F90126813781211531054D
S11303B089F0428153814C155D05ACF30BC0BD83BC
S11303C0AC83B783A683F8018281938101969383DA
S11303D082830FC01596FC93EE93149786819781C0
S11303E017969C938E931697C681D781209739F7D9
S11303F0E8CFDF91CF911F910F91FF90EF90DF90A5
S1130400CF9008950F931F93CF93DF93EC01E8816E
S1130410F9813097D9F000811181A681B7811097B5
S113042021F015961C921E921497A881B9811696F4
S11304308D919C91179799838883CF010E9494088A
S11304408A819B8101979B838A8302C000E010E02C
S1130450802F912FDF91CF911F910F910895FC016F
S1130460828193810895FC0184859585FC01E05C7B
S1130470FF4F20813181FC01EE5BFF4F8081918130
S1130480281B390B2F733327822F932F0895FC01D8
S113049084859585FC01E05CFF4F40815181FC011E
S11304A0EE5BFF4F208131814217530759F0FC0165
S11304B0EE5BFF4F20813181FC01E20FF31F2081AD
S11304C030E002C02FEF3FEF822F932F0895FC01FD
S11304D084859585FC01E05CFF4F40815181FC01DE
S11304E0EE5BFF4F208131814217530791F0FC01ED
S11304F0EE5BFF4F20813181DC01A20FB31F2C91F1
S11305008081918101968F7399279183808330E054
S113051002C02FEF3FEF822F932F0895FC0181A19A
S1130520882329F0A489B5898C9186FFFBCF11A279
S11305300895DC011E968D919C911F97FC01E05C4F
S1130540FF4F408151814F5F5F4F4F735527FC012F
S1130550EE5BFF4F2081318124173507D9F3FC016D
S1130560E05CFF4F20813181FC01E20FF31F6083C7
S11305701E96ED91FC911F97E05CFF4F51834083E1
S11305805696ED91FC915797408121E030E0C901E6
S11305905F960C905F9702C0880F991F0A94E2F748
S11305A0842B808381E091968C9391975496ED915E
S11305B0FC91559780818064808381E090E0089568
S11305C008951F920F920FB60F9211242F933F9309
S11305D04F938F939F93AF93BF93EF93FF93809128
S11305E0C00082FD1AC04091C6008091F80190912C
S11305F0F90101968F7399272091FA013091FB013B
S11306008217930761F0E8EFF1E0A081B181A8546B
S1130610BE4F4C939183808302C08091C600FF91AA
S1130620EF91BF91AF919F918F914F913F912F91F6
S11306300F900FBE0F901F90189582E591E00E94D5
S11306403302892B11F00E94E00208951F920F9249
S11306500FB60F9211242F933F938F939F93AF93D1
S1130660BF93EF93FF932091B4013091B501809132
S1130670B6019091B7012817390731F4E1ECF0E0A5
S113068080818F7D808310C0E6EBF1E0A081B18191
S1130690AC58BE4F2C918081918101968F7399271C
S11306A0918380832093C600FF91EF91BF91AF9116
S11306B09F918F913F912F910F900FBE0F901F909C
S11306C018958F929F92AF92BF92CF92DF92EF9242
S11306D0FF920F931F93CF93DF93CDB7DEB7FC0147
S11306E01382128288EE93E0A0E0B0E084839583C5
S11306F0A683B7838BE391E09183808375876487B6
S113070057874687318B208B138B028BF58AE48ABB
S1130710D78AC68AB18EA08E938E828E8F85848F5F
S11307208889858F8989868F8A89878F8B8980A319
S1130730DF91CF911F910F91FF90EF90DF90CF90B9
S1130740BF90AF909F908F900895CF92DF92EF92D9
S1130750FF92CF93DF93EC016A017B01411581EE97
S113076058076105710509F1EC89FD8981E090E084
S113077008A002C0880F991F0A94E2F7808360E002
S113078079E08DE390E0A70196010E94D107DA0198
S1130790C9010197A109B109B695A79597958795C0
S11307A09C01211580E13807A8F0EC89FD891082AD
S11307B060E874E88EE190E0A70196010E94D107F9
S11307C0DA01C9010197A109B109B695A7959795D1
S11307D087959C01E889F9893083EA89FB8920831C
S11307E019A2EE89FF89408181E090E09C010C8C84
S11307F002C0220F331F0A94E2F7242B2083EE89D0
S1130800FF8940819C010D8C02C0220F331F0A9482
S1130810E2F7242B2083EE89FF8940819C010E8C12
S113082002C0220F331F0A94E2F7242B2083EE899F
S1130830FF8920810F8C02C0880F991F0A94E2F768
S1130840809582238083DF91CF91FF90EF90DF909A
S1130850CF9008958F929F92AF92BF92CF92DF92E2
S1130860EF92FF920F931F9381E08F9385E08F9314
S113087087E08F9383E08F9384E08F930F2EF6ECC1
S11308808F2E912CF02D0F2EF2ECAF2EB12CF02DDB
S11308900F2EF1ECCF2ED12CF02D0F2EF0ECEF2EED
S11308A0F12CF02D04EC10E025EC30E044E751E0AD
S11308B068EB71E082E591E00E9461030F900F9074
S11308C00F900F900F901F910F91FF90EF90DF907A
S11308D0CF90BF90AF909F908F900895CF92DF926A
S11308E0EF92FF920F931F93CF93DF937C016B01E1
S11308F0EA01209791F000E010E0D6016D916D01BE
S1130900D701ED91FC910190F081E02DC70109958B
S1130910080F191F219789F702C000E010E0802F0B
S1130920912FDF91CF911F910F91FF90EF90DF9066
S1130930CF9008956115710599F0E62FF72FDF0127
S11309400D900020E9F71197AD014E1B5F0BDC0100
S1130950ED91FC910280F381E02D09959C0102C088
S113096020E030E0822F932F0895DC01ED91FC917B
S11309700190F081E02D099508950F931F93CF9373
S1130980DF93EC016DE00E94B5048C016AE0CE01B6
S11309900E94B5049C01200F311F822F932FDF91F9
S11309A0CF911F910F9108950F931F93CF93DF93CE
S11309B0EC010E949A048C01CE010E94BD049C01AA
S11309C0200F311F822F932FDF91CF911F910F9111
S11309D008954F925F926F927F929F92AF92BF92CF
S11309E0CF92DF92EF92FF920F931F93CF93DF93F7
S11309F0CDB7DEB7A1970FB6F894DEBF0FBECDBF5B
S1130A005C016A017B01922E19A281E0821720F019
S1130A100F2EFAE09F2EF02D8E010F5D1F4F492CF3
S1130A20512C612C712CC701B601A30192010E94C3
S1130A30D1078C2D929E80191124015011098A30FE
S1130A4010F4805D01C0895CD8018C93C22ED32E32
S1130A50E42EF52EC114D104E104F10421F70115AB
S1130A601105A9F0E02FF12FDF010D900020E9F727
S1130A701197AD014E1B5F0BD501ED91FC910280E6
S1130A80F381E02DB801C50109959C0102C020E065
S1130A9030E0822F932FA1960FB6F894DEBF0FBEDD
S1130AA0CDBFDF91CF911F910F91FF90EF90DF9019
S1130AB0CF90BF90AF909F907F906F905F904F903A
S1130AC00895CF92DF92EF92FF920F931F93CF93EB
S1130AD0DF93EC016A017B012115310549F4E881BA
S1130AE0F9810190F081E02D642F09958C011FC0DC
S1130AF02A303105C9F4772394F46DE20E94B504D9
S1130B008C0144275527BA014C195D096E097F09E8
S1130B102AE0CE010E94E904080F191F08C02AE048
S1130B200E94E9048C0103C00E94E9048C01802F17
S1130B30912FDF91CF911F910F91FF90EF90DF9054
S1130B40CF9008959A01AB01662757FD6095762FE3
S1130B500E94610508950F931F93CF93DF93EC01D7
S1130B600E94A2058C01CE010E94BD049C01200FAD
S1130B70311F822F932FDF91CF911F910F910895F1
S1130B80823000F5E82FF0E0EE0FFF1FE450FE4F37
S1130B9071836083882319F08130A1F408C0E9E6E9
S1130BA0F0E080818C7F482B4083E89A0895E9E641
S1130BB0F0E08081440F551F440F551F837F482B5D
S1130BC04083E99A08951F920F920FB60F92112451
S1130BD02F933F934F935F936F937F938F939F9341
S1130BE0AF93BF93EF93FF938091FC019091FD012C
S1130BF0892B29F0E091FC01F091FD010995FF9109
S1130C00EF91BF91AF919F918F917F916F915F9180
S1130C104F913F912F910F900FBE0F901F901895F9
S1130C201F920F920FB60F9211242F933F934F935D
S1130C305F936F937F938F939F93AF93BF93EF9340
S1130C40FF938091FE019091FF01892B29F0E0919F
S1130C50FE01F091FF010995FF91EF91BF91AF91D2
S1130C609F918F917F916F915F914F913F912F91C0
S1130C700F900FBE0F901F9018951F920F920FB6F2
S1130C800F9211242F933F938F939F93AF93BF930E
S1130C908091000290910102A0910202B09103029E
S1130CA030910802232F2D5F2D3720F40196A11DCA
S1130CB0B11D05C0232F2A570296A11DB11D2093F3
S1130CC008028093000290930102A0930202B09361
S1130CD003028091040290910502A0910602B09152
S1130CE007020196A11DB11D809304029093050291
S1130CF0A0930602B0930702BF91AF919F918F9189
S1130D003F912F910F900FBE0F901F9018950F9346
S1130D101F938FB7F8940091000210910102209163
S1130D200202309103028FBF602F712F822F932F05
S1130D301F910F9108950F931F939FB7F8940091FB
S1130D40040210910502209106023091070286B533
S1130D50A89B06C08F3F21F00F5F1F4F2F4F3F4FBF
S1130D609FBF322F212F102F0027080F111D211D87
S1130D70311D000F111F221F331F000F111F221FCF
S1130D80331F602F712F822F932F1F910F9108957E
S1130D90CF92DF92EF92FF92CF93DF936B017C01AE
S1130DA00E949B06EB01C114D104E104F10499F003
S1130DB00E949B066C1B7D0B683E734038F081E0FB
S1130DC0C81AD108E108F108C851DC4FC114D10494
S1130DD0E104F10469F7DF91CF91FF90EF90DF9088
S1130DE0CF900895789484B5826084BD84B5816081
S1130DF084BD85B5826085BD85B5816085BDEEE61F
S1130E00F0E0808181608083E1E8F0E010828081FD
S1130E1082608083808181608083E0E8F0E080816B
S1130E2081608083E1EBF0E0808184608083E0EB8B
S1130E30F0E0808181608083EAE7F0E08081846073
S1130E4080838081826080838081816080838081CF
S1130E50806880831092C1000895833069F028F47B
S1130E608130B1F0823039F517C08630C9F087304F
S1130E70E9F0843001F506C0E0E8F0E080818F7786
S1130E8080830895E0E8F0E080818F7D8083089579
S1130E9084B58F7784BD089584B58F7D84BD08950E
S1130EA0E0EBF0E080818F7780830895E0EBF0E061
S1130EB080818F7D80830895CF93DF9390E0FC0140
S1130EC0E458FF4F4491FC01E057FF4F849188237D
S1130ED091F190E0880F991FFC01E255FF4F259195
S1130EE03491A22FB32F8C559F4FFC01859194917F
S1130EF0C82FD92F61110BC08FB7F8949C914095DE
S1130F0094239C93E8814E2348838FBF14C062309E
S1130F1061F48FB7F8942C91942F909592239C931D
S1130F20E8814E2B48838FBF06C08FB7F894EC91AD
S1130F304E2B4C938FBFDF91CF9108951F93CF9386
S1130F40DF93C62F282F30E0F901E859FF4F849131
S1130F50F901E458FF4FD491F901E057FF4F149180
S1130F601123D9F081110E942D07212F30E0F901BE
S1130F70EE0FFF1FEC55FF4F85919491A82FB92FC9
S1130F808FB7F894C11105C0EC91D095DE23DC93A2
S1130F9003C0EC91DE2BDC938FBFDF91CF911F91C7
S1130FA00895A1E21A2EAA1BBB1BFD010DC0AA1FA6
S1130FB0BB1FEE1FFF1FA217B307E407F50720F0BE
S1130FC0A21BB30BE40BF50B661F771F881F991F39
S1130FD01A9469F760957095809590959B01AC0182
S1130FE0BD01CF010895EE0FFF1F0590F491E02D90
S1130FF009940F931F93CF93DF938230910510F4DC
S113100082E090E0E0910B02F0910C0220E030E0ED
S1131010C0E0D0E023C04081518148175907A8F0AF
S11310204817590761F482819381209719F09B83B3
S11310308A832EC090930C0280930B0229C0211541
S1131040310529F04217530710F0A90102C0BE016F
S1131050DF0102811381EF019A01F8013097D9F67B
S11310602115310509F1281B390B2430310590F481
S113107012968D919C9113976115710521F0FB01D6
S11310809383828304C090930C0280930B02FD012E
S1131090329644C0FD01E20FF31F819391932250D5
S11310A031092D933C933AC02091090230910A02F0
S11310B0232B41F4209102013091030130930A0261
S11310C0209309022091000130910101211531057D
S11310D041F42DB73EB74091040150910501241B02
S11310E0350BE0910902F0910A02E217F307A0F42C
S11310F02E1B3F0B2817390778F0AC014E5F5F4F6A
S11311002417350748F04E0F5F1F50930A0240938F
S113111009028193919302C0E0E0F0E0CF01DF91F6
S1131120CF911F910F910895EF92FF920F931F9308
S1131130CF93DF93009709F48FC0DC0112971396C5
S11311401C921E921297E0900B02F0900C02E11494
S1131150F10489F42D913C911197280F391F809146
S1131160090290910A028217930789F5B0930A0243
S1131170A093090271C0E70120E030E001C0EA0158
S1131180CA17DB0738F44A815B819E01411551057A
S1131190B1F722C0BC0162507109FB01D383C28341
S11311A000811181AC01400F511F4C175D0761F4A0
S11311B048815981400F511F4E5F5F4F51834083D7
S11311C04A815B81538342832115310529F4B0930D
S11311D00C02A0930B0240C0F901B383A283E9017E
S11311E069917991C60FD71FAC17BD0779F4DC015B
S11311F05E914E91460F571F4E5F5F4F5183408360
S113120012968D919C91139793838283A0E0B0E012
S113121002C0D7017C01F701828193810097C9F74D
S1131220C701029620813181820F931F2091090208
S113123030910A022817390779F4109729F410928B
S11312400C0210920B0204C013961C921E92129769
S1131250F0920A02E0920902CDB7DEB7E6E00C9400
S11312603D092A88398848885F846E847D848C840B
S11312709B84AA84B984C884DF80EE80FD800C81BD
S11312801B81AA81B981CE0FD11D0FB6F894DEBFA0
S10F12900FBECDBFED010895F894FFCF10
S113129C00000D022000456E717565756564203182
S11312AC00456E7175657565642030004E756D6210
S11312BC6572206F66206974656D7320696E207188
S11312CC756575653A20000000000099026E0433C0
S10B12DC02670247028E0200C2
S9030000FC
