
lab2part3.elf:     file format elf32-avr

Sections:
Idx Name          Size      VMA       LMA       File off  Algn
  0 .data         00000036  00800100  00001356  000013ea  2**0
                  CONTENTS, ALLOC, LOAD, DATA
  1 .text         00001356  00000000  00000000  00000094  2**1
                  CONTENTS, ALLOC, LOAD, READONLY, CODE
  2 .bss          000000c3  00800136  00800136  00001420  2**0
                  ALLOC
  3 .stab         00002fa0  00000000  00000000  00001420  2**2
                  CONTENTS, READONLY, DEBUGGING
  4 .stabstr      000011d1  00000000  00000000  000043c0  2**0
                  CONTENTS, READONLY, DEBUGGING
  5 .comment      0000002f  00000000  00000000  00005591  2**0
                  CONTENTS, READONLY
  6 .debug_aranges 00000580  00000000  00000000  000055c0  2**0
                  CONTENTS, READONLY, DEBUGGING
  7 .debug_info   000088d6  00000000  00000000  00005b40  2**0
                  CONTENTS, READONLY, DEBUGGING
  8 .debug_abbrev 000017a0  00000000  00000000  0000e416  2**0
                  CONTENTS, READONLY, DEBUGGING
  9 .debug_line   00001f10  00000000  00000000  0000fbb6  2**0
                  CONTENTS, READONLY, DEBUGGING
 10 .debug_frame  00001304  00000000  00000000  00011ac8  2**2
                  CONTENTS, READONLY, DEBUGGING
 11 .debug_str    00001a29  00000000  00000000  00012dcc  2**0
                  CONTENTS, READONLY, DEBUGGING
 12 .debug_loc    00007322  00000000  00000000  000147f5  2**0
                  CONTENTS, READONLY, DEBUGGING
 13 .debug_ranges 00000548  00000000  00000000  0001bb17  2**0
                  CONTENTS, READONLY, DEBUGGING

Disassembly of section .text:

00000000 <__vectors>:
       0:	0c 94 5d 00 	jmp	0xba	; 0xba <__ctors_end>
       4:	0c 94 60 07 	jmp	0xec0	; 0xec0 <__vector_1>
       8:	0c 94 8d 07 	jmp	0xf1a	; 0xf1a <__vector_2>
       c:	0c 94 85 00 	jmp	0x10a	; 0x10a <__bad_interrupt>
      10:	0c 94 85 00 	jmp	0x10a	; 0x10a <__bad_interrupt>
      14:	0c 94 85 00 	jmp	0x10a	; 0x10a <__bad_interrupt>
      18:	0c 94 85 00 	jmp	0x10a	; 0x10a <__bad_interrupt>
      1c:	0c 94 85 00 	jmp	0x10a	; 0x10a <__bad_interrupt>
      20:	0c 94 85 00 	jmp	0x10a	; 0x10a <__bad_interrupt>
      24:	0c 94 85 00 	jmp	0x10a	; 0x10a <__bad_interrupt>
      28:	0c 94 85 00 	jmp	0x10a	; 0x10a <__bad_interrupt>
      2c:	0c 94 85 00 	jmp	0x10a	; 0x10a <__bad_interrupt>
      30:	0c 94 85 00 	jmp	0x10a	; 0x10a <__bad_interrupt>
      34:	0c 94 85 00 	jmp	0x10a	; 0x10a <__bad_interrupt>
      38:	0c 94 85 00 	jmp	0x10a	; 0x10a <__bad_interrupt>
      3c:	0c 94 85 00 	jmp	0x10a	; 0x10a <__bad_interrupt>
      40:	0c 94 ba 07 	jmp	0xf74	; 0xf74 <__vector_16>
      44:	0c 94 85 00 	jmp	0x10a	; 0x10a <__bad_interrupt>
      48:	0c 94 73 04 	jmp	0x8e6	; 0x8e6 <__vector_18>
      4c:	0c 94 b8 04 	jmp	0x970	; 0x970 <__vector_19>
      50:	0c 94 85 00 	jmp	0x10a	; 0x10a <__bad_interrupt>
      54:	0c 94 85 00 	jmp	0x10a	; 0x10a <__bad_interrupt>
      58:	0c 94 85 00 	jmp	0x10a	; 0x10a <__bad_interrupt>
      5c:	0c 94 85 00 	jmp	0x10a	; 0x10a <__bad_interrupt>
      60:	0c 94 85 00 	jmp	0x10a	; 0x10a <__bad_interrupt>
      64:	0c 94 85 00 	jmp	0x10a	; 0x10a <__bad_interrupt>

00000068 <digital_pin_to_timer_PGM>:
      68:	00 00 00 07 00 02 01 00 00 03 04 06 00 00 00 00     ................
      78:	00 00 00 00                                         ....

0000007c <digital_pin_to_bit_mask_PGM>:
      7c:	01 02 04 08 10 20 40 80 01 02 04 08 10 20 01 02     ..... @...... ..
      8c:	04 08 10 20                                         ... 

00000090 <digital_pin_to_port_PGM>:
      90:	04 04 04 04 04 04 04 04 02 02 02 02 02 02 03 03     ................
      a0:	03 03 03 03                                         ....

000000a4 <port_to_output_PGM>:
      a4:	00 00 00 00 25 00 28 00 2b 00                       ....%.(.+.

000000ae <port_to_mode_PGM>:
      ae:	00 00 00 00 24 00 27 00 2a 00                       ....$.'.*.

000000b8 <__ctors_start>:
      b8:	bc 05       	cpc	r27, r12

000000ba <__ctors_end>:
      ba:	11 24       	eor	r1, r1
      bc:	1f be       	out	0x3f, r1	; 63
      be:	cf ef       	ldi	r28, 0xFF	; 255
      c0:	d8 e0       	ldi	r29, 0x08	; 8
      c2:	de bf       	out	0x3e, r29	; 62
      c4:	cd bf       	out	0x3d, r28	; 61

000000c6 <__do_copy_data>:
      c6:	11 e0       	ldi	r17, 0x01	; 1
      c8:	a0 e0       	ldi	r26, 0x00	; 0
      ca:	b1 e0       	ldi	r27, 0x01	; 1
      cc:	e6 e5       	ldi	r30, 0x56	; 86
      ce:	f3 e1       	ldi	r31, 0x13	; 19
      d0:	02 c0       	rjmp	.+4      	; 0xd6 <__do_copy_data+0x10>
      d2:	05 90       	lpm	r0, Z+
      d4:	0d 92       	st	X+, r0
      d6:	a6 33       	cpi	r26, 0x36	; 54
      d8:	b1 07       	cpc	r27, r17
      da:	d9 f7       	brne	.-10     	; 0xd2 <__do_copy_data+0xc>

000000dc <__do_clear_bss>:
      dc:	21 e0       	ldi	r18, 0x01	; 1
      de:	a6 e3       	ldi	r26, 0x36	; 54
      e0:	b1 e0       	ldi	r27, 0x01	; 1
      e2:	01 c0       	rjmp	.+2      	; 0xe6 <.do_clear_bss_start>

000000e4 <.do_clear_bss_loop>:
      e4:	1d 92       	st	X+, r1

000000e6 <.do_clear_bss_start>:
      e6:	a9 3f       	cpi	r26, 0xF9	; 249
      e8:	b2 07       	cpc	r27, r18
      ea:	e1 f7       	brne	.-8      	; 0xe4 <.do_clear_bss_loop>

000000ec <__do_global_ctors>:
      ec:	10 e0       	ldi	r17, 0x00	; 0
      ee:	ca eb       	ldi	r28, 0xBA	; 186
      f0:	d0 e0       	ldi	r29, 0x00	; 0
      f2:	04 c0       	rjmp	.+8      	; 0xfc <__do_global_ctors+0x10>
      f4:	22 97       	sbiw	r28, 0x02	; 2
      f6:	fe 01       	movw	r30, r28
      f8:	0e 94 a5 09 	call	0x134a	; 0x134a <__tablejump__>
      fc:	c8 3b       	cpi	r28, 0xB8	; 184
      fe:	d1 07       	cpc	r29, r17
     100:	c9 f7       	brne	.-14     	; 0xf4 <__do_global_ctors+0x8>
     102:	0e 94 c4 01 	call	0x388	; 0x388 <main>
     106:	0c 94 a9 09 	jmp	0x1352	; 0x1352 <_exit>

0000010a <__bad_interrupt>:
     10a:	0c 94 00 00 	jmp	0	; 0x0 <__vectors>

0000010e <_Z8data2ISRv>:
     10e:	8f e0       	ldi	r24, 0x0F	; 15
     110:	0e 94 53 08 	call	0x10a6	; 0x10a6 <analogRead>
     114:	90 93 3d 01 	sts	0x013D, r25
     118:	80 93 3c 01 	sts	0x013C, r24
     11c:	81 e0       	ldi	r24, 0x01	; 1
     11e:	80 93 3e 01 	sts	0x013E, r24
     122:	08 95       	ret

00000124 <_Z8data1ISRv>:
     124:	8e e0       	ldi	r24, 0x0E	; 14
     126:	0e 94 53 08 	call	0x10a6	; 0x10a6 <analogRead>
     12a:	90 93 40 01 	sts	0x0140, r25
     12e:	80 93 3f 01 	sts	0x013F, r24
     132:	81 e0       	ldi	r24, 0x01	; 1
     134:	80 93 41 01 	sts	0x0141, r24
     138:	08 95       	ret

0000013a <_Z8flashPinii>:
     13a:	cf 92       	push	r12
     13c:	df 92       	push	r13
     13e:	ef 92       	push	r14
     140:	ff 92       	push	r15
     142:	0f 93       	push	r16
     144:	1f 93       	push	r17
     146:	cf 93       	push	r28
     148:	c8 2f       	mov	r28, r24
     14a:	8b 01       	movw	r16, r22
     14c:	0e 94 04 08 	call	0x1008	; 0x1008 <millis>
     150:	46 2f       	mov	r20, r22
     152:	57 2f       	mov	r21, r23
     154:	68 2f       	mov	r22, r24
     156:	79 2f       	mov	r23, r25
     158:	80 91 38 01 	lds	r24, 0x0138
     15c:	90 91 39 01 	lds	r25, 0x0139
     160:	a0 91 3a 01 	lds	r26, 0x013A
     164:	b0 91 3b 01 	lds	r27, 0x013B
     168:	6a 01       	movw	r12, r20
     16a:	7b 01       	movw	r14, r22
     16c:	c8 1a       	sub	r12, r24
     16e:	d9 0a       	sbc	r13, r25
     170:	ea 0a       	sbc	r14, r26
     172:	fb 0a       	sbc	r15, r27
     174:	22 27       	eor	r18, r18
     176:	17 fd       	sbrc	r17, 7
     178:	20 95       	com	r18
     17a:	32 2f       	mov	r19, r18
     17c:	0c 15       	cp	r16, r12
     17e:	1d 05       	cpc	r17, r13
     180:	2e 05       	cpc	r18, r14
     182:	3f 05       	cpc	r19, r15
     184:	14 f5       	brge	.+68     	; 0x1ca <_Z8flashPinii+0x90>
     186:	80 91 41 01 	lds	r24, 0x0141
     18a:	81 11       	cpse	r24, r1
     18c:	1e c0       	rjmp	.+60     	; 0x1ca <_Z8flashPinii+0x90>
     18e:	40 93 38 01 	sts	0x0138, r20
     192:	50 93 39 01 	sts	0x0139, r21
     196:	60 93 3a 01 	sts	0x013A, r22
     19a:	70 93 3b 01 	sts	0x013B, r23
     19e:	80 91 36 01 	lds	r24, 0x0136
     1a2:	90 91 37 01 	lds	r25, 0x0137
     1a6:	89 2b       	or	r24, r25
     1a8:	39 f4       	brne	.+14     	; 0x1b8 <_Z8flashPinii+0x7e>
     1aa:	81 e0       	ldi	r24, 0x01	; 1
     1ac:	90 e0       	ldi	r25, 0x00	; 0
     1ae:	90 93 37 01 	sts	0x0137, r25
     1b2:	80 93 36 01 	sts	0x0136, r24
     1b6:	04 c0       	rjmp	.+8      	; 0x1c0 <_Z8flashPinii+0x86>
     1b8:	10 92 37 01 	sts	0x0137, r1
     1bc:	10 92 36 01 	sts	0x0136, r1
     1c0:	60 91 36 01 	lds	r22, 0x0136
     1c4:	8c 2f       	mov	r24, r28
     1c6:	0e 94 4e 09 	call	0x129c	; 0x129c <digitalWrite>
     1ca:	cf 91       	pop	r28
     1cc:	1f 91       	pop	r17
     1ce:	0f 91       	pop	r16
     1d0:	ff 90       	pop	r15
     1d2:	ef 90       	pop	r14
     1d4:	df 90       	pop	r13
     1d6:	cf 90       	pop	r12
     1d8:	08 95       	ret

000001da <_Z14remap1023to255i>:
     1da:	bc 01       	movw	r22, r24
     1dc:	88 27       	eor	r24, r24
     1de:	77 fd       	sbrc	r23, 7
	
}

int remap1023to255(int val)
{
	double percentage = val / 1023.0;
     1e0:	80 95       	com	r24
     1e2:	98 2f       	mov	r25, r24
     1e4:	0e 94 d6 02 	call	0x5ac	; 0x5ac <__floatsisf>
     1e8:	20 e0       	ldi	r18, 0x00	; 0
     1ea:	30 ec       	ldi	r19, 0xC0	; 192
     1ec:	4f e7       	ldi	r20, 0x7F	; 127
     1ee:	54 e4       	ldi	r21, 0x44	; 68
     1f0:	0e 94 3b 02 	call	0x476	; 0x476 <__divsf3>
	return percentage * 255.0; // Auto-unboxing: INT conversion
     1f4:	20 e0       	ldi	r18, 0x00	; 0
     1f6:	30 e0       	ldi	r19, 0x00	; 0
     1f8:	4f e7       	ldi	r20, 0x7F	; 127
     1fa:	53 e4       	ldi	r21, 0x43	; 67
     1fc:	0e 94 62 03 	call	0x6c4	; 0x6c4 <__mulsf3>
     200:	0e 94 a3 02 	call	0x546	; 0x546 <__fixsfsi>
}
     204:	86 2f       	mov	r24, r22
     206:	97 2f       	mov	r25, r23
     208:	08 95       	ret

0000020a <_Z10remapto255iii>:

int remapto255 (int val, int inLow, int inHigh)
{
     20a:	cf 92       	push	r12
     20c:	df 92       	push	r13
     20e:	ef 92       	push	r14
     210:	ff 92       	push	r15
     212:	0f 93       	push	r16
     214:	1f 93       	push	r17
     216:	cf 93       	push	r28
     218:	df 93       	push	r29
     21a:	eb 01       	movw	r28, r22
     21c:	8a 01       	movw	r16, r20
	double percentage = (val * 1.0) / (inHigh - inLow);
     21e:	bc 01       	movw	r22, r24
     220:	88 27       	eor	r24, r24
     222:	77 fd       	sbrc	r23, 7
     224:	80 95       	com	r24
     226:	98 2f       	mov	r25, r24
     228:	0e 94 d6 02 	call	0x5ac	; 0x5ac <__floatsisf>
     22c:	6b 01       	movw	r12, r22
     22e:	7c 01       	movw	r14, r24
     230:	b8 01       	movw	r22, r16
     232:	6c 1b       	sub	r22, r28
     234:	7d 0b       	sbc	r23, r29
     236:	88 27       	eor	r24, r24
     238:	77 fd       	sbrc	r23, 7
     23a:	80 95       	com	r24
     23c:	98 2f       	mov	r25, r24
     23e:	0e 94 d6 02 	call	0x5ac	; 0x5ac <__floatsisf>
     242:	9b 01       	movw	r18, r22
     244:	ac 01       	movw	r20, r24
     246:	c7 01       	movw	r24, r14
     248:	b6 01       	movw	r22, r12
     24a:	0e 94 3b 02 	call	0x476	; 0x476 <__divsf3>
	return (percentage * 255.0) + inLow; // Auto-unboxing: INT conversion
     24e:	20 e0       	ldi	r18, 0x00	; 0
     250:	30 e0       	ldi	r19, 0x00	; 0
     252:	4f e7       	ldi	r20, 0x7F	; 127
     254:	53 e4       	ldi	r21, 0x43	; 67
     256:	0e 94 62 03 	call	0x6c4	; 0x6c4 <__mulsf3>
     25a:	6b 01       	movw	r12, r22
     25c:	7c 01       	movw	r14, r24
     25e:	be 01       	movw	r22, r28
     260:	88 27       	eor	r24, r24
     262:	77 fd       	sbrc	r23, 7
     264:	80 95       	com	r24
     266:	98 2f       	mov	r25, r24
     268:	0e 94 d6 02 	call	0x5ac	; 0x5ac <__floatsisf>
     26c:	9b 01       	movw	r18, r22
     26e:	ac 01       	movw	r20, r24
     270:	c7 01       	movw	r24, r14
     272:	b6 01       	movw	r22, r12
     274:	0e 94 d7 01 	call	0x3ae	; 0x3ae <__addsf3>
     278:	0e 94 a3 02 	call	0x546	; 0x546 <__fixsfsi>
}
     27c:	86 2f       	mov	r24, r22
     27e:	97 2f       	mov	r25, r23
     280:	df 91       	pop	r29
     282:	cf 91       	pop	r28
     284:	1f 91       	pop	r17
     286:	0f 91       	pop	r16
     288:	ff 90       	pop	r15
     28a:	ef 90       	pop	r14
     28c:	df 90       	pop	r13
     28e:	cf 90       	pop	r12
     290:	08 95       	ret

00000292 <setup>:

void setup()
{
	attachInterrupt(INPUT1INT, data1ISR, RISING);
     292:	43 e0       	ldi	r20, 0x03	; 3
     294:	50 e0       	ldi	r21, 0x00	; 0
     296:	62 e9       	ldi	r22, 0x92	; 146
     298:	70 e0       	ldi	r23, 0x00	; 0
     29a:	80 e0       	ldi	r24, 0x00	; 0
     29c:	0e 94 3d 07 	call	0xe7a	; 0xe7a <attachInterrupt>
	attachInterrupt(INPUT2INT, data2ISR, RISING); //Use HIGH on Arduino DUE: helps while pressing down the button
     2a0:	43 e0       	ldi	r20, 0x03	; 3
     2a2:	50 e0       	ldi	r21, 0x00	; 0
     2a4:	67 e8       	ldi	r22, 0x87	; 135
     2a6:	70 e0       	ldi	r23, 0x00	; 0
     2a8:	81 e0       	ldi	r24, 0x01	; 1
     2aa:	0e 94 3d 07 	call	0xe7a	; 0xe7a <attachInterrupt>
	
	pinMode(analogOut, OUTPUT);
     2ae:	61 e0       	ldi	r22, 0x01	; 1
     2b0:	86 e0       	ldi	r24, 0x06	; 6
     2b2:	0e 94 0c 09 	call	0x1218	; 0x1218 <pinMode>
	pinMode(digitalOut, OUTPUT);
     2b6:	61 e0       	ldi	r22, 0x01	; 1
     2b8:	87 e0       	ldi	r24, 0x07	; 7
     2ba:	0e 94 0c 09 	call	0x1218	; 0x1218 <pinMode>
	Serial.begin(9600);
     2be:	40 e8       	ldi	r20, 0x80	; 128
     2c0:	55 e2       	ldi	r21, 0x25	; 37
     2c2:	60 e0       	ldi	r22, 0x00	; 0
     2c4:	70 e0       	ldi	r23, 0x00	; 0
     2c6:	82 e4       	ldi	r24, 0x42	; 66
     2c8:	91 e0       	ldi	r25, 0x01	; 1
     2ca:	0e 94 37 05 	call	0xa6e	; 0xa6e <_ZN14HardwareSerial5beginEm>
     2ce:	08 95       	ret

000002d0 <_Z14processSensor1i>:
}

void processSensor1 (int val)
{
     2d0:	cf 93       	push	r28
     2d2:	df 93       	push	r29
		val = remap1023to255(val);
     2d4:	0e 94 ed 00 	call	0x1da	; 0x1da <_Z14remap1023to255i>
     2d8:	ec 01       	movw	r28, r24
		Serial.print("Potentiometer: ");
     2da:	67 e0       	ldi	r22, 0x07	; 7
     2dc:	71 e0       	ldi	r23, 0x01	; 1
     2de:	82 e4       	ldi	r24, 0x42	; 66
     2e0:	91 e0       	ldi	r25, 0x01	; 1
     2e2:	0e 94 2c 06 	call	0xc58	; 0xc58 <_ZN5Print5printEPKc>
		Serial.println(val);
     2e6:	4a e0       	ldi	r20, 0x0A	; 10
     2e8:	50 e0       	ldi	r21, 0x00	; 0
     2ea:	be 01       	movw	r22, r28
     2ec:	82 e4       	ldi	r24, 0x42	; 66
     2ee:	91 e0       	ldi	r25, 0x01	; 1
     2f0:	0e 94 28 07 	call	0xe50	; 0xe50 <_ZN5Print7printlnEii>
		
		analogWrite(analogOut, val);	
     2f4:	be 01       	movw	r22, r28
     2f6:	86 e0       	ldi	r24, 0x06	; 6
     2f8:	0e 94 74 08 	call	0x10e8	; 0x10e8 <analogWrite>
}
     2fc:	df 91       	pop	r29
     2fe:	cf 91       	pop	r28
     300:	08 95       	ret

00000302 <_Z14processSensor2i>:

void processSensor2 (int touch)
{
     302:	cf 93       	push	r28
     304:	df 93       	push	r29
		touch = remapto255(touch, 0, 1023);
     306:	4f ef       	ldi	r20, 0xFF	; 255
     308:	53 e0       	ldi	r21, 0x03	; 3
     30a:	60 e0       	ldi	r22, 0x00	; 0
     30c:	70 e0       	ldi	r23, 0x00	; 0
     30e:	0e 94 05 01 	call	0x20a	; 0x20a <_Z10remapto255iii>
     312:	ec 01       	movw	r28, r24
		Serial.print("Touch Sensor: ");
     314:	67 e1       	ldi	r22, 0x17	; 23
     316:	71 e0       	ldi	r23, 0x01	; 1
     318:	82 e4       	ldi	r24, 0x42	; 66
     31a:	91 e0       	ldi	r25, 0x01	; 1
     31c:	0e 94 2c 06 	call	0xc58	; 0xc58 <_ZN5Print5printEPKc>
		Serial.println(touch);
     320:	4a e0       	ldi	r20, 0x0A	; 10
     322:	50 e0       	ldi	r21, 0x00	; 0
     324:	be 01       	movw	r22, r28
     326:	82 e4       	ldi	r24, 0x42	; 66
     328:	91 e0       	ldi	r25, 0x01	; 1
     32a:	0e 94 28 07 	call	0xe50	; 0xe50 <_ZN5Print7printlnEii>
			
		flashPin(digitalOut, touch);
     32e:	be 01       	movw	r22, r28
     330:	87 e0       	ldi	r24, 0x07	; 7
     332:	90 e0       	ldi	r25, 0x00	; 0
     334:	0e 94 9d 00 	call	0x13a	; 0x13a <_Z8flashPinii>
}
     338:	df 91       	pop	r29
     33a:	cf 91       	pop	r28
     33c:	08 95       	ret

0000033e <loop>:

void loop()
{
	if (data1Flag) 
     33e:	80 91 41 01 	lds	r24, 0x0141
     342:	88 23       	and	r24, r24
     344:	41 f0       	breq	.+16     	; 0x356 <loop+0x18>
	{
		processSensor1(data1);
     346:	80 91 3f 01 	lds	r24, 0x013F
     34a:	90 91 40 01 	lds	r25, 0x0140
     34e:	0e 94 68 01 	call	0x2d0	; 0x2d0 <_Z14processSensor1i>
		data1Flag = 0;
     352:	10 92 41 01 	sts	0x0141, r1
	}
	
	if (data2Flag)
     356:	80 91 3e 01 	lds	r24, 0x013E
     35a:	88 23       	and	r24, r24
     35c:	41 f0       	breq	.+16     	; 0x36e <loop+0x30>
	{
		processSensor2(data2);
     35e:	80 91 3c 01 	lds	r24, 0x013C
     362:	90 91 3d 01 	lds	r25, 0x013D
     366:	0e 94 81 01 	call	0x302	; 0x302 <_Z14processSensor2i>
		data2Flag = 0;		
     36a:	10 92 3e 01 	sts	0x013E, r1
	}
	
	if (!data1Flag)
     36e:	80 91 41 01 	lds	r24, 0x0141
     372:	81 11       	cpse	r24, r1
     374:	08 c0       	rjmp	.+16     	; 0x386 <loop+0x48>
		flashPin(7, data2);	
     376:	60 91 3c 01 	lds	r22, 0x013C
     37a:	70 91 3d 01 	lds	r23, 0x013D
     37e:	87 e0       	ldi	r24, 0x07	; 7
     380:	90 e0       	ldi	r25, 0x00	; 0
     382:	0e 94 9d 00 	call	0x13a	; 0x13a <_Z8flashPinii>
     386:	08 95       	ret

00000388 <main>:
}

int main(void)
{
	init();
     388:	0e 94 18 08 	call	0x1030	; 0x1030 <init>
	setup();
     38c:	0e 94 49 01 	call	0x292	; 0x292 <setup>
    while(1)
    {
		loop();
     390:	0e 94 9f 01 	call	0x33e	; 0x33e <loop>
		
		if(serialEventRun)
     394:	8f ea       	ldi	r24, 0xAF	; 175
     396:	94 e0       	ldi	r25, 0x04	; 4
     398:	89 2b       	or	r24, r25
     39a:	29 f0       	breq	.+10     	; 0x3a6 <main+0x1e>
			serialEventRun();
     39c:	0e 94 af 04 	call	0x95e	; 0x95e <_Z14serialEventRunv>
{
	init();
	setup();
    while(1)
    {
		loop();
     3a0:	0e 94 9f 01 	call	0x33e	; 0x33e <loop>
     3a4:	fb cf       	rjmp	.-10     	; 0x39c <main+0x14>
     3a6:	0e 94 9f 01 	call	0x33e	; 0x33e <loop>
     3aa:	fd cf       	rjmp	.-6      	; 0x3a6 <main+0x1e>

000003ac <__subsf3>:
     3ac:	50 58       	subi	r21, 0x80	; 128

000003ae <__addsf3>:
     3ae:	bb 27       	eor	r27, r27
     3b0:	aa 27       	eor	r26, r26
     3b2:	0e d0       	rcall	.+28     	; 0x3d0 <__addsf3x>
     3b4:	4d c1       	rjmp	.+666    	; 0x650 <__fp_round>
     3b6:	3e d1       	rcall	.+636    	; 0x634 <__fp_pscA>
     3b8:	30 f0       	brcs	.+12     	; 0x3c6 <__addsf3+0x18>
     3ba:	43 d1       	rcall	.+646    	; 0x642 <__fp_pscB>
     3bc:	20 f0       	brcs	.+8      	; 0x3c6 <__addsf3+0x18>
     3be:	31 f4       	brne	.+12     	; 0x3cc <__addsf3+0x1e>
     3c0:	9f 3f       	cpi	r25, 0xFF	; 255
     3c2:	11 f4       	brne	.+4      	; 0x3c8 <__addsf3+0x1a>
     3c4:	1e f4       	brtc	.+6      	; 0x3cc <__addsf3+0x1e>
     3c6:	33 c1       	rjmp	.+614    	; 0x62e <__fp_nan>
     3c8:	0e f4       	brtc	.+2      	; 0x3cc <__addsf3+0x1e>
     3ca:	e0 95       	com	r30
     3cc:	e7 fb       	bst	r30, 7
     3ce:	29 c1       	rjmp	.+594    	; 0x622 <__fp_inf>

000003d0 <__addsf3x>:
     3d0:	e9 2f       	mov	r30, r25
     3d2:	4f d1       	rcall	.+670    	; 0x672 <__fp_split3>
     3d4:	80 f3       	brcs	.-32     	; 0x3b6 <__addsf3+0x8>
     3d6:	ba 17       	cp	r27, r26
     3d8:	62 07       	cpc	r22, r18
     3da:	73 07       	cpc	r23, r19
     3dc:	84 07       	cpc	r24, r20
     3de:	95 07       	cpc	r25, r21
     3e0:	18 f0       	brcs	.+6      	; 0x3e8 <__addsf3x+0x18>
     3e2:	71 f4       	brne	.+28     	; 0x400 <__addsf3x+0x30>
     3e4:	9e f5       	brtc	.+102    	; 0x44c <__addsf3x+0x7c>
     3e6:	67 c1       	rjmp	.+718    	; 0x6b6 <__fp_zero>
     3e8:	0e f4       	brtc	.+2      	; 0x3ec <__addsf3x+0x1c>
     3ea:	e0 95       	com	r30
     3ec:	0b 2e       	mov	r0, r27
     3ee:	ba 2f       	mov	r27, r26
     3f0:	a0 2d       	mov	r26, r0
     3f2:	0b 01       	movw	r0, r22
     3f4:	b9 01       	movw	r22, r18
     3f6:	90 01       	movw	r18, r0
     3f8:	0c 01       	movw	r0, r24
     3fa:	ca 01       	movw	r24, r20
     3fc:	a0 01       	movw	r20, r0
     3fe:	11 24       	eor	r1, r1
     400:	ff 27       	eor	r31, r31
     402:	59 1b       	sub	r21, r25
     404:	99 f0       	breq	.+38     	; 0x42c <__addsf3x+0x5c>
     406:	59 3f       	cpi	r21, 0xF9	; 249
     408:	50 f4       	brcc	.+20     	; 0x41e <__addsf3x+0x4e>
     40a:	50 3e       	cpi	r21, 0xE0	; 224
     40c:	68 f1       	brcs	.+90     	; 0x468 <__addsf3x+0x98>
     40e:	1a 16       	cp	r1, r26
     410:	f0 40       	sbci	r31, 0x00	; 0
     412:	a2 2f       	mov	r26, r18
     414:	23 2f       	mov	r18, r19
     416:	34 2f       	mov	r19, r20
     418:	44 27       	eor	r20, r20
     41a:	58 5f       	subi	r21, 0xF8	; 248
     41c:	f3 cf       	rjmp	.-26     	; 0x404 <__addsf3x+0x34>
     41e:	46 95       	lsr	r20
     420:	37 95       	ror	r19
     422:	27 95       	ror	r18
     424:	a7 95       	ror	r26
     426:	f0 40       	sbci	r31, 0x00	; 0
     428:	53 95       	inc	r21
     42a:	c9 f7       	brne	.-14     	; 0x41e <__addsf3x+0x4e>
     42c:	7e f4       	brtc	.+30     	; 0x44c <__addsf3x+0x7c>
     42e:	1f 16       	cp	r1, r31
     430:	ba 0b       	sbc	r27, r26
     432:	62 0b       	sbc	r22, r18
     434:	73 0b       	sbc	r23, r19
     436:	84 0b       	sbc	r24, r20
     438:	ba f0       	brmi	.+46     	; 0x468 <__addsf3x+0x98>
     43a:	91 50       	subi	r25, 0x01	; 1
     43c:	a1 f0       	breq	.+40     	; 0x466 <__addsf3x+0x96>
     43e:	ff 0f       	add	r31, r31
     440:	bb 1f       	adc	r27, r27
     442:	66 1f       	adc	r22, r22
     444:	77 1f       	adc	r23, r23
     446:	88 1f       	adc	r24, r24
     448:	c2 f7       	brpl	.-16     	; 0x43a <__addsf3x+0x6a>
     44a:	0e c0       	rjmp	.+28     	; 0x468 <__addsf3x+0x98>
     44c:	ba 0f       	add	r27, r26
     44e:	62 1f       	adc	r22, r18
     450:	73 1f       	adc	r23, r19
     452:	84 1f       	adc	r24, r20
     454:	48 f4       	brcc	.+18     	; 0x468 <__addsf3x+0x98>
     456:	87 95       	ror	r24
     458:	77 95       	ror	r23
     45a:	67 95       	ror	r22
     45c:	b7 95       	ror	r27
     45e:	f7 95       	ror	r31
     460:	9e 3f       	cpi	r25, 0xFE	; 254
     462:	08 f0       	brcs	.+2      	; 0x466 <__addsf3x+0x96>
     464:	b3 cf       	rjmp	.-154    	; 0x3cc <__addsf3+0x1e>
     466:	93 95       	inc	r25
     468:	88 0f       	add	r24, r24
     46a:	08 f0       	brcs	.+2      	; 0x46e <__addsf3x+0x9e>
     46c:	99 27       	eor	r25, r25
     46e:	ee 0f       	add	r30, r30
     470:	97 95       	ror	r25
     472:	87 95       	ror	r24
     474:	08 95       	ret

00000476 <__divsf3>:
     476:	0c d0       	rcall	.+24     	; 0x490 <__divsf3x>
     478:	eb c0       	rjmp	.+470    	; 0x650 <__fp_round>
     47a:	e3 d0       	rcall	.+454    	; 0x642 <__fp_pscB>
     47c:	40 f0       	brcs	.+16     	; 0x48e <__divsf3+0x18>
     47e:	da d0       	rcall	.+436    	; 0x634 <__fp_pscA>
     480:	30 f0       	brcs	.+12     	; 0x48e <__divsf3+0x18>
     482:	21 f4       	brne	.+8      	; 0x48c <__divsf3+0x16>
     484:	5f 3f       	cpi	r21, 0xFF	; 255
     486:	19 f0       	breq	.+6      	; 0x48e <__divsf3+0x18>
     488:	cc c0       	rjmp	.+408    	; 0x622 <__fp_inf>
     48a:	51 11       	cpse	r21, r1
     48c:	15 c1       	rjmp	.+554    	; 0x6b8 <__fp_szero>
     48e:	cf c0       	rjmp	.+414    	; 0x62e <__fp_nan>

00000490 <__divsf3x>:
     490:	f0 d0       	rcall	.+480    	; 0x672 <__fp_split3>
     492:	98 f3       	brcs	.-26     	; 0x47a <__divsf3+0x4>

00000494 <__divsf3_pse>:
     494:	99 23       	and	r25, r25
     496:	c9 f3       	breq	.-14     	; 0x48a <__divsf3+0x14>
     498:	55 23       	and	r21, r21
     49a:	b1 f3       	breq	.-20     	; 0x488 <__divsf3+0x12>
     49c:	95 1b       	sub	r25, r21
     49e:	55 0b       	sbc	r21, r21
     4a0:	bb 27       	eor	r27, r27
     4a2:	aa 27       	eor	r26, r26
     4a4:	62 17       	cp	r22, r18
     4a6:	73 07       	cpc	r23, r19
     4a8:	84 07       	cpc	r24, r20
     4aa:	38 f0       	brcs	.+14     	; 0x4ba <__divsf3_pse+0x26>
     4ac:	9f 5f       	subi	r25, 0xFF	; 255
     4ae:	5f 4f       	sbci	r21, 0xFF	; 255
     4b0:	22 0f       	add	r18, r18
     4b2:	33 1f       	adc	r19, r19
     4b4:	44 1f       	adc	r20, r20
     4b6:	aa 1f       	adc	r26, r26
     4b8:	a9 f3       	breq	.-22     	; 0x4a4 <__divsf3_pse+0x10>
     4ba:	33 d0       	rcall	.+102    	; 0x522 <__divsf3_pse+0x8e>
     4bc:	0e 2e       	mov	r0, r30
     4be:	3a f0       	brmi	.+14     	; 0x4ce <__divsf3_pse+0x3a>
     4c0:	e0 e8       	ldi	r30, 0x80	; 128
     4c2:	30 d0       	rcall	.+96     	; 0x524 <__divsf3_pse+0x90>
     4c4:	91 50       	subi	r25, 0x01	; 1
     4c6:	50 40       	sbci	r21, 0x00	; 0
     4c8:	e6 95       	lsr	r30
     4ca:	00 1c       	adc	r0, r0
     4cc:	ca f7       	brpl	.-14     	; 0x4c0 <__divsf3_pse+0x2c>
     4ce:	29 d0       	rcall	.+82     	; 0x522 <__divsf3_pse+0x8e>
     4d0:	fe 2f       	mov	r31, r30
     4d2:	27 d0       	rcall	.+78     	; 0x522 <__divsf3_pse+0x8e>
     4d4:	66 0f       	add	r22, r22
     4d6:	77 1f       	adc	r23, r23
     4d8:	88 1f       	adc	r24, r24
     4da:	bb 1f       	adc	r27, r27
     4dc:	26 17       	cp	r18, r22
     4de:	37 07       	cpc	r19, r23
     4e0:	48 07       	cpc	r20, r24
     4e2:	ab 07       	cpc	r26, r27
     4e4:	b0 e8       	ldi	r27, 0x80	; 128
     4e6:	09 f0       	breq	.+2      	; 0x4ea <__divsf3_pse+0x56>
     4e8:	bb 0b       	sbc	r27, r27
     4ea:	80 2d       	mov	r24, r0
     4ec:	bf 01       	movw	r22, r30
     4ee:	ff 27       	eor	r31, r31
     4f0:	93 58       	subi	r25, 0x83	; 131
     4f2:	5f 4f       	sbci	r21, 0xFF	; 255
     4f4:	2a f0       	brmi	.+10     	; 0x500 <__divsf3_pse+0x6c>
     4f6:	9e 3f       	cpi	r25, 0xFE	; 254
     4f8:	51 05       	cpc	r21, r1
     4fa:	68 f0       	brcs	.+26     	; 0x516 <__divsf3_pse+0x82>
     4fc:	92 c0       	rjmp	.+292    	; 0x622 <__fp_inf>
     4fe:	dc c0       	rjmp	.+440    	; 0x6b8 <__fp_szero>
     500:	5f 3f       	cpi	r21, 0xFF	; 255
     502:	ec f3       	brlt	.-6      	; 0x4fe <__divsf3_pse+0x6a>
     504:	98 3e       	cpi	r25, 0xE8	; 232
     506:	dc f3       	brlt	.-10     	; 0x4fe <__divsf3_pse+0x6a>
     508:	86 95       	lsr	r24
     50a:	77 95       	ror	r23
     50c:	67 95       	ror	r22
     50e:	b7 95       	ror	r27
     510:	f7 95       	ror	r31
     512:	9f 5f       	subi	r25, 0xFF	; 255
     514:	c9 f7       	brne	.-14     	; 0x508 <__divsf3_pse+0x74>
     516:	88 0f       	add	r24, r24
     518:	91 1d       	adc	r25, r1
     51a:	96 95       	lsr	r25
     51c:	87 95       	ror	r24
     51e:	97 f9       	bld	r25, 7
     520:	08 95       	ret
     522:	e1 e0       	ldi	r30, 0x01	; 1
     524:	66 0f       	add	r22, r22
     526:	77 1f       	adc	r23, r23
     528:	88 1f       	adc	r24, r24
     52a:	bb 1f       	adc	r27, r27
     52c:	62 17       	cp	r22, r18
     52e:	73 07       	cpc	r23, r19
     530:	84 07       	cpc	r24, r20
     532:	ba 07       	cpc	r27, r26
     534:	20 f0       	brcs	.+8      	; 0x53e <__divsf3_pse+0xaa>
     536:	62 1b       	sub	r22, r18
     538:	73 0b       	sbc	r23, r19
     53a:	84 0b       	sbc	r24, r20
     53c:	ba 0b       	sbc	r27, r26
     53e:	ee 1f       	adc	r30, r30
     540:	88 f7       	brcc	.-30     	; 0x524 <__divsf3_pse+0x90>
     542:	e0 95       	com	r30
     544:	08 95       	ret

00000546 <__fixsfsi>:
     546:	04 d0       	rcall	.+8      	; 0x550 <__fixunssfsi>
     548:	68 94       	set
     54a:	b1 11       	cpse	r27, r1
     54c:	b5 c0       	rjmp	.+362    	; 0x6b8 <__fp_szero>
     54e:	08 95       	ret

00000550 <__fixunssfsi>:
     550:	98 d0       	rcall	.+304    	; 0x682 <__fp_splitA>
     552:	88 f0       	brcs	.+34     	; 0x576 <__fixunssfsi+0x26>
     554:	9f 57       	subi	r25, 0x7F	; 127
     556:	90 f0       	brcs	.+36     	; 0x57c <__fixunssfsi+0x2c>
     558:	b9 2f       	mov	r27, r25
     55a:	99 27       	eor	r25, r25
     55c:	b7 51       	subi	r27, 0x17	; 23
     55e:	a0 f0       	brcs	.+40     	; 0x588 <__fixunssfsi+0x38>
     560:	d1 f0       	breq	.+52     	; 0x596 <__fixunssfsi+0x46>
     562:	66 0f       	add	r22, r22
     564:	77 1f       	adc	r23, r23
     566:	88 1f       	adc	r24, r24
     568:	99 1f       	adc	r25, r25
     56a:	1a f0       	brmi	.+6      	; 0x572 <__fixunssfsi+0x22>
     56c:	ba 95       	dec	r27
     56e:	c9 f7       	brne	.-14     	; 0x562 <__fixunssfsi+0x12>
     570:	12 c0       	rjmp	.+36     	; 0x596 <__fixunssfsi+0x46>
     572:	b1 30       	cpi	r27, 0x01	; 1
     574:	81 f0       	breq	.+32     	; 0x596 <__fixunssfsi+0x46>
     576:	9f d0       	rcall	.+318    	; 0x6b6 <__fp_zero>
     578:	b1 e0       	ldi	r27, 0x01	; 1
     57a:	08 95       	ret
     57c:	9c c0       	rjmp	.+312    	; 0x6b6 <__fp_zero>
     57e:	67 2f       	mov	r22, r23
     580:	78 2f       	mov	r23, r24
     582:	88 27       	eor	r24, r24
     584:	b8 5f       	subi	r27, 0xF8	; 248
     586:	39 f0       	breq	.+14     	; 0x596 <__fixunssfsi+0x46>
     588:	b9 3f       	cpi	r27, 0xF9	; 249
     58a:	cc f3       	brlt	.-14     	; 0x57e <__fixunssfsi+0x2e>
     58c:	86 95       	lsr	r24
     58e:	77 95       	ror	r23
     590:	67 95       	ror	r22
     592:	b3 95       	inc	r27
     594:	d9 f7       	brne	.-10     	; 0x58c <__fixunssfsi+0x3c>
     596:	3e f4       	brtc	.+14     	; 0x5a6 <__fixunssfsi+0x56>
     598:	90 95       	com	r25
     59a:	80 95       	com	r24
     59c:	70 95       	com	r23
     59e:	61 95       	neg	r22
     5a0:	7f 4f       	sbci	r23, 0xFF	; 255
     5a2:	8f 4f       	sbci	r24, 0xFF	; 255
     5a4:	9f 4f       	sbci	r25, 0xFF	; 255
     5a6:	08 95       	ret

000005a8 <__floatunsisf>:
     5a8:	e8 94       	clt
     5aa:	09 c0       	rjmp	.+18     	; 0x5be <__floatsisf+0x12>

000005ac <__floatsisf>:
     5ac:	97 fb       	bst	r25, 7
     5ae:	3e f4       	brtc	.+14     	; 0x5be <__floatsisf+0x12>
     5b0:	90 95       	com	r25
     5b2:	80 95       	com	r24
     5b4:	70 95       	com	r23
     5b6:	61 95       	neg	r22
     5b8:	7f 4f       	sbci	r23, 0xFF	; 255
     5ba:	8f 4f       	sbci	r24, 0xFF	; 255
     5bc:	9f 4f       	sbci	r25, 0xFF	; 255
     5be:	99 23       	and	r25, r25
     5c0:	a9 f0       	breq	.+42     	; 0x5ec <__floatsisf+0x40>
     5c2:	f9 2f       	mov	r31, r25
     5c4:	96 e9       	ldi	r25, 0x96	; 150
     5c6:	bb 27       	eor	r27, r27
     5c8:	93 95       	inc	r25
     5ca:	f6 95       	lsr	r31
     5cc:	87 95       	ror	r24
     5ce:	77 95       	ror	r23
     5d0:	67 95       	ror	r22
     5d2:	b7 95       	ror	r27
     5d4:	f1 11       	cpse	r31, r1
     5d6:	f8 cf       	rjmp	.-16     	; 0x5c8 <__floatsisf+0x1c>
     5d8:	fa f4       	brpl	.+62     	; 0x618 <__floatsisf+0x6c>
     5da:	bb 0f       	add	r27, r27
     5dc:	11 f4       	brne	.+4      	; 0x5e2 <__floatsisf+0x36>
     5de:	60 ff       	sbrs	r22, 0
     5e0:	1b c0       	rjmp	.+54     	; 0x618 <__floatsisf+0x6c>
     5e2:	6f 5f       	subi	r22, 0xFF	; 255
     5e4:	7f 4f       	sbci	r23, 0xFF	; 255
     5e6:	8f 4f       	sbci	r24, 0xFF	; 255
     5e8:	9f 4f       	sbci	r25, 0xFF	; 255
     5ea:	16 c0       	rjmp	.+44     	; 0x618 <__floatsisf+0x6c>
     5ec:	88 23       	and	r24, r24
     5ee:	11 f0       	breq	.+4      	; 0x5f4 <__floatsisf+0x48>
     5f0:	96 e9       	ldi	r25, 0x96	; 150
     5f2:	11 c0       	rjmp	.+34     	; 0x616 <__floatsisf+0x6a>
     5f4:	77 23       	and	r23, r23
     5f6:	21 f0       	breq	.+8      	; 0x600 <__floatsisf+0x54>
     5f8:	9e e8       	ldi	r25, 0x8E	; 142
     5fa:	87 2f       	mov	r24, r23
     5fc:	76 2f       	mov	r23, r22
     5fe:	05 c0       	rjmp	.+10     	; 0x60a <__floatsisf+0x5e>
     600:	66 23       	and	r22, r22
     602:	71 f0       	breq	.+28     	; 0x620 <__floatsisf+0x74>
     604:	96 e8       	ldi	r25, 0x86	; 134
     606:	86 2f       	mov	r24, r22
     608:	70 e0       	ldi	r23, 0x00	; 0
     60a:	60 e0       	ldi	r22, 0x00	; 0
     60c:	2a f0       	brmi	.+10     	; 0x618 <__floatsisf+0x6c>
     60e:	9a 95       	dec	r25
     610:	66 0f       	add	r22, r22
     612:	77 1f       	adc	r23, r23
     614:	88 1f       	adc	r24, r24
     616:	da f7       	brpl	.-10     	; 0x60e <__floatsisf+0x62>
     618:	88 0f       	add	r24, r24
     61a:	96 95       	lsr	r25
     61c:	87 95       	ror	r24
     61e:	97 f9       	bld	r25, 7
     620:	08 95       	ret

00000622 <__fp_inf>:
     622:	97 f9       	bld	r25, 7
     624:	9f 67       	ori	r25, 0x7F	; 127
     626:	80 e8       	ldi	r24, 0x80	; 128
     628:	70 e0       	ldi	r23, 0x00	; 0
     62a:	60 e0       	ldi	r22, 0x00	; 0
     62c:	08 95       	ret

0000062e <__fp_nan>:
     62e:	9f ef       	ldi	r25, 0xFF	; 255
     630:	80 ec       	ldi	r24, 0xC0	; 192
     632:	08 95       	ret

00000634 <__fp_pscA>:
     634:	00 24       	eor	r0, r0
     636:	0a 94       	dec	r0
     638:	16 16       	cp	r1, r22
     63a:	17 06       	cpc	r1, r23
     63c:	18 06       	cpc	r1, r24
     63e:	09 06       	cpc	r0, r25
     640:	08 95       	ret

00000642 <__fp_pscB>:
     642:	00 24       	eor	r0, r0
     644:	0a 94       	dec	r0
     646:	12 16       	cp	r1, r18
     648:	13 06       	cpc	r1, r19
     64a:	14 06       	cpc	r1, r20
     64c:	05 06       	cpc	r0, r21
     64e:	08 95       	ret

00000650 <__fp_round>:
     650:	09 2e       	mov	r0, r25
     652:	03 94       	inc	r0
     654:	00 0c       	add	r0, r0
     656:	11 f4       	brne	.+4      	; 0x65c <__fp_round+0xc>
     658:	88 23       	and	r24, r24
     65a:	52 f0       	brmi	.+20     	; 0x670 <__fp_round+0x20>
     65c:	bb 0f       	add	r27, r27
     65e:	40 f4       	brcc	.+16     	; 0x670 <__fp_round+0x20>
     660:	bf 2b       	or	r27, r31
     662:	11 f4       	brne	.+4      	; 0x668 <__fp_round+0x18>
     664:	60 ff       	sbrs	r22, 0
     666:	04 c0       	rjmp	.+8      	; 0x670 <__fp_round+0x20>
     668:	6f 5f       	subi	r22, 0xFF	; 255
     66a:	7f 4f       	sbci	r23, 0xFF	; 255
     66c:	8f 4f       	sbci	r24, 0xFF	; 255
     66e:	9f 4f       	sbci	r25, 0xFF	; 255
     670:	08 95       	ret

00000672 <__fp_split3>:
     672:	57 fd       	sbrc	r21, 7
     674:	90 58       	subi	r25, 0x80	; 128
     676:	44 0f       	add	r20, r20
     678:	55 1f       	adc	r21, r21
     67a:	59 f0       	breq	.+22     	; 0x692 <__fp_splitA+0x10>
     67c:	5f 3f       	cpi	r21, 0xFF	; 255
     67e:	71 f0       	breq	.+28     	; 0x69c <__fp_splitA+0x1a>
     680:	47 95       	ror	r20

00000682 <__fp_splitA>:
     682:	88 0f       	add	r24, r24
     684:	97 fb       	bst	r25, 7
     686:	99 1f       	adc	r25, r25
     688:	61 f0       	breq	.+24     	; 0x6a2 <__fp_splitA+0x20>
     68a:	9f 3f       	cpi	r25, 0xFF	; 255
     68c:	79 f0       	breq	.+30     	; 0x6ac <__fp_splitA+0x2a>
     68e:	87 95       	ror	r24
     690:	08 95       	ret
     692:	12 16       	cp	r1, r18
     694:	13 06       	cpc	r1, r19
     696:	14 06       	cpc	r1, r20
     698:	55 1f       	adc	r21, r21
     69a:	f2 cf       	rjmp	.-28     	; 0x680 <__fp_split3+0xe>
     69c:	46 95       	lsr	r20
     69e:	f1 df       	rcall	.-30     	; 0x682 <__fp_splitA>
     6a0:	08 c0       	rjmp	.+16     	; 0x6b2 <__fp_splitA+0x30>
     6a2:	16 16       	cp	r1, r22
     6a4:	17 06       	cpc	r1, r23
     6a6:	18 06       	cpc	r1, r24
     6a8:	99 1f       	adc	r25, r25
     6aa:	f1 cf       	rjmp	.-30     	; 0x68e <__fp_splitA+0xc>
     6ac:	86 95       	lsr	r24
     6ae:	71 05       	cpc	r23, r1
     6b0:	61 05       	cpc	r22, r1
     6b2:	08 94       	sec
     6b4:	08 95       	ret

000006b6 <__fp_zero>:
     6b6:	e8 94       	clt

000006b8 <__fp_szero>:
     6b8:	bb 27       	eor	r27, r27
     6ba:	66 27       	eor	r22, r22
     6bc:	77 27       	eor	r23, r23
     6be:	cb 01       	movw	r24, r22
     6c0:	97 f9       	bld	r25, 7
     6c2:	08 95       	ret

000006c4 <__mulsf3>:
     6c4:	0b d0       	rcall	.+22     	; 0x6dc <__mulsf3x>
     6c6:	c4 cf       	rjmp	.-120    	; 0x650 <__fp_round>
     6c8:	b5 df       	rcall	.-150    	; 0x634 <__fp_pscA>
     6ca:	28 f0       	brcs	.+10     	; 0x6d6 <__mulsf3+0x12>
     6cc:	ba df       	rcall	.-140    	; 0x642 <__fp_pscB>
     6ce:	18 f0       	brcs	.+6      	; 0x6d6 <__mulsf3+0x12>
     6d0:	95 23       	and	r25, r21
     6d2:	09 f0       	breq	.+2      	; 0x6d6 <__mulsf3+0x12>
     6d4:	a6 cf       	rjmp	.-180    	; 0x622 <__fp_inf>
     6d6:	ab cf       	rjmp	.-170    	; 0x62e <__fp_nan>
     6d8:	11 24       	eor	r1, r1
     6da:	ee cf       	rjmp	.-36     	; 0x6b8 <__fp_szero>

000006dc <__mulsf3x>:
     6dc:	ca df       	rcall	.-108    	; 0x672 <__fp_split3>
     6de:	a0 f3       	brcs	.-24     	; 0x6c8 <__mulsf3+0x4>

000006e0 <__mulsf3_pse>:
     6e0:	95 9f       	mul	r25, r21
     6e2:	d1 f3       	breq	.-12     	; 0x6d8 <__mulsf3+0x14>
     6e4:	95 0f       	add	r25, r21
     6e6:	50 e0       	ldi	r21, 0x00	; 0
     6e8:	55 1f       	adc	r21, r21
     6ea:	62 9f       	mul	r22, r18
     6ec:	f0 01       	movw	r30, r0
     6ee:	72 9f       	mul	r23, r18
     6f0:	bb 27       	eor	r27, r27
     6f2:	f0 0d       	add	r31, r0
     6f4:	b1 1d       	adc	r27, r1
     6f6:	63 9f       	mul	r22, r19
     6f8:	aa 27       	eor	r26, r26
     6fa:	f0 0d       	add	r31, r0
     6fc:	b1 1d       	adc	r27, r1
     6fe:	aa 1f       	adc	r26, r26
     700:	64 9f       	mul	r22, r20
     702:	66 27       	eor	r22, r22
     704:	b0 0d       	add	r27, r0
     706:	a1 1d       	adc	r26, r1
     708:	66 1f       	adc	r22, r22
     70a:	82 9f       	mul	r24, r18
     70c:	22 27       	eor	r18, r18
     70e:	b0 0d       	add	r27, r0
     710:	a1 1d       	adc	r26, r1
     712:	62 1f       	adc	r22, r18
     714:	73 9f       	mul	r23, r19
     716:	b0 0d       	add	r27, r0
     718:	a1 1d       	adc	r26, r1
     71a:	62 1f       	adc	r22, r18
     71c:	83 9f       	mul	r24, r19
     71e:	a0 0d       	add	r26, r0
     720:	61 1d       	adc	r22, r1
     722:	22 1f       	adc	r18, r18
     724:	74 9f       	mul	r23, r20
     726:	33 27       	eor	r19, r19
     728:	a0 0d       	add	r26, r0
     72a:	61 1d       	adc	r22, r1
     72c:	23 1f       	adc	r18, r19
     72e:	84 9f       	mul	r24, r20
     730:	60 0d       	add	r22, r0
     732:	21 1d       	adc	r18, r1
     734:	82 2f       	mov	r24, r18
     736:	76 2f       	mov	r23, r22
     738:	6a 2f       	mov	r22, r26
     73a:	11 24       	eor	r1, r1
     73c:	9f 57       	subi	r25, 0x7F	; 127
     73e:	50 40       	sbci	r21, 0x00	; 0
     740:	8a f0       	brmi	.+34     	; 0x764 <__mulsf3_pse+0x84>
     742:	e1 f0       	breq	.+56     	; 0x77c <__mulsf3_pse+0x9c>
     744:	88 23       	and	r24, r24
     746:	4a f0       	brmi	.+18     	; 0x75a <__mulsf3_pse+0x7a>
     748:	ee 0f       	add	r30, r30
     74a:	ff 1f       	adc	r31, r31
     74c:	bb 1f       	adc	r27, r27
     74e:	66 1f       	adc	r22, r22
     750:	77 1f       	adc	r23, r23
     752:	88 1f       	adc	r24, r24
     754:	91 50       	subi	r25, 0x01	; 1
     756:	50 40       	sbci	r21, 0x00	; 0
     758:	a9 f7       	brne	.-22     	; 0x744 <__mulsf3_pse+0x64>
     75a:	9e 3f       	cpi	r25, 0xFE	; 254
     75c:	51 05       	cpc	r21, r1
     75e:	70 f0       	brcs	.+28     	; 0x77c <__mulsf3_pse+0x9c>
     760:	60 cf       	rjmp	.-320    	; 0x622 <__fp_inf>
     762:	aa cf       	rjmp	.-172    	; 0x6b8 <__fp_szero>
     764:	5f 3f       	cpi	r21, 0xFF	; 255
     766:	ec f3       	brlt	.-6      	; 0x762 <__mulsf3_pse+0x82>
     768:	98 3e       	cpi	r25, 0xE8	; 232
     76a:	dc f3       	brlt	.-10     	; 0x762 <__mulsf3_pse+0x82>
     76c:	86 95       	lsr	r24
     76e:	77 95       	ror	r23
     770:	67 95       	ror	r22
     772:	b7 95       	ror	r27
     774:	f7 95       	ror	r31
     776:	e7 95       	ror	r30
     778:	9f 5f       	subi	r25, 0xFF	; 255
     77a:	c1 f7       	brne	.-16     	; 0x76c <__mulsf3_pse+0x8c>
     77c:	fe 2b       	or	r31, r30
     77e:	88 0f       	add	r24, r24
     780:	91 1d       	adc	r25, r1
     782:	96 95       	lsr	r25
     784:	87 95       	ror	r24
     786:	97 f9       	bld	r25, 7
     788:	08 95       	ret

0000078a <_ZN14HardwareSerial9availableEv>:
     78a:	fc 01       	movw	r30, r24
     78c:	84 85       	ldd	r24, Z+12	; 0x0c
     78e:	95 85       	ldd	r25, Z+13	; 0x0d
     790:	fc 01       	movw	r30, r24
     792:	e0 5c       	subi	r30, 0xC0	; 192
     794:	ff 4f       	sbci	r31, 0xFF	; 255
     796:	20 81       	ld	r18, Z
     798:	31 81       	ldd	r19, Z+1	; 0x01
     79a:	fc 01       	movw	r30, r24
     79c:	ee 5b       	subi	r30, 0xBE	; 190
     79e:	ff 4f       	sbci	r31, 0xFF	; 255
     7a0:	80 81       	ld	r24, Z
     7a2:	91 81       	ldd	r25, Z+1	; 0x01
     7a4:	28 1b       	sub	r18, r24
     7a6:	39 0b       	sbc	r19, r25
     7a8:	2f 73       	andi	r18, 0x3F	; 63
     7aa:	33 27       	eor	r19, r19
     7ac:	82 2f       	mov	r24, r18
     7ae:	93 2f       	mov	r25, r19
     7b0:	08 95       	ret

000007b2 <_ZN14HardwareSerial4peekEv>:
     7b2:	fc 01       	movw	r30, r24
     7b4:	84 85       	ldd	r24, Z+12	; 0x0c
     7b6:	95 85       	ldd	r25, Z+13	; 0x0d
     7b8:	fc 01       	movw	r30, r24
     7ba:	e0 5c       	subi	r30, 0xC0	; 192
     7bc:	ff 4f       	sbci	r31, 0xFF	; 255
     7be:	40 81       	ld	r20, Z
     7c0:	51 81       	ldd	r21, Z+1	; 0x01
     7c2:	fc 01       	movw	r30, r24
     7c4:	ee 5b       	subi	r30, 0xBE	; 190
     7c6:	ff 4f       	sbci	r31, 0xFF	; 255
     7c8:	20 81       	ld	r18, Z
     7ca:	31 81       	ldd	r19, Z+1	; 0x01
     7cc:	42 17       	cp	r20, r18
     7ce:	53 07       	cpc	r21, r19
     7d0:	59 f0       	breq	.+22     	; 0x7e8 <_ZN14HardwareSerial4peekEv+0x36>
     7d2:	fc 01       	movw	r30, r24
     7d4:	ee 5b       	subi	r30, 0xBE	; 190
     7d6:	ff 4f       	sbci	r31, 0xFF	; 255
     7d8:	20 81       	ld	r18, Z
     7da:	31 81       	ldd	r19, Z+1	; 0x01
     7dc:	fc 01       	movw	r30, r24
     7de:	e2 0f       	add	r30, r18
     7e0:	f3 1f       	adc	r31, r19
     7e2:	20 81       	ld	r18, Z
     7e4:	30 e0       	ldi	r19, 0x00	; 0
     7e6:	02 c0       	rjmp	.+4      	; 0x7ec <_ZN14HardwareSerial4peekEv+0x3a>
     7e8:	2f ef       	ldi	r18, 0xFF	; 255
     7ea:	3f ef       	ldi	r19, 0xFF	; 255
     7ec:	82 2f       	mov	r24, r18
     7ee:	93 2f       	mov	r25, r19
     7f0:	08 95       	ret

000007f2 <_ZN14HardwareSerial4readEv>:
     7f2:	fc 01       	movw	r30, r24
     7f4:	84 85       	ldd	r24, Z+12	; 0x0c
     7f6:	95 85       	ldd	r25, Z+13	; 0x0d
     7f8:	fc 01       	movw	r30, r24
     7fa:	e0 5c       	subi	r30, 0xC0	; 192
     7fc:	ff 4f       	sbci	r31, 0xFF	; 255
     7fe:	40 81       	ld	r20, Z
     800:	51 81       	ldd	r21, Z+1	; 0x01
     802:	fc 01       	movw	r30, r24
     804:	ee 5b       	subi	r30, 0xBE	; 190
     806:	ff 4f       	sbci	r31, 0xFF	; 255
     808:	20 81       	ld	r18, Z
     80a:	31 81       	ldd	r19, Z+1	; 0x01
     80c:	42 17       	cp	r20, r18
     80e:	53 07       	cpc	r21, r19
     810:	91 f0       	breq	.+36     	; 0x836 <_ZN14HardwareSerial4readEv+0x44>
     812:	fc 01       	movw	r30, r24
     814:	ee 5b       	subi	r30, 0xBE	; 190
     816:	ff 4f       	sbci	r31, 0xFF	; 255
     818:	20 81       	ld	r18, Z
     81a:	31 81       	ldd	r19, Z+1	; 0x01
     81c:	dc 01       	movw	r26, r24
     81e:	a2 0f       	add	r26, r18
     820:	b3 1f       	adc	r27, r19
     822:	2c 91       	ld	r18, X
     824:	80 81       	ld	r24, Z
     826:	91 81       	ldd	r25, Z+1	; 0x01
     828:	01 96       	adiw	r24, 0x01	; 1
     82a:	8f 73       	andi	r24, 0x3F	; 63
     82c:	99 27       	eor	r25, r25
     82e:	91 83       	std	Z+1, r25	; 0x01
     830:	80 83       	st	Z, r24
     832:	30 e0       	ldi	r19, 0x00	; 0
     834:	02 c0       	rjmp	.+4      	; 0x83a <_ZN14HardwareSerial4readEv+0x48>
     836:	2f ef       	ldi	r18, 0xFF	; 255
     838:	3f ef       	ldi	r19, 0xFF	; 255
     83a:	82 2f       	mov	r24, r18
     83c:	93 2f       	mov	r25, r19
     83e:	08 95       	ret

00000840 <_ZN14HardwareSerial5flushEv>:
     840:	fc 01       	movw	r30, r24
     842:	81 a1       	ldd	r24, Z+33	; 0x21
     844:	88 23       	and	r24, r24
     846:	29 f0       	breq	.+10     	; 0x852 <_ZN14HardwareSerial5flushEv+0x12>
     848:	a4 89       	ldd	r26, Z+20	; 0x14
     84a:	b5 89       	ldd	r27, Z+21	; 0x15
     84c:	8c 91       	ld	r24, X
     84e:	86 ff       	sbrs	r24, 6
     850:	fb cf       	rjmp	.-10     	; 0x848 <_ZN14HardwareSerial5flushEv+0x8>
     852:	11 a2       	std	Z+33, r1	; 0x21
     854:	08 95       	ret

00000856 <_ZN14HardwareSerial5writeEh>:
     856:	dc 01       	movw	r26, r24
     858:	1e 96       	adiw	r26, 0x0e	; 14
     85a:	8d 91       	ld	r24, X+
     85c:	9c 91       	ld	r25, X
     85e:	1f 97       	sbiw	r26, 0x0f	; 15
     860:	fc 01       	movw	r30, r24
     862:	e0 5c       	subi	r30, 0xC0	; 192
     864:	ff 4f       	sbci	r31, 0xFF	; 255
     866:	40 81       	ld	r20, Z
     868:	51 81       	ldd	r21, Z+1	; 0x01
     86a:	4f 5f       	subi	r20, 0xFF	; 255
     86c:	5f 4f       	sbci	r21, 0xFF	; 255
     86e:	4f 73       	andi	r20, 0x3F	; 63
     870:	55 27       	eor	r21, r21
     872:	fc 01       	movw	r30, r24
     874:	ee 5b       	subi	r30, 0xBE	; 190
     876:	ff 4f       	sbci	r31, 0xFF	; 255
     878:	20 81       	ld	r18, Z
     87a:	31 81       	ldd	r19, Z+1	; 0x01
     87c:	24 17       	cp	r18, r20
     87e:	35 07       	cpc	r19, r21
     880:	d9 f3       	breq	.-10     	; 0x878 <_ZN14HardwareSerial5writeEh+0x22>
     882:	fc 01       	movw	r30, r24
     884:	e0 5c       	subi	r30, 0xC0	; 192
     886:	ff 4f       	sbci	r31, 0xFF	; 255
     888:	20 81       	ld	r18, Z
     88a:	31 81       	ldd	r19, Z+1	; 0x01
     88c:	fc 01       	movw	r30, r24
     88e:	e2 0f       	add	r30, r18
     890:	f3 1f       	adc	r31, r19
     892:	60 83       	st	Z, r22
     894:	1e 96       	adiw	r26, 0x0e	; 14
     896:	ed 91       	ld	r30, X+
     898:	fc 91       	ld	r31, X
     89a:	1f 97       	sbiw	r26, 0x0f	; 15
     89c:	e0 5c       	subi	r30, 0xC0	; 192
     89e:	ff 4f       	sbci	r31, 0xFF	; 255
     8a0:	51 83       	std	Z+1, r21	; 0x01
     8a2:	40 83       	st	Z, r20
     8a4:	56 96       	adiw	r26, 0x16	; 22
     8a6:	ed 91       	ld	r30, X+
     8a8:	fc 91       	ld	r31, X
     8aa:	57 97       	sbiw	r26, 0x17	; 23
     8ac:	40 81       	ld	r20, Z
     8ae:	21 e0       	ldi	r18, 0x01	; 1
     8b0:	30 e0       	ldi	r19, 0x00	; 0
     8b2:	c9 01       	movw	r24, r18
     8b4:	5f 96       	adiw	r26, 0x1f	; 31
     8b6:	0c 90       	ld	r0, X
     8b8:	5f 97       	sbiw	r26, 0x1f	; 31
     8ba:	02 c0       	rjmp	.+4      	; 0x8c0 <_ZN14HardwareSerial5writeEh+0x6a>
     8bc:	88 0f       	add	r24, r24
     8be:	99 1f       	adc	r25, r25
     8c0:	0a 94       	dec	r0
     8c2:	e2 f7       	brpl	.-8      	; 0x8bc <_ZN14HardwareSerial5writeEh+0x66>
     8c4:	84 2b       	or	r24, r20
     8c6:	80 83       	st	Z, r24
     8c8:	81 e0       	ldi	r24, 0x01	; 1
     8ca:	91 96       	adiw	r26, 0x21	; 33
     8cc:	8c 93       	st	X, r24
     8ce:	91 97       	sbiw	r26, 0x21	; 33
     8d0:	54 96       	adiw	r26, 0x14	; 20
     8d2:	ed 91       	ld	r30, X+
     8d4:	fc 91       	ld	r31, X
     8d6:	55 97       	sbiw	r26, 0x15	; 21
     8d8:	80 81       	ld	r24, Z
     8da:	80 64       	ori	r24, 0x40	; 64
     8dc:	80 83       	st	Z, r24
     8de:	81 e0       	ldi	r24, 0x01	; 1
     8e0:	90 e0       	ldi	r25, 0x00	; 0
     8e2:	08 95       	ret

000008e4 <_Z11serialEventv>:
     8e4:	08 95       	ret

000008e6 <__vector_18>:
     8e6:	1f 92       	push	r1
     8e8:	0f 92       	push	r0
     8ea:	0f b6       	in	r0, 0x3f	; 63
     8ec:	0f 92       	push	r0
     8ee:	11 24       	eor	r1, r1
     8f0:	2f 93       	push	r18
     8f2:	3f 93       	push	r19
     8f4:	4f 93       	push	r20
     8f6:	8f 93       	push	r24
     8f8:	9f 93       	push	r25
     8fa:	af 93       	push	r26
     8fc:	bf 93       	push	r27
     8fe:	ef 93       	push	r30
     900:	ff 93       	push	r31
     902:	80 91 c0 00 	lds	r24, 0x00C0
     906:	82 fd       	sbrc	r24, 2
     908:	1a c0       	rjmp	.+52     	; 0x93e <__stack+0x3f>
     90a:	40 91 c6 00 	lds	r20, 0x00C6
     90e:	80 91 e8 01 	lds	r24, 0x01E8
     912:	90 91 e9 01 	lds	r25, 0x01E9
     916:	01 96       	adiw	r24, 0x01	; 1
     918:	8f 73       	andi	r24, 0x3F	; 63
     91a:	99 27       	eor	r25, r25
     91c:	20 91 ea 01 	lds	r18, 0x01EA
     920:	30 91 eb 01 	lds	r19, 0x01EB
     924:	82 17       	cp	r24, r18
     926:	93 07       	cpc	r25, r19
     928:	61 f0       	breq	.+24     	; 0x942 <__stack+0x43>
     92a:	e8 ee       	ldi	r30, 0xE8	; 232
     92c:	f1 e0       	ldi	r31, 0x01	; 1
     92e:	a0 81       	ld	r26, Z
     930:	b1 81       	ldd	r27, Z+1	; 0x01
     932:	a8 55       	subi	r26, 0x58	; 88
     934:	be 4f       	sbci	r27, 0xFE	; 254
     936:	4c 93       	st	X, r20
     938:	91 83       	std	Z+1, r25	; 0x01
     93a:	80 83       	st	Z, r24
     93c:	02 c0       	rjmp	.+4      	; 0x942 <__stack+0x43>
     93e:	80 91 c6 00 	lds	r24, 0x00C6
     942:	ff 91       	pop	r31
     944:	ef 91       	pop	r30
     946:	bf 91       	pop	r27
     948:	af 91       	pop	r26
     94a:	9f 91       	pop	r25
     94c:	8f 91       	pop	r24
     94e:	4f 91       	pop	r20
     950:	3f 91       	pop	r19
     952:	2f 91       	pop	r18
     954:	0f 90       	pop	r0
     956:	0f be       	out	0x3f, r0	; 63
     958:	0f 90       	pop	r0
     95a:	1f 90       	pop	r1
     95c:	18 95       	reti

0000095e <_Z14serialEventRunv>:
     95e:	82 e4       	ldi	r24, 0x42	; 66
     960:	91 e0       	ldi	r25, 0x01	; 1
     962:	0e 94 c5 03 	call	0x78a	; 0x78a <_ZN14HardwareSerial9availableEv>
     966:	89 2b       	or	r24, r25
     968:	11 f0       	breq	.+4      	; 0x96e <_Z14serialEventRunv+0x10>
     96a:	0e 94 72 04 	call	0x8e4	; 0x8e4 <_Z11serialEventv>
     96e:	08 95       	ret

00000970 <__vector_19>:
     970:	1f 92       	push	r1
     972:	0f 92       	push	r0
     974:	0f b6       	in	r0, 0x3f	; 63
     976:	0f 92       	push	r0
     978:	11 24       	eor	r1, r1
     97a:	2f 93       	push	r18
     97c:	3f 93       	push	r19
     97e:	8f 93       	push	r24
     980:	9f 93       	push	r25
     982:	af 93       	push	r26
     984:	bf 93       	push	r27
     986:	ef 93       	push	r30
     988:	ff 93       	push	r31
     98a:	20 91 a4 01 	lds	r18, 0x01A4
     98e:	30 91 a5 01 	lds	r19, 0x01A5
     992:	80 91 a6 01 	lds	r24, 0x01A6
     996:	90 91 a7 01 	lds	r25, 0x01A7
     99a:	28 17       	cp	r18, r24
     99c:	39 07       	cpc	r19, r25
     99e:	31 f4       	brne	.+12     	; 0x9ac <__vector_19+0x3c>
     9a0:	e1 ec       	ldi	r30, 0xC1	; 193
     9a2:	f0 e0       	ldi	r31, 0x00	; 0
     9a4:	80 81       	ld	r24, Z
     9a6:	8f 7d       	andi	r24, 0xDF	; 223
     9a8:	80 83       	st	Z, r24
     9aa:	10 c0       	rjmp	.+32     	; 0x9cc <__vector_19+0x5c>
     9ac:	e6 ea       	ldi	r30, 0xA6	; 166
     9ae:	f1 e0       	ldi	r31, 0x01	; 1
     9b0:	a0 81       	ld	r26, Z
     9b2:	b1 81       	ldd	r27, Z+1	; 0x01
     9b4:	ac 59       	subi	r26, 0x9C	; 156
     9b6:	be 4f       	sbci	r27, 0xFE	; 254
     9b8:	2c 91       	ld	r18, X
     9ba:	80 81       	ld	r24, Z
     9bc:	91 81       	ldd	r25, Z+1	; 0x01
     9be:	01 96       	adiw	r24, 0x01	; 1
     9c0:	8f 73       	andi	r24, 0x3F	; 63
     9c2:	99 27       	eor	r25, r25
     9c4:	91 83       	std	Z+1, r25	; 0x01
     9c6:	80 83       	st	Z, r24
     9c8:	20 93 c6 00 	sts	0x00C6, r18
     9cc:	ff 91       	pop	r31
     9ce:	ef 91       	pop	r30
     9d0:	bf 91       	pop	r27
     9d2:	af 91       	pop	r26
     9d4:	9f 91       	pop	r25
     9d6:	8f 91       	pop	r24
     9d8:	3f 91       	pop	r19
     9da:	2f 91       	pop	r18
     9dc:	0f 90       	pop	r0
     9de:	0f be       	out	0x3f, r0	; 63
     9e0:	0f 90       	pop	r0
     9e2:	1f 90       	pop	r1
     9e4:	18 95       	reti

000009e6 <_ZN14HardwareSerialC1EP11ring_bufferS1_PVhS3_S3_S3_S3_S3_hhhhh>:
     9e6:	8f 92       	push	r8
     9e8:	9f 92       	push	r9
     9ea:	af 92       	push	r10
     9ec:	bf 92       	push	r11
     9ee:	cf 92       	push	r12
     9f0:	df 92       	push	r13
     9f2:	ef 92       	push	r14
     9f4:	ff 92       	push	r15
     9f6:	0f 93       	push	r16
     9f8:	1f 93       	push	r17
     9fa:	cf 93       	push	r28
     9fc:	df 93       	push	r29
     9fe:	cd b7       	in	r28, 0x3d	; 61
     a00:	de b7       	in	r29, 0x3e	; 62
     a02:	fc 01       	movw	r30, r24
     a04:	13 82       	std	Z+3, r1	; 0x03
     a06:	12 82       	std	Z+2, r1	; 0x02
     a08:	88 ee       	ldi	r24, 0xE8	; 232
     a0a:	93 e0       	ldi	r25, 0x03	; 3
     a0c:	a0 e0       	ldi	r26, 0x00	; 0
     a0e:	b0 e0       	ldi	r27, 0x00	; 0
     a10:	84 83       	std	Z+4, r24	; 0x04
     a12:	95 83       	std	Z+5, r25	; 0x05
     a14:	a6 83       	std	Z+6, r26	; 0x06
     a16:	b7 83       	std	Z+7, r27	; 0x07
     a18:	8a e2       	ldi	r24, 0x2A	; 42
     a1a:	91 e0       	ldi	r25, 0x01	; 1
     a1c:	91 83       	std	Z+1, r25	; 0x01
     a1e:	80 83       	st	Z, r24
     a20:	75 87       	std	Z+13, r23	; 0x0d
     a22:	64 87       	std	Z+12, r22	; 0x0c
     a24:	57 87       	std	Z+15, r21	; 0x0f
     a26:	46 87       	std	Z+14, r20	; 0x0e
     a28:	31 8b       	std	Z+17, r19	; 0x11
     a2a:	20 8b       	std	Z+16, r18	; 0x10
     a2c:	13 8b       	std	Z+19, r17	; 0x13
     a2e:	02 8b       	std	Z+18, r16	; 0x12
     a30:	f5 8a       	std	Z+21, r15	; 0x15
     a32:	e4 8a       	std	Z+20, r14	; 0x14
     a34:	d7 8a       	std	Z+23, r13	; 0x17
     a36:	c6 8a       	std	Z+22, r12	; 0x16
     a38:	b1 8e       	std	Z+25, r11	; 0x19
     a3a:	a0 8e       	std	Z+24, r10	; 0x18
     a3c:	93 8e       	std	Z+27, r9	; 0x1b
     a3e:	82 8e       	std	Z+26, r8	; 0x1a
     a40:	8f 85       	ldd	r24, Y+15	; 0x0f
     a42:	84 8f       	std	Z+28, r24	; 0x1c
     a44:	88 89       	ldd	r24, Y+16	; 0x10
     a46:	85 8f       	std	Z+29, r24	; 0x1d
     a48:	89 89       	ldd	r24, Y+17	; 0x11
     a4a:	86 8f       	std	Z+30, r24	; 0x1e
     a4c:	8a 89       	ldd	r24, Y+18	; 0x12
     a4e:	87 8f       	std	Z+31, r24	; 0x1f
     a50:	8b 89       	ldd	r24, Y+19	; 0x13
     a52:	80 a3       	std	Z+32, r24	; 0x20
     a54:	df 91       	pop	r29
     a56:	cf 91       	pop	r28
     a58:	1f 91       	pop	r17
     a5a:	0f 91       	pop	r16
     a5c:	ff 90       	pop	r15
     a5e:	ef 90       	pop	r14
     a60:	df 90       	pop	r13
     a62:	cf 90       	pop	r12
     a64:	bf 90       	pop	r11
     a66:	af 90       	pop	r10
     a68:	9f 90       	pop	r9
     a6a:	8f 90       	pop	r8
     a6c:	08 95       	ret

00000a6e <_ZN14HardwareSerial5beginEm>:
     a6e:	cf 92       	push	r12
     a70:	df 92       	push	r13
     a72:	ef 92       	push	r14
     a74:	ff 92       	push	r15
     a76:	cf 93       	push	r28
     a78:	df 93       	push	r29
     a7a:	ec 01       	movw	r28, r24
     a7c:	6a 01       	movw	r12, r20
     a7e:	7b 01       	movw	r14, r22
     a80:	41 15       	cp	r20, r1
     a82:	81 ee       	ldi	r24, 0xE1	; 225
     a84:	58 07       	cpc	r21, r24
     a86:	61 05       	cpc	r22, r1
     a88:	71 05       	cpc	r23, r1
     a8a:	09 f1       	breq	.+66     	; 0xace <_ZN14HardwareSerial5beginEm+0x60>
     a8c:	ec 89       	ldd	r30, Y+20	; 0x14
     a8e:	fd 89       	ldd	r31, Y+21	; 0x15
     a90:	81 e0       	ldi	r24, 0x01	; 1
     a92:	90 e0       	ldi	r25, 0x00	; 0
     a94:	08 a0       	ldd	r0, Y+32	; 0x20
     a96:	02 c0       	rjmp	.+4      	; 0xa9c <_ZN14HardwareSerial5beginEm+0x2e>
     a98:	88 0f       	add	r24, r24
     a9a:	99 1f       	adc	r25, r25
     a9c:	0a 94       	dec	r0
     a9e:	e2 f7       	brpl	.-8      	; 0xa98 <_ZN14HardwareSerial5beginEm+0x2a>
     aa0:	80 83       	st	Z, r24
     aa2:	60 e0       	ldi	r22, 0x00	; 0
     aa4:	79 e0       	ldi	r23, 0x09	; 9
     aa6:	8d e3       	ldi	r24, 0x3D	; 61
     aa8:	90 e0       	ldi	r25, 0x00	; 0
     aaa:	a7 01       	movw	r20, r14
     aac:	96 01       	movw	r18, r12
     aae:	0e 94 81 09 	call	0x1302	; 0x1302 <__udivmodsi4>
     ab2:	da 01       	movw	r26, r20
     ab4:	c9 01       	movw	r24, r18
     ab6:	01 97       	sbiw	r24, 0x01	; 1
     ab8:	a1 09       	sbc	r26, r1
     aba:	b1 09       	sbc	r27, r1
     abc:	b6 95       	lsr	r27
     abe:	a7 95       	ror	r26
     ac0:	97 95       	ror	r25
     ac2:	87 95       	ror	r24
     ac4:	9c 01       	movw	r18, r24
     ac6:	21 15       	cp	r18, r1
     ac8:	80 e1       	ldi	r24, 0x10	; 16
     aca:	38 07       	cpc	r19, r24
     acc:	a8 f0       	brcs	.+42     	; 0xaf8 <_ZN14HardwareSerial5beginEm+0x8a>
     ace:	ec 89       	ldd	r30, Y+20	; 0x14
     ad0:	fd 89       	ldd	r31, Y+21	; 0x15
     ad2:	10 82       	st	Z, r1
     ad4:	60 e8       	ldi	r22, 0x80	; 128
     ad6:	74 e8       	ldi	r23, 0x84	; 132
     ad8:	8e e1       	ldi	r24, 0x1E	; 30
     ada:	90 e0       	ldi	r25, 0x00	; 0
     adc:	a7 01       	movw	r20, r14
     ade:	96 01       	movw	r18, r12
     ae0:	0e 94 81 09 	call	0x1302	; 0x1302 <__udivmodsi4>
     ae4:	da 01       	movw	r26, r20
     ae6:	c9 01       	movw	r24, r18
     ae8:	01 97       	sbiw	r24, 0x01	; 1
     aea:	a1 09       	sbc	r26, r1
     aec:	b1 09       	sbc	r27, r1
     aee:	b6 95       	lsr	r27
     af0:	a7 95       	ror	r26
     af2:	97 95       	ror	r25
     af4:	87 95       	ror	r24
     af6:	9c 01       	movw	r18, r24
     af8:	e8 89       	ldd	r30, Y+16	; 0x10
     afa:	f9 89       	ldd	r31, Y+17	; 0x11
     afc:	30 83       	st	Z, r19
     afe:	ea 89       	ldd	r30, Y+18	; 0x12
     b00:	fb 89       	ldd	r31, Y+19	; 0x13
     b02:	20 83       	st	Z, r18
     b04:	19 a2       	std	Y+33, r1	; 0x21
     b06:	ee 89       	ldd	r30, Y+22	; 0x16
     b08:	ff 89       	ldd	r31, Y+23	; 0x17
     b0a:	40 81       	ld	r20, Z
     b0c:	81 e0       	ldi	r24, 0x01	; 1
     b0e:	90 e0       	ldi	r25, 0x00	; 0
     b10:	9c 01       	movw	r18, r24
     b12:	0c 8c       	ldd	r0, Y+28	; 0x1c
     b14:	02 c0       	rjmp	.+4      	; 0xb1a <_ZN14HardwareSerial5beginEm+0xac>
     b16:	22 0f       	add	r18, r18
     b18:	33 1f       	adc	r19, r19
     b1a:	0a 94       	dec	r0
     b1c:	e2 f7       	brpl	.-8      	; 0xb16 <_ZN14HardwareSerial5beginEm+0xa8>
     b1e:	24 2b       	or	r18, r20
     b20:	20 83       	st	Z, r18
     b22:	ee 89       	ldd	r30, Y+22	; 0x16
     b24:	ff 89       	ldd	r31, Y+23	; 0x17
     b26:	40 81       	ld	r20, Z
     b28:	9c 01       	movw	r18, r24
     b2a:	0d 8c       	ldd	r0, Y+29	; 0x1d
     b2c:	02 c0       	rjmp	.+4      	; 0xb32 <_ZN14HardwareSerial5beginEm+0xc4>
     b2e:	22 0f       	add	r18, r18
     b30:	33 1f       	adc	r19, r19
     b32:	0a 94       	dec	r0
     b34:	e2 f7       	brpl	.-8      	; 0xb2e <_ZN14HardwareSerial5beginEm+0xc0>
     b36:	24 2b       	or	r18, r20
     b38:	20 83       	st	Z, r18
     b3a:	ee 89       	ldd	r30, Y+22	; 0x16
     b3c:	ff 89       	ldd	r31, Y+23	; 0x17
     b3e:	40 81       	ld	r20, Z
     b40:	9c 01       	movw	r18, r24
     b42:	0e 8c       	ldd	r0, Y+30	; 0x1e
     b44:	02 c0       	rjmp	.+4      	; 0xb4a <_ZN14HardwareSerial5beginEm+0xdc>
     b46:	22 0f       	add	r18, r18
     b48:	33 1f       	adc	r19, r19
     b4a:	0a 94       	dec	r0
     b4c:	e2 f7       	brpl	.-8      	; 0xb46 <_ZN14HardwareSerial5beginEm+0xd8>
     b4e:	24 2b       	or	r18, r20
     b50:	20 83       	st	Z, r18
     b52:	ee 89       	ldd	r30, Y+22	; 0x16
     b54:	ff 89       	ldd	r31, Y+23	; 0x17
     b56:	20 81       	ld	r18, Z
     b58:	0f 8c       	ldd	r0, Y+31	; 0x1f
     b5a:	02 c0       	rjmp	.+4      	; 0xb60 <_ZN14HardwareSerial5beginEm+0xf2>
     b5c:	88 0f       	add	r24, r24
     b5e:	99 1f       	adc	r25, r25
     b60:	0a 94       	dec	r0
     b62:	e2 f7       	brpl	.-8      	; 0xb5c <_ZN14HardwareSerial5beginEm+0xee>
     b64:	80 95       	com	r24
     b66:	82 23       	and	r24, r18
     b68:	80 83       	st	Z, r24
     b6a:	df 91       	pop	r29
     b6c:	cf 91       	pop	r28
     b6e:	ff 90       	pop	r15
     b70:	ef 90       	pop	r14
     b72:	df 90       	pop	r13
     b74:	cf 90       	pop	r12
     b76:	08 95       	ret

00000b78 <_GLOBAL__sub_I_rx_buffer>:
     b78:	8f 92       	push	r8
     b7a:	9f 92       	push	r9
     b7c:	af 92       	push	r10
     b7e:	bf 92       	push	r11
     b80:	cf 92       	push	r12
     b82:	df 92       	push	r13
     b84:	ef 92       	push	r14
     b86:	ff 92       	push	r15
     b88:	0f 93       	push	r16
     b8a:	1f 93       	push	r17
     b8c:	81 e0       	ldi	r24, 0x01	; 1
     b8e:	8f 93       	push	r24
     b90:	85 e0       	ldi	r24, 0x05	; 5
     b92:	8f 93       	push	r24
     b94:	87 e0       	ldi	r24, 0x07	; 7
     b96:	8f 93       	push	r24
     b98:	83 e0       	ldi	r24, 0x03	; 3
     b9a:	8f 93       	push	r24
     b9c:	84 e0       	ldi	r24, 0x04	; 4
     b9e:	8f 93       	push	r24
     ba0:	0f 2e       	mov	r0, r31
     ba2:	f6 ec       	ldi	r31, 0xC6	; 198
     ba4:	8f 2e       	mov	r8, r31
     ba6:	91 2c       	mov	r9, r1
     ba8:	f0 2d       	mov	r31, r0
     baa:	0f 2e       	mov	r0, r31
     bac:	f2 ec       	ldi	r31, 0xC2	; 194
     bae:	af 2e       	mov	r10, r31
     bb0:	b1 2c       	mov	r11, r1
     bb2:	f0 2d       	mov	r31, r0
     bb4:	0f 2e       	mov	r0, r31
     bb6:	f1 ec       	ldi	r31, 0xC1	; 193
     bb8:	cf 2e       	mov	r12, r31
     bba:	d1 2c       	mov	r13, r1
     bbc:	f0 2d       	mov	r31, r0
     bbe:	0f 2e       	mov	r0, r31
     bc0:	f0 ec       	ldi	r31, 0xC0	; 192
     bc2:	ef 2e       	mov	r14, r31
     bc4:	f1 2c       	mov	r15, r1
     bc6:	f0 2d       	mov	r31, r0
     bc8:	04 ec       	ldi	r16, 0xC4	; 196
     bca:	10 e0       	ldi	r17, 0x00	; 0
     bcc:	25 ec       	ldi	r18, 0xC5	; 197
     bce:	30 e0       	ldi	r19, 0x00	; 0
     bd0:	44 e6       	ldi	r20, 0x64	; 100
     bd2:	51 e0       	ldi	r21, 0x01	; 1
     bd4:	68 ea       	ldi	r22, 0xA8	; 168
     bd6:	71 e0       	ldi	r23, 0x01	; 1
     bd8:	82 e4       	ldi	r24, 0x42	; 66
     bda:	91 e0       	ldi	r25, 0x01	; 1
     bdc:	0e 94 f3 04 	call	0x9e6	; 0x9e6 <_ZN14HardwareSerialC1EP11ring_bufferS1_PVhS3_S3_S3_S3_S3_hhhhh>
     be0:	0f 90       	pop	r0
     be2:	0f 90       	pop	r0
     be4:	0f 90       	pop	r0
     be6:	0f 90       	pop	r0
     be8:	0f 90       	pop	r0
     bea:	1f 91       	pop	r17
     bec:	0f 91       	pop	r16
     bee:	ff 90       	pop	r15
     bf0:	ef 90       	pop	r14
     bf2:	df 90       	pop	r13
     bf4:	cf 90       	pop	r12
     bf6:	bf 90       	pop	r11
     bf8:	af 90       	pop	r10
     bfa:	9f 90       	pop	r9
     bfc:	8f 90       	pop	r8
     bfe:	08 95       	ret

00000c00 <_ZN5Print5writeEPKhj>:
     c00:	cf 92       	push	r12
     c02:	df 92       	push	r13
     c04:	ef 92       	push	r14
     c06:	ff 92       	push	r15
     c08:	0f 93       	push	r16
     c0a:	1f 93       	push	r17
     c0c:	cf 93       	push	r28
     c0e:	df 93       	push	r29
     c10:	7c 01       	movw	r14, r24
     c12:	6b 01       	movw	r12, r22
     c14:	ea 01       	movw	r28, r20
     c16:	20 97       	sbiw	r28, 0x00	; 0
     c18:	91 f0       	breq	.+36     	; 0xc3e <_ZN5Print5writeEPKhj+0x3e>
     c1a:	00 e0       	ldi	r16, 0x00	; 0
     c1c:	10 e0       	ldi	r17, 0x00	; 0
     c1e:	d6 01       	movw	r26, r12
     c20:	6d 91       	ld	r22, X+
     c22:	6d 01       	movw	r12, r26
     c24:	d7 01       	movw	r26, r14
     c26:	ed 91       	ld	r30, X+
     c28:	fc 91       	ld	r31, X
     c2a:	01 90       	ld	r0, Z+
     c2c:	f0 81       	ld	r31, Z
     c2e:	e0 2d       	mov	r30, r0
     c30:	c7 01       	movw	r24, r14
     c32:	09 95       	icall
     c34:	08 0f       	add	r16, r24
     c36:	19 1f       	adc	r17, r25
     c38:	21 97       	sbiw	r28, 0x01	; 1
     c3a:	89 f7       	brne	.-30     	; 0xc1e <_ZN5Print5writeEPKhj+0x1e>
     c3c:	02 c0       	rjmp	.+4      	; 0xc42 <_ZN5Print5writeEPKhj+0x42>
     c3e:	00 e0       	ldi	r16, 0x00	; 0
     c40:	10 e0       	ldi	r17, 0x00	; 0
     c42:	80 2f       	mov	r24, r16
     c44:	91 2f       	mov	r25, r17
     c46:	df 91       	pop	r29
     c48:	cf 91       	pop	r28
     c4a:	1f 91       	pop	r17
     c4c:	0f 91       	pop	r16
     c4e:	ff 90       	pop	r15
     c50:	ef 90       	pop	r14
     c52:	df 90       	pop	r13
     c54:	cf 90       	pop	r12
     c56:	08 95       	ret

00000c58 <_ZN5Print5printEPKc>:
     c58:	61 15       	cp	r22, r1
     c5a:	71 05       	cpc	r23, r1
     c5c:	99 f0       	breq	.+38     	; 0xc84 <_ZN5Print5printEPKc+0x2c>
     c5e:	e6 2f       	mov	r30, r22
     c60:	f7 2f       	mov	r31, r23
     c62:	df 01       	movw	r26, r30
     c64:	0d 90       	ld	r0, X+
     c66:	00 20       	and	r0, r0
     c68:	e9 f7       	brne	.-6      	; 0xc64 <_ZN5Print5printEPKc+0xc>
     c6a:	11 97       	sbiw	r26, 0x01	; 1
     c6c:	ad 01       	movw	r20, r26
     c6e:	4e 1b       	sub	r20, r30
     c70:	5f 0b       	sbc	r21, r31
     c72:	dc 01       	movw	r26, r24
     c74:	ed 91       	ld	r30, X+
     c76:	fc 91       	ld	r31, X
     c78:	02 80       	ldd	r0, Z+2	; 0x02
     c7a:	f3 81       	ldd	r31, Z+3	; 0x03
     c7c:	e0 2d       	mov	r30, r0
     c7e:	09 95       	icall
     c80:	9c 01       	movw	r18, r24
     c82:	02 c0       	rjmp	.+4      	; 0xc88 <_ZN5Print5printEPKc+0x30>
     c84:	20 e0       	ldi	r18, 0x00	; 0
     c86:	30 e0       	ldi	r19, 0x00	; 0
     c88:	82 2f       	mov	r24, r18
     c8a:	93 2f       	mov	r25, r19
     c8c:	08 95       	ret

00000c8e <_ZN5Print5printEc>:
     c8e:	dc 01       	movw	r26, r24
     c90:	ed 91       	ld	r30, X+
     c92:	fc 91       	ld	r31, X
     c94:	01 90       	ld	r0, Z+
     c96:	f0 81       	ld	r31, Z
     c98:	e0 2d       	mov	r30, r0
     c9a:	09 95       	icall
     c9c:	08 95       	ret

00000c9e <_ZN5Print7printlnEv>:
     c9e:	0f 93       	push	r16
     ca0:	1f 93       	push	r17
     ca2:	cf 93       	push	r28
     ca4:	df 93       	push	r29
     ca6:	ec 01       	movw	r28, r24
     ca8:	6d e0       	ldi	r22, 0x0D	; 13
     caa:	0e 94 47 06 	call	0xc8e	; 0xc8e <_ZN5Print5printEc>
     cae:	8c 01       	movw	r16, r24
     cb0:	6a e0       	ldi	r22, 0x0A	; 10
     cb2:	ce 01       	movw	r24, r28
     cb4:	0e 94 47 06 	call	0xc8e	; 0xc8e <_ZN5Print5printEc>
     cb8:	9c 01       	movw	r18, r24
     cba:	20 0f       	add	r18, r16
     cbc:	31 1f       	adc	r19, r17
     cbe:	82 2f       	mov	r24, r18
     cc0:	93 2f       	mov	r25, r19
     cc2:	df 91       	pop	r29
     cc4:	cf 91       	pop	r28
     cc6:	1f 91       	pop	r17
     cc8:	0f 91       	pop	r16
     cca:	08 95       	ret

00000ccc <_ZN5Print11printNumberEmh>:
     ccc:	4f 92       	push	r4
     cce:	5f 92       	push	r5
     cd0:	6f 92       	push	r6
     cd2:	7f 92       	push	r7
     cd4:	9f 92       	push	r9
     cd6:	af 92       	push	r10
     cd8:	bf 92       	push	r11
     cda:	cf 92       	push	r12
     cdc:	df 92       	push	r13
     cde:	ef 92       	push	r14
     ce0:	ff 92       	push	r15
     ce2:	0f 93       	push	r16
     ce4:	1f 93       	push	r17
     ce6:	cf 93       	push	r28
     ce8:	df 93       	push	r29
     cea:	cd b7       	in	r28, 0x3d	; 61
     cec:	de b7       	in	r29, 0x3e	; 62
     cee:	a1 97       	sbiw	r28, 0x21	; 33
     cf0:	0f b6       	in	r0, 0x3f	; 63
     cf2:	f8 94       	cli
     cf4:	de bf       	out	0x3e, r29	; 62
     cf6:	0f be       	out	0x3f, r0	; 63
     cf8:	cd bf       	out	0x3d, r28	; 61
     cfa:	5c 01       	movw	r10, r24
     cfc:	6a 01       	movw	r12, r20
     cfe:	7b 01       	movw	r14, r22
     d00:	92 2e       	mov	r9, r18
     d02:	19 a2       	std	Y+33, r1	; 0x21
     d04:	81 e0       	ldi	r24, 0x01	; 1
     d06:	82 17       	cp	r24, r18
     d08:	20 f0       	brcs	.+8      	; 0xd12 <_ZN5Print11printNumberEmh+0x46>
     d0a:	0f 2e       	mov	r0, r31
     d0c:	fa e0       	ldi	r31, 0x0A	; 10
     d0e:	9f 2e       	mov	r9, r31
     d10:	f0 2d       	mov	r31, r0
     d12:	8e 01       	movw	r16, r28
     d14:	0f 5d       	subi	r16, 0xDF	; 223
     d16:	1f 4f       	sbci	r17, 0xFF	; 255
     d18:	49 2c       	mov	r4, r9
     d1a:	51 2c       	mov	r5, r1
     d1c:	61 2c       	mov	r6, r1
     d1e:	71 2c       	mov	r7, r1
     d20:	c7 01       	movw	r24, r14
     d22:	b6 01       	movw	r22, r12
     d24:	a3 01       	movw	r20, r6
     d26:	92 01       	movw	r18, r4
     d28:	0e 94 81 09 	call	0x1302	; 0x1302 <__udivmodsi4>
     d2c:	8c 2d       	mov	r24, r12
     d2e:	92 9e       	mul	r9, r18
     d30:	80 19       	sub	r24, r0
     d32:	11 24       	eor	r1, r1
     d34:	01 50       	subi	r16, 0x01	; 1
     d36:	11 09       	sbc	r17, r1
     d38:	8a 30       	cpi	r24, 0x0A	; 10
     d3a:	10 f4       	brcc	.+4      	; 0xd40 <_ZN5Print11printNumberEmh+0x74>
     d3c:	80 5d       	subi	r24, 0xD0	; 208
     d3e:	01 c0       	rjmp	.+2      	; 0xd42 <_ZN5Print11printNumberEmh+0x76>
     d40:	89 5c       	subi	r24, 0xC9	; 201
     d42:	d8 01       	movw	r26, r16
     d44:	8c 93       	st	X, r24
     d46:	c2 2e       	mov	r12, r18
     d48:	d3 2e       	mov	r13, r19
     d4a:	e4 2e       	mov	r14, r20
     d4c:	f5 2e       	mov	r15, r21
     d4e:	c1 14       	cp	r12, r1
     d50:	d1 04       	cpc	r13, r1
     d52:	e1 04       	cpc	r14, r1
     d54:	f1 04       	cpc	r15, r1
     d56:	21 f7       	brne	.-56     	; 0xd20 <_ZN5Print11printNumberEmh+0x54>
     d58:	01 15       	cp	r16, r1
     d5a:	11 05       	cpc	r17, r1
     d5c:	a9 f0       	breq	.+42     	; 0xd88 <_ZN5Print11printNumberEmh+0xbc>
     d5e:	e0 2f       	mov	r30, r16
     d60:	f1 2f       	mov	r31, r17
     d62:	df 01       	movw	r26, r30
     d64:	0d 90       	ld	r0, X+
     d66:	00 20       	and	r0, r0
     d68:	e9 f7       	brne	.-6      	; 0xd64 <_ZN5Print11printNumberEmh+0x98>
     d6a:	11 97       	sbiw	r26, 0x01	; 1
     d6c:	ad 01       	movw	r20, r26
     d6e:	4e 1b       	sub	r20, r30
     d70:	5f 0b       	sbc	r21, r31
     d72:	d5 01       	movw	r26, r10
     d74:	ed 91       	ld	r30, X+
     d76:	fc 91       	ld	r31, X
     d78:	02 80       	ldd	r0, Z+2	; 0x02
     d7a:	f3 81       	ldd	r31, Z+3	; 0x03
     d7c:	e0 2d       	mov	r30, r0
     d7e:	b8 01       	movw	r22, r16
     d80:	c5 01       	movw	r24, r10
     d82:	09 95       	icall
     d84:	9c 01       	movw	r18, r24
     d86:	02 c0       	rjmp	.+4      	; 0xd8c <_ZN5Print11printNumberEmh+0xc0>
     d88:	20 e0       	ldi	r18, 0x00	; 0
     d8a:	30 e0       	ldi	r19, 0x00	; 0
     d8c:	82 2f       	mov	r24, r18
     d8e:	93 2f       	mov	r25, r19
     d90:	a1 96       	adiw	r28, 0x21	; 33
     d92:	0f b6       	in	r0, 0x3f	; 63
     d94:	f8 94       	cli
     d96:	de bf       	out	0x3e, r29	; 62
     d98:	0f be       	out	0x3f, r0	; 63
     d9a:	cd bf       	out	0x3d, r28	; 61
     d9c:	df 91       	pop	r29
     d9e:	cf 91       	pop	r28
     da0:	1f 91       	pop	r17
     da2:	0f 91       	pop	r16
     da4:	ff 90       	pop	r15
     da6:	ef 90       	pop	r14
     da8:	df 90       	pop	r13
     daa:	cf 90       	pop	r12
     dac:	bf 90       	pop	r11
     dae:	af 90       	pop	r10
     db0:	9f 90       	pop	r9
     db2:	7f 90       	pop	r7
     db4:	6f 90       	pop	r6
     db6:	5f 90       	pop	r5
     db8:	4f 90       	pop	r4
     dba:	08 95       	ret

00000dbc <_ZN5Print5printEli>:
     dbc:	cf 92       	push	r12
     dbe:	df 92       	push	r13
     dc0:	ef 92       	push	r14
     dc2:	ff 92       	push	r15
     dc4:	0f 93       	push	r16
     dc6:	1f 93       	push	r17
     dc8:	cf 93       	push	r28
     dca:	df 93       	push	r29
     dcc:	ec 01       	movw	r28, r24
     dce:	6a 01       	movw	r12, r20
     dd0:	7b 01       	movw	r14, r22
     dd2:	21 15       	cp	r18, r1
     dd4:	31 05       	cpc	r19, r1
     dd6:	49 f4       	brne	.+18     	; 0xdea <_ZN5Print5printEli+0x2e>
     dd8:	e8 81       	ld	r30, Y
     dda:	f9 81       	ldd	r31, Y+1	; 0x01
     ddc:	01 90       	ld	r0, Z+
     dde:	f0 81       	ld	r31, Z
     de0:	e0 2d       	mov	r30, r0
     de2:	64 2f       	mov	r22, r20
     de4:	09 95       	icall
     de6:	8c 01       	movw	r16, r24
     de8:	1f c0       	rjmp	.+62     	; 0xe28 <_ZN5Print5printEli+0x6c>
     dea:	2a 30       	cpi	r18, 0x0A	; 10
     dec:	31 05       	cpc	r19, r1
     dee:	c9 f4       	brne	.+50     	; 0xe22 <_ZN5Print5printEli+0x66>
     df0:	77 23       	and	r23, r23
     df2:	94 f4       	brge	.+36     	; 0xe18 <_ZN5Print5printEli+0x5c>
     df4:	6d e2       	ldi	r22, 0x2D	; 45
     df6:	0e 94 47 06 	call	0xc8e	; 0xc8e <_ZN5Print5printEc>
     dfa:	8c 01       	movw	r16, r24
     dfc:	44 27       	eor	r20, r20
     dfe:	55 27       	eor	r21, r21
     e00:	ba 01       	movw	r22, r20
     e02:	4c 19       	sub	r20, r12
     e04:	5d 09       	sbc	r21, r13
     e06:	6e 09       	sbc	r22, r14
     e08:	7f 09       	sbc	r23, r15
     e0a:	2a e0       	ldi	r18, 0x0A	; 10
     e0c:	ce 01       	movw	r24, r28
     e0e:	0e 94 66 06 	call	0xccc	; 0xccc <_ZN5Print11printNumberEmh>
     e12:	08 0f       	add	r16, r24
     e14:	19 1f       	adc	r17, r25
     e16:	08 c0       	rjmp	.+16     	; 0xe28 <_ZN5Print5printEli+0x6c>
     e18:	2a e0       	ldi	r18, 0x0A	; 10
     e1a:	0e 94 66 06 	call	0xccc	; 0xccc <_ZN5Print11printNumberEmh>
     e1e:	8c 01       	movw	r16, r24
     e20:	03 c0       	rjmp	.+6      	; 0xe28 <_ZN5Print5printEli+0x6c>
     e22:	0e 94 66 06 	call	0xccc	; 0xccc <_ZN5Print11printNumberEmh>
     e26:	8c 01       	movw	r16, r24
     e28:	80 2f       	mov	r24, r16
     e2a:	91 2f       	mov	r25, r17
     e2c:	df 91       	pop	r29
     e2e:	cf 91       	pop	r28
     e30:	1f 91       	pop	r17
     e32:	0f 91       	pop	r16
     e34:	ff 90       	pop	r15
     e36:	ef 90       	pop	r14
     e38:	df 90       	pop	r13
     e3a:	cf 90       	pop	r12
     e3c:	08 95       	ret

00000e3e <_ZN5Print5printEii>:
     e3e:	9a 01       	movw	r18, r20
     e40:	ab 01       	movw	r20, r22
     e42:	66 27       	eor	r22, r22
     e44:	57 fd       	sbrc	r21, 7
     e46:	60 95       	com	r22
     e48:	76 2f       	mov	r23, r22
     e4a:	0e 94 de 06 	call	0xdbc	; 0xdbc <_ZN5Print5printEli>
     e4e:	08 95       	ret

00000e50 <_ZN5Print7printlnEii>:
     e50:	0f 93       	push	r16
     e52:	1f 93       	push	r17
     e54:	cf 93       	push	r28
     e56:	df 93       	push	r29
     e58:	ec 01       	movw	r28, r24
     e5a:	0e 94 1f 07 	call	0xe3e	; 0xe3e <_ZN5Print5printEii>
     e5e:	8c 01       	movw	r16, r24
     e60:	ce 01       	movw	r24, r28
     e62:	0e 94 4f 06 	call	0xc9e	; 0xc9e <_ZN5Print7printlnEv>
     e66:	9c 01       	movw	r18, r24
     e68:	20 0f       	add	r18, r16
     e6a:	31 1f       	adc	r19, r17
     e6c:	82 2f       	mov	r24, r18
     e6e:	93 2f       	mov	r25, r19
     e70:	df 91       	pop	r29
     e72:	cf 91       	pop	r28
     e74:	1f 91       	pop	r17
     e76:	0f 91       	pop	r16
     e78:	08 95       	ret

00000e7a <attachInterrupt>:
     e7a:	82 30       	cpi	r24, 0x02	; 2
     e7c:	00 f5       	brcc	.+64     	; 0xebe <attachInterrupt+0x44>
     e7e:	e8 2f       	mov	r30, r24
     e80:	f0 e0       	ldi	r31, 0x00	; 0
     e82:	ee 0f       	add	r30, r30
     e84:	ff 1f       	adc	r31, r31
     e86:	e4 51       	subi	r30, 0x14	; 20
     e88:	fe 4f       	sbci	r31, 0xFE	; 254
     e8a:	71 83       	std	Z+1, r23	; 0x01
     e8c:	60 83       	st	Z, r22
     e8e:	88 23       	and	r24, r24
     e90:	19 f0       	breq	.+6      	; 0xe98 <attachInterrupt+0x1e>
     e92:	81 30       	cpi	r24, 0x01	; 1
     e94:	a1 f4       	brne	.+40     	; 0xebe <attachInterrupt+0x44>
     e96:	08 c0       	rjmp	.+16     	; 0xea8 <attachInterrupt+0x2e>
     e98:	e9 e6       	ldi	r30, 0x69	; 105
     e9a:	f0 e0       	ldi	r31, 0x00	; 0
     e9c:	80 81       	ld	r24, Z
     e9e:	8c 7f       	andi	r24, 0xFC	; 252
     ea0:	48 2b       	or	r20, r24
     ea2:	40 83       	st	Z, r20
     ea4:	e8 9a       	sbi	0x1d, 0	; 29
     ea6:	08 95       	ret
     ea8:	e9 e6       	ldi	r30, 0x69	; 105
     eaa:	f0 e0       	ldi	r31, 0x00	; 0
     eac:	80 81       	ld	r24, Z
     eae:	44 0f       	add	r20, r20
     eb0:	55 1f       	adc	r21, r21
     eb2:	44 0f       	add	r20, r20
     eb4:	55 1f       	adc	r21, r21
     eb6:	83 7f       	andi	r24, 0xF3	; 243
     eb8:	48 2b       	or	r20, r24
     eba:	40 83       	st	Z, r20
     ebc:	e9 9a       	sbi	0x1d, 1	; 29
     ebe:	08 95       	ret

00000ec0 <__vector_1>:
     ec0:	1f 92       	push	r1
     ec2:	0f 92       	push	r0
     ec4:	0f b6       	in	r0, 0x3f	; 63
     ec6:	0f 92       	push	r0
     ec8:	11 24       	eor	r1, r1
     eca:	2f 93       	push	r18
     ecc:	3f 93       	push	r19
     ece:	4f 93       	push	r20
     ed0:	5f 93       	push	r21
     ed2:	6f 93       	push	r22
     ed4:	7f 93       	push	r23
     ed6:	8f 93       	push	r24
     ed8:	9f 93       	push	r25
     eda:	af 93       	push	r26
     edc:	bf 93       	push	r27
     ede:	ef 93       	push	r30
     ee0:	ff 93       	push	r31
     ee2:	80 91 ec 01 	lds	r24, 0x01EC
     ee6:	90 91 ed 01 	lds	r25, 0x01ED
     eea:	89 2b       	or	r24, r25
     eec:	29 f0       	breq	.+10     	; 0xef8 <__vector_1+0x38>
     eee:	e0 91 ec 01 	lds	r30, 0x01EC
     ef2:	f0 91 ed 01 	lds	r31, 0x01ED
     ef6:	09 95       	icall
     ef8:	ff 91       	pop	r31
     efa:	ef 91       	pop	r30
     efc:	bf 91       	pop	r27
     efe:	af 91       	pop	r26
     f00:	9f 91       	pop	r25
     f02:	8f 91       	pop	r24
     f04:	7f 91       	pop	r23
     f06:	6f 91       	pop	r22
     f08:	5f 91       	pop	r21
     f0a:	4f 91       	pop	r20
     f0c:	3f 91       	pop	r19
     f0e:	2f 91       	pop	r18
     f10:	0f 90       	pop	r0
     f12:	0f be       	out	0x3f, r0	; 63
     f14:	0f 90       	pop	r0
     f16:	1f 90       	pop	r1
     f18:	18 95       	reti

00000f1a <__vector_2>:
     f1a:	1f 92       	push	r1
     f1c:	0f 92       	push	r0
     f1e:	0f b6       	in	r0, 0x3f	; 63
     f20:	0f 92       	push	r0
     f22:	11 24       	eor	r1, r1
     f24:	2f 93       	push	r18
     f26:	3f 93       	push	r19
     f28:	4f 93       	push	r20
     f2a:	5f 93       	push	r21
     f2c:	6f 93       	push	r22
     f2e:	7f 93       	push	r23
     f30:	8f 93       	push	r24
     f32:	9f 93       	push	r25
     f34:	af 93       	push	r26
     f36:	bf 93       	push	r27
     f38:	ef 93       	push	r30
     f3a:	ff 93       	push	r31
     f3c:	80 91 ee 01 	lds	r24, 0x01EE
     f40:	90 91 ef 01 	lds	r25, 0x01EF
     f44:	89 2b       	or	r24, r25
     f46:	29 f0       	breq	.+10     	; 0xf52 <__vector_2+0x38>
     f48:	e0 91 ee 01 	lds	r30, 0x01EE
     f4c:	f0 91 ef 01 	lds	r31, 0x01EF
     f50:	09 95       	icall
     f52:	ff 91       	pop	r31
     f54:	ef 91       	pop	r30
     f56:	bf 91       	pop	r27
     f58:	af 91       	pop	r26
     f5a:	9f 91       	pop	r25
     f5c:	8f 91       	pop	r24
     f5e:	7f 91       	pop	r23
     f60:	6f 91       	pop	r22
     f62:	5f 91       	pop	r21
     f64:	4f 91       	pop	r20
     f66:	3f 91       	pop	r19
     f68:	2f 91       	pop	r18
     f6a:	0f 90       	pop	r0
     f6c:	0f be       	out	0x3f, r0	; 63
     f6e:	0f 90       	pop	r0
     f70:	1f 90       	pop	r1
     f72:	18 95       	reti

00000f74 <__vector_16>:
     f74:	1f 92       	push	r1
     f76:	0f 92       	push	r0
     f78:	0f b6       	in	r0, 0x3f	; 63
     f7a:	0f 92       	push	r0
     f7c:	11 24       	eor	r1, r1
     f7e:	2f 93       	push	r18
     f80:	3f 93       	push	r19
     f82:	8f 93       	push	r24
     f84:	9f 93       	push	r25
     f86:	af 93       	push	r26
     f88:	bf 93       	push	r27
     f8a:	80 91 f0 01 	lds	r24, 0x01F0
     f8e:	90 91 f1 01 	lds	r25, 0x01F1
     f92:	a0 91 f2 01 	lds	r26, 0x01F2
     f96:	b0 91 f3 01 	lds	r27, 0x01F3
     f9a:	30 91 f8 01 	lds	r19, 0x01F8
     f9e:	23 2f       	mov	r18, r19
     fa0:	2d 5f       	subi	r18, 0xFD	; 253
     fa2:	2d 37       	cpi	r18, 0x7D	; 125
     fa4:	20 f4       	brcc	.+8      	; 0xfae <__vector_16+0x3a>
     fa6:	01 96       	adiw	r24, 0x01	; 1
     fa8:	a1 1d       	adc	r26, r1
     faa:	b1 1d       	adc	r27, r1
     fac:	05 c0       	rjmp	.+10     	; 0xfb8 <__vector_16+0x44>
     fae:	23 2f       	mov	r18, r19
     fb0:	2a 57       	subi	r18, 0x7A	; 122
     fb2:	02 96       	adiw	r24, 0x02	; 2
     fb4:	a1 1d       	adc	r26, r1
     fb6:	b1 1d       	adc	r27, r1
     fb8:	20 93 f8 01 	sts	0x01F8, r18
     fbc:	80 93 f0 01 	sts	0x01F0, r24
     fc0:	90 93 f1 01 	sts	0x01F1, r25
     fc4:	a0 93 f2 01 	sts	0x01F2, r26
     fc8:	b0 93 f3 01 	sts	0x01F3, r27
     fcc:	80 91 f4 01 	lds	r24, 0x01F4
     fd0:	90 91 f5 01 	lds	r25, 0x01F5
     fd4:	a0 91 f6 01 	lds	r26, 0x01F6
     fd8:	b0 91 f7 01 	lds	r27, 0x01F7
     fdc:	01 96       	adiw	r24, 0x01	; 1
     fde:	a1 1d       	adc	r26, r1
     fe0:	b1 1d       	adc	r27, r1
     fe2:	80 93 f4 01 	sts	0x01F4, r24
     fe6:	90 93 f5 01 	sts	0x01F5, r25
     fea:	a0 93 f6 01 	sts	0x01F6, r26
     fee:	b0 93 f7 01 	sts	0x01F7, r27
     ff2:	bf 91       	pop	r27
     ff4:	af 91       	pop	r26
     ff6:	9f 91       	pop	r25
     ff8:	8f 91       	pop	r24
     ffa:	3f 91       	pop	r19
     ffc:	2f 91       	pop	r18
     ffe:	0f 90       	pop	r0
    1000:	0f be       	out	0x3f, r0	; 63
    1002:	0f 90       	pop	r0
    1004:	1f 90       	pop	r1
    1006:	18 95       	reti

00001008 <millis>:
    1008:	0f 93       	push	r16
    100a:	1f 93       	push	r17
    100c:	8f b7       	in	r24, 0x3f	; 63
    100e:	f8 94       	cli
    1010:	00 91 f0 01 	lds	r16, 0x01F0
    1014:	10 91 f1 01 	lds	r17, 0x01F1
    1018:	20 91 f2 01 	lds	r18, 0x01F2
    101c:	30 91 f3 01 	lds	r19, 0x01F3
    1020:	8f bf       	out	0x3f, r24	; 63
    1022:	60 2f       	mov	r22, r16
    1024:	71 2f       	mov	r23, r17
    1026:	82 2f       	mov	r24, r18
    1028:	93 2f       	mov	r25, r19
    102a:	1f 91       	pop	r17
    102c:	0f 91       	pop	r16
    102e:	08 95       	ret

00001030 <init>:
    1030:	78 94       	sei
    1032:	84 b5       	in	r24, 0x24	; 36
    1034:	82 60       	ori	r24, 0x02	; 2
    1036:	84 bd       	out	0x24, r24	; 36
    1038:	84 b5       	in	r24, 0x24	; 36
    103a:	81 60       	ori	r24, 0x01	; 1
    103c:	84 bd       	out	0x24, r24	; 36
    103e:	85 b5       	in	r24, 0x25	; 37
    1040:	82 60       	ori	r24, 0x02	; 2
    1042:	85 bd       	out	0x25, r24	; 37
    1044:	85 b5       	in	r24, 0x25	; 37
    1046:	81 60       	ori	r24, 0x01	; 1
    1048:	85 bd       	out	0x25, r24	; 37
    104a:	ee e6       	ldi	r30, 0x6E	; 110
    104c:	f0 e0       	ldi	r31, 0x00	; 0
    104e:	80 81       	ld	r24, Z
    1050:	81 60       	ori	r24, 0x01	; 1
    1052:	80 83       	st	Z, r24
    1054:	e1 e8       	ldi	r30, 0x81	; 129
    1056:	f0 e0       	ldi	r31, 0x00	; 0
    1058:	10 82       	st	Z, r1
    105a:	80 81       	ld	r24, Z
    105c:	82 60       	ori	r24, 0x02	; 2
    105e:	80 83       	st	Z, r24
    1060:	80 81       	ld	r24, Z
    1062:	81 60       	ori	r24, 0x01	; 1
    1064:	80 83       	st	Z, r24
    1066:	e0 e8       	ldi	r30, 0x80	; 128
    1068:	f0 e0       	ldi	r31, 0x00	; 0
    106a:	80 81       	ld	r24, Z
    106c:	81 60       	ori	r24, 0x01	; 1
    106e:	80 83       	st	Z, r24
    1070:	e1 eb       	ldi	r30, 0xB1	; 177
    1072:	f0 e0       	ldi	r31, 0x00	; 0
    1074:	80 81       	ld	r24, Z
    1076:	84 60       	ori	r24, 0x04	; 4
    1078:	80 83       	st	Z, r24
    107a:	e0 eb       	ldi	r30, 0xB0	; 176
    107c:	f0 e0       	ldi	r31, 0x00	; 0
    107e:	80 81       	ld	r24, Z
    1080:	81 60       	ori	r24, 0x01	; 1
    1082:	80 83       	st	Z, r24
    1084:	ea e7       	ldi	r30, 0x7A	; 122
    1086:	f0 e0       	ldi	r31, 0x00	; 0
    1088:	80 81       	ld	r24, Z
    108a:	84 60       	ori	r24, 0x04	; 4
    108c:	80 83       	st	Z, r24
    108e:	80 81       	ld	r24, Z
    1090:	82 60       	ori	r24, 0x02	; 2
    1092:	80 83       	st	Z, r24
    1094:	80 81       	ld	r24, Z
    1096:	81 60       	ori	r24, 0x01	; 1
    1098:	80 83       	st	Z, r24
    109a:	80 81       	ld	r24, Z
    109c:	80 68       	ori	r24, 0x80	; 128
    109e:	80 83       	st	Z, r24
    10a0:	10 92 c1 00 	sts	0x00C1, r1
    10a4:	08 95       	ret

000010a6 <analogRead>:
    10a6:	8e 30       	cpi	r24, 0x0E	; 14
    10a8:	08 f0       	brcs	.+2      	; 0x10ac <analogRead+0x6>
    10aa:	8e 50       	subi	r24, 0x0E	; 14
    10ac:	87 70       	andi	r24, 0x07	; 7
    10ae:	20 91 06 01 	lds	r18, 0x0106
    10b2:	40 e4       	ldi	r20, 0x40	; 64
    10b4:	24 9f       	mul	r18, r20
    10b6:	90 01       	movw	r18, r0
    10b8:	11 24       	eor	r1, r1
    10ba:	28 2b       	or	r18, r24
    10bc:	20 93 7c 00 	sts	0x007C, r18
    10c0:	ea e7       	ldi	r30, 0x7A	; 122
    10c2:	f0 e0       	ldi	r31, 0x00	; 0
    10c4:	80 81       	ld	r24, Z
    10c6:	80 64       	ori	r24, 0x40	; 64
    10c8:	80 83       	st	Z, r24
    10ca:	80 81       	ld	r24, Z
    10cc:	86 fd       	sbrc	r24, 6
    10ce:	fd cf       	rjmp	.-6      	; 0x10ca <analogRead+0x24>
    10d0:	20 91 78 00 	lds	r18, 0x0078
    10d4:	30 91 79 00 	lds	r19, 0x0079
    10d8:	93 2f       	mov	r25, r19
    10da:	80 e0       	ldi	r24, 0x00	; 0
    10dc:	ac 01       	movw	r20, r24
    10de:	42 2b       	or	r20, r18
    10e0:	9a 01       	movw	r18, r20
    10e2:	82 2f       	mov	r24, r18
    10e4:	93 2f       	mov	r25, r19
    10e6:	08 95       	ret

000010e8 <analogWrite>:
    10e8:	1f 93       	push	r17
    10ea:	cf 93       	push	r28
    10ec:	df 93       	push	r29
    10ee:	18 2f       	mov	r17, r24
    10f0:	eb 01       	movw	r28, r22
    10f2:	61 e0       	ldi	r22, 0x01	; 1
    10f4:	0e 94 0c 09 	call	0x1218	; 0x1218 <pinMode>
    10f8:	20 97       	sbiw	r28, 0x00	; 0
    10fa:	29 f4       	brne	.+10     	; 0x1106 <analogWrite+0x1e>
    10fc:	60 e0       	ldi	r22, 0x00	; 0
    10fe:	81 2f       	mov	r24, r17
    1100:	0e 94 4e 09 	call	0x129c	; 0x129c <digitalWrite>
    1104:	56 c0       	rjmp	.+172    	; 0x11b2 <analogWrite+0xca>
    1106:	cf 3f       	cpi	r28, 0xFF	; 255
    1108:	d1 05       	cpc	r29, r1
    110a:	29 f4       	brne	.+10     	; 0x1116 <analogWrite+0x2e>
    110c:	61 e0       	ldi	r22, 0x01	; 1
    110e:	81 2f       	mov	r24, r17
    1110:	0e 94 4e 09 	call	0x129c	; 0x129c <digitalWrite>
    1114:	4e c0       	rjmp	.+156    	; 0x11b2 <analogWrite+0xca>
    1116:	e1 2f       	mov	r30, r17
    1118:	f0 e0       	ldi	r31, 0x00	; 0
    111a:	e8 59       	subi	r30, 0x98	; 152
    111c:	ff 4f       	sbci	r31, 0xFF	; 255
    111e:	e4 91       	lpm	r30, Z
    1120:	e3 30       	cpi	r30, 0x03	; 3
    1122:	b9 f0       	breq	.+46     	; 0x1152 <analogWrite+0x6a>
    1124:	28 f4       	brcc	.+10     	; 0x1130 <analogWrite+0x48>
    1126:	e1 30       	cpi	r30, 0x01	; 1
    1128:	51 f0       	breq	.+20     	; 0x113e <analogWrite+0x56>
    112a:	e2 30       	cpi	r30, 0x02	; 2
    112c:	b1 f5       	brne	.+108    	; 0x119a <analogWrite+0xb2>
    112e:	0c c0       	rjmp	.+24     	; 0x1148 <analogWrite+0x60>
    1130:	e6 30       	cpi	r30, 0x06	; 6
    1132:	19 f1       	breq	.+70     	; 0x117a <analogWrite+0x92>
    1134:	e7 30       	cpi	r30, 0x07	; 7
    1136:	49 f1       	breq	.+82     	; 0x118a <analogWrite+0xa2>
    1138:	e4 30       	cpi	r30, 0x04	; 4
    113a:	79 f5       	brne	.+94     	; 0x119a <analogWrite+0xb2>
    113c:	14 c0       	rjmp	.+40     	; 0x1166 <analogWrite+0x7e>
    113e:	84 b5       	in	r24, 0x24	; 36
    1140:	80 68       	ori	r24, 0x80	; 128
    1142:	84 bd       	out	0x24, r24	; 36
    1144:	c7 bd       	out	0x27, r28	; 39
    1146:	35 c0       	rjmp	.+106    	; 0x11b2 <analogWrite+0xca>
    1148:	84 b5       	in	r24, 0x24	; 36
    114a:	80 62       	ori	r24, 0x20	; 32
    114c:	84 bd       	out	0x24, r24	; 36
    114e:	c8 bd       	out	0x28, r28	; 40
    1150:	30 c0       	rjmp	.+96     	; 0x11b2 <analogWrite+0xca>
    1152:	e0 e8       	ldi	r30, 0x80	; 128
    1154:	f0 e0       	ldi	r31, 0x00	; 0
    1156:	80 81       	ld	r24, Z
    1158:	80 68       	ori	r24, 0x80	; 128
    115a:	80 83       	st	Z, r24
    115c:	d0 93 89 00 	sts	0x0089, r29
    1160:	c0 93 88 00 	sts	0x0088, r28
    1164:	26 c0       	rjmp	.+76     	; 0x11b2 <analogWrite+0xca>
    1166:	e0 e8       	ldi	r30, 0x80	; 128
    1168:	f0 e0       	ldi	r31, 0x00	; 0
    116a:	80 81       	ld	r24, Z
    116c:	80 62       	ori	r24, 0x20	; 32
    116e:	80 83       	st	Z, r24
    1170:	d0 93 8b 00 	sts	0x008B, r29
    1174:	c0 93 8a 00 	sts	0x008A, r28
    1178:	1c c0       	rjmp	.+56     	; 0x11b2 <analogWrite+0xca>
    117a:	e0 eb       	ldi	r30, 0xB0	; 176
    117c:	f0 e0       	ldi	r31, 0x00	; 0
    117e:	80 81       	ld	r24, Z
    1180:	80 68       	ori	r24, 0x80	; 128
    1182:	80 83       	st	Z, r24
    1184:	c0 93 b3 00 	sts	0x00B3, r28
    1188:	14 c0       	rjmp	.+40     	; 0x11b2 <analogWrite+0xca>
    118a:	e0 eb       	ldi	r30, 0xB0	; 176
    118c:	f0 e0       	ldi	r31, 0x00	; 0
    118e:	80 81       	ld	r24, Z
    1190:	80 62       	ori	r24, 0x20	; 32
    1192:	80 83       	st	Z, r24
    1194:	c0 93 b4 00 	sts	0x00B4, r28
    1198:	0c c0       	rjmp	.+24     	; 0x11b2 <analogWrite+0xca>
    119a:	c0 38       	cpi	r28, 0x80	; 128
    119c:	d1 05       	cpc	r29, r1
    119e:	2c f4       	brge	.+10     	; 0x11aa <analogWrite+0xc2>
    11a0:	60 e0       	ldi	r22, 0x00	; 0
    11a2:	81 2f       	mov	r24, r17
    11a4:	0e 94 4e 09 	call	0x129c	; 0x129c <digitalWrite>
    11a8:	04 c0       	rjmp	.+8      	; 0x11b2 <analogWrite+0xca>
    11aa:	61 e0       	ldi	r22, 0x01	; 1
    11ac:	81 2f       	mov	r24, r17
    11ae:	0e 94 4e 09 	call	0x129c	; 0x129c <digitalWrite>
    11b2:	df 91       	pop	r29
    11b4:	cf 91       	pop	r28
    11b6:	1f 91       	pop	r17
    11b8:	08 95       	ret

000011ba <turnOffPWM>:
    11ba:	83 30       	cpi	r24, 0x03	; 3
    11bc:	69 f0       	breq	.+26     	; 0x11d8 <turnOffPWM+0x1e>
    11be:	28 f4       	brcc	.+10     	; 0x11ca <turnOffPWM+0x10>
    11c0:	81 30       	cpi	r24, 0x01	; 1
    11c2:	b1 f0       	breq	.+44     	; 0x11f0 <turnOffPWM+0x36>
    11c4:	82 30       	cpi	r24, 0x02	; 2
    11c6:	39 f5       	brne	.+78     	; 0x1216 <turnOffPWM+0x5c>
    11c8:	17 c0       	rjmp	.+46     	; 0x11f8 <turnOffPWM+0x3e>
    11ca:	86 30       	cpi	r24, 0x06	; 6
    11cc:	c9 f0       	breq	.+50     	; 0x1200 <turnOffPWM+0x46>
    11ce:	87 30       	cpi	r24, 0x07	; 7
    11d0:	e9 f0       	breq	.+58     	; 0x120c <turnOffPWM+0x52>
    11d2:	84 30       	cpi	r24, 0x04	; 4
    11d4:	01 f5       	brne	.+64     	; 0x1216 <turnOffPWM+0x5c>
    11d6:	06 c0       	rjmp	.+12     	; 0x11e4 <turnOffPWM+0x2a>
    11d8:	e0 e8       	ldi	r30, 0x80	; 128
    11da:	f0 e0       	ldi	r31, 0x00	; 0
    11dc:	80 81       	ld	r24, Z
    11de:	8f 77       	andi	r24, 0x7F	; 127
    11e0:	80 83       	st	Z, r24
    11e2:	08 95       	ret
    11e4:	e0 e8       	ldi	r30, 0x80	; 128
    11e6:	f0 e0       	ldi	r31, 0x00	; 0
    11e8:	80 81       	ld	r24, Z
    11ea:	8f 7d       	andi	r24, 0xDF	; 223
    11ec:	80 83       	st	Z, r24
    11ee:	08 95       	ret
    11f0:	84 b5       	in	r24, 0x24	; 36
    11f2:	8f 77       	andi	r24, 0x7F	; 127
    11f4:	84 bd       	out	0x24, r24	; 36
    11f6:	08 95       	ret
    11f8:	84 b5       	in	r24, 0x24	; 36
    11fa:	8f 7d       	andi	r24, 0xDF	; 223
    11fc:	84 bd       	out	0x24, r24	; 36
    11fe:	08 95       	ret
    1200:	e0 eb       	ldi	r30, 0xB0	; 176
    1202:	f0 e0       	ldi	r31, 0x00	; 0
    1204:	80 81       	ld	r24, Z
    1206:	8f 77       	andi	r24, 0x7F	; 127
    1208:	80 83       	st	Z, r24
    120a:	08 95       	ret
    120c:	e0 eb       	ldi	r30, 0xB0	; 176
    120e:	f0 e0       	ldi	r31, 0x00	; 0
    1210:	80 81       	ld	r24, Z
    1212:	8f 7d       	andi	r24, 0xDF	; 223
    1214:	80 83       	st	Z, r24
    1216:	08 95       	ret

00001218 <pinMode>:
    1218:	cf 93       	push	r28
    121a:	df 93       	push	r29
    121c:	90 e0       	ldi	r25, 0x00	; 0
    121e:	fc 01       	movw	r30, r24
    1220:	e4 58       	subi	r30, 0x84	; 132
    1222:	ff 4f       	sbci	r31, 0xFF	; 255
    1224:	44 91       	lpm	r20, Z
    1226:	fc 01       	movw	r30, r24
    1228:	e0 57       	subi	r30, 0x70	; 112
    122a:	ff 4f       	sbci	r31, 0xFF	; 255
    122c:	84 91       	lpm	r24, Z
    122e:	88 23       	and	r24, r24
    1230:	91 f1       	breq	.+100    	; 0x1296 <pinMode+0x7e>
    1232:	90 e0       	ldi	r25, 0x00	; 0
    1234:	88 0f       	add	r24, r24
    1236:	99 1f       	adc	r25, r25
    1238:	fc 01       	movw	r30, r24
    123a:	e2 55       	subi	r30, 0x52	; 82
    123c:	ff 4f       	sbci	r31, 0xFF	; 255
    123e:	25 91       	lpm	r18, Z+
    1240:	34 91       	lpm	r19, Z
    1242:	a2 2f       	mov	r26, r18
    1244:	b3 2f       	mov	r27, r19
    1246:	8c 55       	subi	r24, 0x5C	; 92
    1248:	9f 4f       	sbci	r25, 0xFF	; 255
    124a:	fc 01       	movw	r30, r24
    124c:	85 91       	lpm	r24, Z+
    124e:	94 91       	lpm	r25, Z
    1250:	c8 2f       	mov	r28, r24
    1252:	d9 2f       	mov	r29, r25
    1254:	61 11       	cpse	r22, r1
    1256:	0b c0       	rjmp	.+22     	; 0x126e <pinMode+0x56>
    1258:	8f b7       	in	r24, 0x3f	; 63
    125a:	f8 94       	cli
    125c:	9c 91       	ld	r25, X
    125e:	40 95       	com	r20
    1260:	94 23       	and	r25, r20
    1262:	9c 93       	st	X, r25
    1264:	e8 81       	ld	r30, Y
    1266:	4e 23       	and	r20, r30
    1268:	48 83       	st	Y, r20
    126a:	8f bf       	out	0x3f, r24	; 63
    126c:	14 c0       	rjmp	.+40     	; 0x1296 <pinMode+0x7e>
    126e:	62 30       	cpi	r22, 0x02	; 2
    1270:	61 f4       	brne	.+24     	; 0x128a <pinMode+0x72>
    1272:	8f b7       	in	r24, 0x3f	; 63
    1274:	f8 94       	cli
    1276:	2c 91       	ld	r18, X
    1278:	94 2f       	mov	r25, r20
    127a:	90 95       	com	r25
    127c:	92 23       	and	r25, r18
    127e:	9c 93       	st	X, r25
    1280:	e8 81       	ld	r30, Y
    1282:	4e 2b       	or	r20, r30
    1284:	48 83       	st	Y, r20
    1286:	8f bf       	out	0x3f, r24	; 63
    1288:	06 c0       	rjmp	.+12     	; 0x1296 <pinMode+0x7e>
    128a:	8f b7       	in	r24, 0x3f	; 63
    128c:	f8 94       	cli
    128e:	ec 91       	ld	r30, X
    1290:	4e 2b       	or	r20, r30
    1292:	4c 93       	st	X, r20
    1294:	8f bf       	out	0x3f, r24	; 63
    1296:	df 91       	pop	r29
    1298:	cf 91       	pop	r28
    129a:	08 95       	ret

0000129c <digitalWrite>:
    129c:	1f 93       	push	r17
    129e:	cf 93       	push	r28
    12a0:	df 93       	push	r29
    12a2:	c6 2f       	mov	r28, r22
    12a4:	28 2f       	mov	r18, r24
    12a6:	30 e0       	ldi	r19, 0x00	; 0
    12a8:	f9 01       	movw	r30, r18
    12aa:	e8 59       	subi	r30, 0x98	; 152
    12ac:	ff 4f       	sbci	r31, 0xFF	; 255
    12ae:	84 91       	lpm	r24, Z
    12b0:	f9 01       	movw	r30, r18
    12b2:	e4 58       	subi	r30, 0x84	; 132
    12b4:	ff 4f       	sbci	r31, 0xFF	; 255
    12b6:	d4 91       	lpm	r29, Z
    12b8:	f9 01       	movw	r30, r18
    12ba:	e0 57       	subi	r30, 0x70	; 112
    12bc:	ff 4f       	sbci	r31, 0xFF	; 255
    12be:	14 91       	lpm	r17, Z
    12c0:	11 23       	and	r17, r17
    12c2:	d9 f0       	breq	.+54     	; 0x12fa <digitalWrite+0x5e>
    12c4:	81 11       	cpse	r24, r1
    12c6:	0e 94 dd 08 	call	0x11ba	; 0x11ba <turnOffPWM>
    12ca:	21 2f       	mov	r18, r17
    12cc:	30 e0       	ldi	r19, 0x00	; 0
    12ce:	f9 01       	movw	r30, r18
    12d0:	ee 0f       	add	r30, r30
    12d2:	ff 1f       	adc	r31, r31
    12d4:	ec 55       	subi	r30, 0x5C	; 92
    12d6:	ff 4f       	sbci	r31, 0xFF	; 255
    12d8:	85 91       	lpm	r24, Z+
    12da:	94 91       	lpm	r25, Z
    12dc:	a8 2f       	mov	r26, r24
    12de:	b9 2f       	mov	r27, r25
    12e0:	8f b7       	in	r24, 0x3f	; 63
    12e2:	f8 94       	cli
    12e4:	c1 11       	cpse	r28, r1
    12e6:	05 c0       	rjmp	.+10     	; 0x12f2 <digitalWrite+0x56>
    12e8:	ec 91       	ld	r30, X
    12ea:	d0 95       	com	r29
    12ec:	de 23       	and	r29, r30
    12ee:	dc 93       	st	X, r29
    12f0:	03 c0       	rjmp	.+6      	; 0x12f8 <digitalWrite+0x5c>
    12f2:	ec 91       	ld	r30, X
    12f4:	de 2b       	or	r29, r30
    12f6:	dc 93       	st	X, r29
    12f8:	8f bf       	out	0x3f, r24	; 63
    12fa:	df 91       	pop	r29
    12fc:	cf 91       	pop	r28
    12fe:	1f 91       	pop	r17
    1300:	08 95       	ret

00001302 <__udivmodsi4>:
    1302:	a1 e2       	ldi	r26, 0x21	; 33
    1304:	1a 2e       	mov	r1, r26
    1306:	aa 1b       	sub	r26, r26
    1308:	bb 1b       	sub	r27, r27
    130a:	fd 01       	movw	r30, r26
    130c:	0d c0       	rjmp	.+26     	; 0x1328 <__udivmodsi4_ep>

0000130e <__udivmodsi4_loop>:
    130e:	aa 1f       	adc	r26, r26
    1310:	bb 1f       	adc	r27, r27
    1312:	ee 1f       	adc	r30, r30
    1314:	ff 1f       	adc	r31, r31
    1316:	a2 17       	cp	r26, r18
    1318:	b3 07       	cpc	r27, r19
    131a:	e4 07       	cpc	r30, r20
    131c:	f5 07       	cpc	r31, r21
    131e:	20 f0       	brcs	.+8      	; 0x1328 <__udivmodsi4_ep>
    1320:	a2 1b       	sub	r26, r18
    1322:	b3 0b       	sbc	r27, r19
    1324:	e4 0b       	sbc	r30, r20
    1326:	f5 0b       	sbc	r31, r21

00001328 <__udivmodsi4_ep>:
    1328:	66 1f       	adc	r22, r22
    132a:	77 1f       	adc	r23, r23
    132c:	88 1f       	adc	r24, r24
    132e:	99 1f       	adc	r25, r25
    1330:	1a 94       	dec	r1
    1332:	69 f7       	brne	.-38     	; 0x130e <__udivmodsi4_loop>
    1334:	60 95       	com	r22
    1336:	70 95       	com	r23
    1338:	80 95       	com	r24
    133a:	90 95       	com	r25
    133c:	9b 01       	movw	r18, r22
    133e:	ac 01       	movw	r20, r24
    1340:	bd 01       	movw	r22, r26
    1342:	cf 01       	movw	r24, r30
    1344:	08 95       	ret

00001346 <__tablejump2__>:
    1346:	ee 0f       	add	r30, r30
    1348:	ff 1f       	adc	r31, r31

0000134a <__tablejump__>:
    134a:	05 90       	lpm	r0, Z+
    134c:	f4 91       	lpm	r31, Z
    134e:	e0 2d       	mov	r30, r0
    1350:	09 94       	ijmp

00001352 <_exit>:
    1352:	f8 94       	cli

00001354 <__stop_program>:
    1354:	ff cf       	rjmp	.-2      	; 0x1354 <__stop_program>
