S01100006C61623270617274332E73726563C8
S11300000C945D000C9460070C948D070C9485008F
S11300100C9485000C9485000C9485000C94850048
S11300200C9485000C9485000C9485000C94850038
S11300300C9485000C9485000C9485000C94850028
S11300400C94BA070C9485000C9473040C94B804B3
S11300500C9485000C9485000C9485000C94850008
S11300600C9485000C948500000000070002010038
S11300700003040600000000000000000102040860
S113008010204080010204081020010204081020FE
S1130090040404040404040402020202020203032A
S11300A00303030300000000250028002B000000C8
S11300B00000240027002A00BC0511241FBECFEF36
S11300C0D8E0DEBFCDBF11E0A0E0B1E0E6E5F3E1AA
S11300D002C005900D92A633B107D9F721E0A6E33B
S11300E0B1E001C01D92A93FB207E1F710E0CAEBED
S11300F0D0E004C02297FE010E94A509C83BD107A5
S1130100C9F70E94C4010C94A9090C9400008FE063
S11301100E94530890933D0180933C0181E08093B9
S11301203E0108958EE00E9453089093400180930D
S11301303F0181E0809341010895CF92DF92EF92D5
S1130140FF920F931F93CF93C82F8B010E94040833
S1130150462F572F682F792F8091380190913901BC
S1130160A0913A01B0913B016A017B01C81AD90AF6
S1130170EA0AFB0A222717FD2095322F0C151D05CC
S11301802E053F0514F58091410181111EC0409355
S113019038015093390160933A0170933B01809187
S11301A0360190913701892B39F481E090E09093E6
S11301B037018093360104C0109237011092360142
S11301C0609136018C2F0E944E09CF911F910F919F
S11301D0FF90EF90DF90CF900895BC01882777FDC2
S11301E08095982F0E94D60220E030EC4FE754E42B
S11301F00E943B0220E030E04FE753E40E94620398
S11302000E94A302862F972F0895CF92DF92EF9238
S1130210FF920F931F93CF93DF93EB018A01BC01ED
S1130220882777FD8095982F0E94D6026B017C0168
S1130230B8016C1B7D0B882777FD8095982F0E9451
S1130240D6029B01AC01C701B6010E943B0220E02B
S113025030E04FE753E40E9462036B017C01BE016E
S1130260882777FD8095982F0E94D6029B01AC01C8
S1130270C701B6010E94D7010E94A302862F972FBF
S1130280DF91CF911F910F91FF90EF90DF90CF906E
S1130290089543E050E062E970E080E00E943D0789
S11302A043E050E067E870E081E00E943D0761E0D0
S11302B086E00E940C0961E087E00E940C0940E896
S11302C055E260E070E082E491E00E943705089511
S11302D0CF93DF930E94ED00EC0167E071E082E4CC
S11302E091E00E942C064AE050E0BE0182E491E0D5
S11302F00E942807BE0186E00E947408DF91CF9116
S11303000895CF93DF934FEF53E060E070E00E94D5
S11303100501EC0167E171E082E491E00E942C06A2
S11303204AE050E0BE0182E491E00E942807BE0149
S113033087E090E00E949D00DF91CF910895809125
S11303404101882341F080913F01909140010E9436
S113035068011092410180913E01882341F080910F
S11303603C0190913D010E94810110923E018091D7
S11303704101811108C060913C0170913D0187E009
S113038090E00E949D0008950E9418080E9449016F
S11303900E949F018FEA94E0892B29F00E94AF0408
S11303A00E949F01FBCF0E949F01FDCF5058BB27A5
S11303B0AA270ED04DC13ED130F043D120F031F404
S11303C09F3F11F41EF433C10EF4E095E7FB29C1FD
S11303D0E92F4FD180F3BA17620773078407950793
S11303E018F071F49EF567C10EF4E0950B2EBA2F48
S11303F0A02D0B01B90190010C01CA01A001112427
S1130400FF27591B99F0593F50F4503E68F11A16D2
S1130410F040A22F232F342F4427585FF3CF469563
S113042037952795A795F0405395C9F77EF41F1685
S1130430BA0B620B730B840BBAF09150A1F0FF0F4F
S1130440BB1F661F771F881FC2F70EC0BA0F621F3B
S1130450731F841F48F4879577956795B795F7952B
S11304609E3F08F0B3CF9395880F08F09927EE0FBD
S11304709795879508950CD0EBC0E3D040F0DAD07F
S113048030F021F45F3F19F0CCC0511115C1CFC039
S1130490F0D098F39923C9F35523B1F3951B550B69
S11304A0BB27AA2762177307840738F09F5F5F4F43
S11304B0220F331F441FAA1FA9F333D00E2E3AF084
S11304C0E0E830D091505040E695001CCAF729D09E
S11304D0FE2F27D0660F771F881FBB1F26173707ED
S11304E04807AB07B0E809F0BB0B802DBF01FF271D
S11304F093585F4F2AF09E3F510568F092C0DCC0CC
S11305005F3FECF3983EDCF3869577956795B79556
S1130510F7959F5FC9F7880F911D9695879597F971
S11305200895E1E0660F771F881FBB1F62177307EA
S11305308407BA0720F0621B730B840BBA0BEE1FFF
S113054088F7E095089504D06894B111B5C0089572
S113055098D088F09F5790F0B92F9927B751A0F001
S1130560D1F0660F771F881F991F1AF0BA95C9F743
S113057012C0B13081F09FD0B1E008959CC0672FC4
S1130580782F8827B85F39F0B93FCCF386957795F3
S11305906795B395D9F73EF49095809570956195DC
S11305A07F4F8F4F9F4F0895E89409C097FB3EF407
S11305B090958095709561957F4F8F4F9F4F9923AC
S11305C0A9F0F92F96E9BB279395F695879577952A
S11305D06795B795F111F8CFFAF4BB0F11F460FFEA
S11305E01BC06F5F7F4F8F4F9F4F16C0882311F042
S11305F096E911C0772321F09EE8872F762F05C056
S1130600662371F096E8862F70E060E02AF09A95F0
S1130610660F771F881FDAF7880F9695879597F9E5
S1130620089597F99F6780E870E060E008959FEF70
S113063080EC089500240A94161617061806090675
S1130640089500240A941216130614060506089544
S1130650092E0394000C11F4882352F0BB0F40F4CC
S1130660BF2B11F460FF04C06F5F7F4F8F4F9F4F0C
S1130670089557FD9058440F551F59F05F3F71F08E
S11306804795880F97FB991F61F09F3F79F08795F5
S11306900895121613061406551FF2CF4695F1DF7E
S11306A008C0161617061806991FF1CF869571050E
S11306B0610508940895E894BB2766277727CB0142
S11306C097F908950BD0C4CFB5DF28F0BADF18F03E
S11306D0952309F0A6CFABCF1124EECFCADFA0F348
S11306E0959FD1F3950F50E0551F629FF001729FC3
S11306F0BB27F00DB11D639FAA27F00DB11DAA1FE2
S1130700649F6627B00DA11D661F829F2227B00D2E
S1130710A11D621F739FB00DA11D621F839FA00DB9
S1130720611D221F749F3327A00D611D231F849F09
S1130730600D211D822F762F6A2F11249F57504060
S11307408AF0E1F088234AF0EE0FFF1FBB1F661FFB
S1130750771F881F91505040A9F79E3F510570F0B4
S113076060CFAACF5F3FECF3983EDCF38695779594
S11307706795B795F795E7959F5FC1F7FE2B880FAF
S1130780911D9695879597F90895FC018485958523
S1130790FC01E05CFF4F20813181FC01EE5BFF4FE7
S11307A080819181281B390B2F733327822F932F3C
S11307B00895FC0184859585FC01E05CFF4F408130
S11307C05181FC01EE5BFF4F2081318142175307B9
S11307D059F0FC01EE5BFF4F20813181FC01E20FF7
S11307E0F31F208130E002C02FEF3FEF822F932FC1
S11307F00895FC0184859585FC01E05CFF4F4081F0
S11308005181FC01EE5BFF4F208131814217530778
S113081091F0FC01EE5BFF4F20813181DC01A20FDE
S1130820B31F2C918081918101968F7399279183B5
S1130830808330E002C02FEF3FEF822F932F089583
S1130840FC0181A1882329F0A489B5898C9186FFB4
S1130850FBCF11A20895DC011E968D919C911F97E8
S1130860FC01E05CFF4F408151814F5F5F4F4F734C
S11308705527FC01EE5BFF4F20813181241735079A
S1130880D9F3FC01E05CFF4F20813181FC01E20FD0
S1130890F31F60831E96ED91FC911F97E05CFF4F60
S11308A0518340835696ED91FC915797408121E006
S11308B030E0C9015F960C905F9702C0880F991FC2
S11308C00A94E2F7842B808381E091968C9391972C
S11308D05496ED91FC91559780818064808381E0EA
S11308E090E0089508951F920F920FB60F9211246D
S11308F02F933F934F938F939F93AF93BF93EF9314
S1130900FF938091C00082FD1AC04091C60080917F
S1130910E8019091E90101968F7399272091EA01EA
S11309203091EB018217930761F0E8EEF1E0A081CA
S1130930B181A855BE4F4C939183808302C08091AE
S1130940C600FF91EF91BF91AF919F918F914F910D
S11309503F912F910F900FBE0F901F90189582E436
S113096091E00E94C503892B11F00E94720408953E
S11309701F920F920FB60F9211242F933F938F93D0
S11309809F93AF93BF93EF93FF932091A401309172
S1130990A5018091A6019091A7012817390731F488
S11309A0E1ECF0E080818F7D808310C0E6EAF1E025
S11309B0A081B181AC59BE4F2C9180819181019667
S11309C08F739927918380832093C600FF91EF91C1
S11309D0BF91AF919F918F913F912F910F900FBE37
S11309E00F901F9018958F929F92AF92BF92CF92C3
S11309F0DF92EF92FF920F931F93CF93DF93CDB7C4
S1130A00DEB7FC011382128288EE93E0A0E0B0E02E
S1130A1084839583A683B7838AE291E0918380835C
S1130A207587648757874687318B208B138B028B9E
S1130A30F58AE48AD78AC68AB18EA08E938E828E76
S1130A408F85848F8889858F8989868F8A89878F06
S1130A508B8980A3DF91CF911F910F91FF90EF902D
S1130A60DF90CF90BF90AF909F908F900895CF92DA
S1130A70DF92EF92FF92CF93DF93EC016A017B0147
S1130A80411581EE58076105710509F1EC89FD896D
S1130A9081E090E008A002C0880F991F0A94E2F751
S1130AA0808360E079E08DE390E0A70196010E94E5
S1130AB08109DA01C9010197A109B109B695A79580
S1130AC0979587959C01211580E13807A8F0EC895A
S1130AD0FD89108260E874E88EE190E0A701960138
S1130AE00E948109DA01C9010197A109B109B695EA
S1130AF0A795979587959C01E889F9893083EA89B8
S1130B00FB89208319A2EE89FF89408181E090E06E
S1130B109C010C8C02C0220F331F0A94E2F7242B91
S1130B202083EE89FF8940819C010D8C02C0220F35
S1130B30331F0A94E2F7242B2083EE89FF89408136
S1130B409C010E8C02C0220F331F0A94E2F7242B5F
S1130B502083EE89FF8920810F8C02C0880F991FA2
S1130B600A94E2F7809582238083DF91CF91FF90EE
S1130B70EF90DF90CF9008958F929F92AF92BF92A3
S1130B80CF92DF92EF92FF920F931F9381E08F93A6
S1130B9085E08F9387E08F9383E08F9384E08F9336
S1130BA00F2EF6EC8F2E912CF02D0F2EF2ECAF2E93
S1130BB0B12CF02D0F2EF1ECCF2ED12CF02D0F2EC9
S1130BC0F0ECEF2EF12CF02D04EC10E025EC30E0ED
S1130BD044E651E068EA71E082E491E00E94F304A3
S1130BE00F900F900F900F900F901F910F91FF9007
S1130BF0EF90DF90CF90BF90AF909F908F9008952B
S1130C00CF92DF92EF92FF920F931F93CF93DF93D4
S1130C107C016B01EA01209791F000E010E0D6011D
S1130C206D916D01D701ED91FC910190F081E02D62
S1130C30C7010995080F191F219789F702C000E021
S1130C4010E0802F912FDF91CF911F910F91FF9092
S1130C50EF90DF90CF9008956115710599F0E62F1C
S1130C60F72FDF010D900020E9F71197AD014E1B1E
S1130C705F0BDC01ED91FC910280F381E02D09957D
S1130C809C0102C020E030E0822F932F0895DC0104
S1130C90ED91FC910190F081E02D099508950F9359
S1130CA01F93CF93DF93EC016DE00E9447068C0104
S1130CB06AE0CE010E9447069C01200F311F822F5B
S1130CC0932FDF91CF911F910F9108954F925F92CF
S1130CD06F927F929F92AF92BF92CF92DF92EF92E8
S1130CE0FF920F931F93CF93DF93CDB7DEB7A197F6
S1130CF00FB6F894DEBF0FBECDBF5C016A017B0165
S1130D00922E19A281E0821720F00F2EFAE09F2E76
S1130D10F02D8E010F5D1F4F492C512C612C712C2D
S1130D20C701B601A30192010E9481098C2D929EF4
S1130D3080191124015011098A3010F4805D01C01A
S1130D40895CD8018C93C22ED32EE42EF52EC114C7
S1130D50D104E104F10421F701151105A9F0E02FF4
S1130D60F12FDF010D900020E9F71197AD014E1B23
S1130D705F0BD501ED91FC910280F381E02DB80168
S1130D80C50109959C0102C020E030E0822F932F19
S1130D90A1960FB6F894DEBF0FBECDBFDF91CF9101
S1130DA01F910F91FF90EF90DF90CF90BF90AF9085
S1130DB09F907F906F905F904F900895CF92DF92B5
S1130DC0EF92FF920F931F93CF93DF93EC016A018D
S1130DD07B012115310549F4E881F9810190F08105
S1130DE0E02D642F09958C011FC02A303105C9F408
S1130DF0772394F46DE20E9447068C01442755271B
S1130E00BA014C195D096E097F092AE0CE010E94DE
S1130E106606080F191F08C02AE00E9466068C01A6
S1130E2003C00E9466068C01802F912FDF91CF9121
S1130E301F910F91FF90EF90DF90CF9008959A014A
S1130E40AB01662757FD6095762F0E94DE06089554
S1130E500F931F93CF93DF93EC010E941F078C0124
S1130E60CE010E944F069C01200F311F822F932F29
S1130E70DF91CF911F910F910895823000F5E82FF3
S1130E80F0E0EE0FFF1FE451FE4F7183608388236F
S1130E9019F08130A1F408C0E9E6F0E080818C7F8C
S1130EA0482B4083E89A0895E9E6F0E08081440FF6
S1130EB0551F440F551F837F482B4083E99A08959B
S1130EC01F920F920FB60F9211242F933F934F93BB
S1130ED05F936F937F938F939F93AF93BF93EF939E
S1130EE0FF938091EC019091ED01892B29F0E09121
S1130EF0EC01F091ED010995FF91EF91BF91AF9154
S1130F009F918F917F916F915F914F913F912F911D
S1130F100F900FBE0F901F9018951F920F920FB64F
S1130F200F9211242F933F934F935F936F937F936B
S1130F308F939F93AF93BF93EF93FF938091EE01B1
S1130F409091EF01892B29F0E091EE01F091EF01EE
S1130F500995FF91EF91BF91AF919F918F917F91EF
S1130F606F915F914F913F912F910F900FBE0F9012
S1130F701F9018951F920F920FB60F9211242F9362
S1130F803F938F939F93AF93BF938091F001909180
S1130F90F101A091F201B091F3013091F801232FF6
S1130FA02D5F2D3720F40196A11DB11D05C0232FFF
S1130FB02A570296A11DB11D2093F8018093F001D8
S1130FC09093F101A093F201B093F3018091F401A5
S1130FD09091F501A091F601B091F7010196A11D40
S1130FE0B11D8093F4019093F501A093F601B093A1
S1130FF0F701BF91AF919F918F913F912F910F90E6
S11310000FBE0F901F9018950F931F938FB7F894EE
S11310100091F0011091F1012091F2013091F3015E
S11310208FBF602F712F822F932F1F910F910895DF
S1131030789484B5826084BD84B5816084BD85B5AF
S1131040826085BD85B5816085BDEEE6F0E0808176
S113105081608083E1E8F0E0108280818260808397
S1131060808181608083E0E8F0E08081816080831A
S1131070E1EBF0E0808184608083E0EBF0E080814C
S113108081608083EAE7F0E08081846080838081EE
S11310908260808380818160808380818068808396
S11310A01092C10008958E3008F08E508770209100
S11310B0060140E4249F90011124282B20937C00F6
S11310C0EAE7F0E0808180648083808186FDFDCF43
S11310D02091780030917900932F80E0AC01422B6D
S11310E09A01822F932F08951F93CF93DF93182F84
S11310F0EB0161E00E940C09209729F460E0812F44
S11311000E944E0956C0CF3FD10529F461E0812FDA
S11311100E944E094EC0E12FF0E0E859FF4FE491E0
S1131120E330B9F028F4E13051F0E230B1F50CC00D
S1131130E63019F1E73049F1E43079F514C084B5AB
S1131140806884BDC7BD35C084B5806284BDC8BD18
S113115030C0E0E8F0E0808180688083D09389002B
S1131160C093880026C0E0E8F0E08081806280833C
S1131170D0938B00C0938A001CC0E0EBF0E0808128
S113118080688083C093B30014C0E0EBF0E08081FA
S113119080628083C093B4000CC0C038D1052CF4A5
S11311A060E0812F0E944E0904C061E0812F0E94FB
S11311B04E09DF91CF911F910895833069F028F48F
S11311C08130B1F0823039F517C08630C9F08730EC
S11311D0E9F0843001F506C0E0E8F0E080818F7723
S11311E080830895E0E8F0E080818F7D8083089516
S11311F084B58F7784BD089584B58F7D84BD0895AB
S1131200E0EBF0E080818F7780830895E0EBF0E0FD
S113121080818F7D80830895CF93DF9390E0FC01DC
S1131220E458FF4F4491FC01E057FF4F8491882319
S113123091F190E0880F991FFC01E255FF4F259131
S11312403491A22FB32F8C559F4FFC01859194911B
S1131250C82FD92F61110BC08FB7F8949C9140957A
S113126094239C93E8814E2348838FBF14C062303B
S113127061F48FB7F8942C91942F909592239C93BA
S1131280E8814E2B48838FBF06C08FB7F894EC914A
S11312904E2B4C938FBFDF91CF9108951F93CF9323
S11312A0DF93C62F282F30E0F901E859FF4F8491CE
S11312B0F901E458FF4FD491F901E057FF4F14911D
S11312C01123D9F081110E94DD08212F30E0F901AA
S11312D0EE0FFF1FEC55FF4F85919491A82FB92F66
S11312E08FB7F894C11105C0EC91D095DE23DC933F
S11312F003C0EC91DE2BDC938FBFDF91CF911F9164
S11313000895A1E21A2EAA1BBB1BFD010DC0AA1F42
S1131310BB1FEE1FFF1FA217B307E407F50720F05A
S1131320A21BB30BE40BF50B661F771F881F991FD5
S11313301A9469F760957095809590959B01AC011E
S1131340BD01CF010895EE0FFF1F0590F491E02D2C
S10913500994F894FFCF9C
S11313560000F901200001506F74656E74696F6DA9
S1131366657465723A2000546F7563682053656E20
S1131376736F723A2000000000002B040006C503B8
S1091386F903D903200461
S9030000FC
