S01100006C61623470617274332E73726563C6
S11300000C945D000C94B10A0C94DE0A0C948500E7
S11300100C9485000C9485000C9485000C94850048
S11300200C9485000C941C040C9485000C9485009D
S11300300C9485000C9485000C9485000C94850028
S11300400C940B0B0C9485000C94F8070C943D084D
S11300500C9485000C9485000C9485000C94850008
S11300600C9485000C948500000000070002010038
S11300700003040600000000000000000102040860
S113008010204080010204081020010204081020FE
S1130090040404040404040402020202020203032A
S11300A00303030300000000250028002B000000C8
S11300B00000240027002A00410911241FBECFEFAD
S11300C0D8E0DEBFCDBF11E0A0E0B1E0ECEFFBE192
S11300D002C005900D92A032B107D9F722E0A0E248
S11300E0B1E001C01D92A63BB207E1F710E0CAEBF4
S11300F0D0E004C02297FE010E94800CC83BD107C7
S1130100C9F70E9494050C94FC0D0C940000FFCFD9
S11301108091440190914501089590934501809305
S1130120440140E052EC61E070E08BEF91E00E940A
S1130130BC0868E071E08BEF91E00E94B109609126
S11301404401709145014AE050E08BEF91E00E9438
S1130150790A61E08DE00E94BF0B61E08DE00E94AE
S1130160010C0895CF92DF92EF92FF920F931F93A9
S1130170CF93DF930FB7F8941091B801F090B901C1
S1130180F11640F481E090E00E948D000E94880006
S11301909C0185C0E1E5F1E0ADE01A9F90011124D6
S11301A02E0F3F1FC0E0D1E0E12CE217F30709F462
S11301B079C0CC2309F47AC083E090E00E948D00DA
S11301C00E9488009C016BC08F3F910579F09923B0
S11301D02CF02F2D30E02817390744F482E090E00A
S11301E00E948D000E9488009C0159C0C12FD0E05C
S11301F0EDE01E9F900111240F2EF0E5EF2EF1E0AB
S1130200FF2EF02DE20EF31EF701818372876187C2
S113021054874387C0900701D12C64E070E0C60185
S11302200E94840C282F392FF7013483238321154E
S1130230310541F484E090E00E948D000E94880022
S11302409C012DC08DE08C9FF0018D9FF00D112439
S1130250E05BFE4F81E0C81AD108A601440F551F88
S1130260440F551F420F531F662757FD6095762F85
S1130270458356836783708710838281816082837C
S11302804AE451E060E571E0CE010E94F2068091FB
S1130290B8018F5F8093B8010FBF20E030E0822F58
S11302A0932F0DC0CC2309F48FCF86CFA081B0E06B
S11302B0CD2FA817B90709F0CE2D3D9676CFDF9143
S11302C0CF911F910F91FF90EF90DF90CF90089501
S11302D0CF938AE491E00E94F5068F3F09F452C05F
S11302E09DE0989FD0011124A05BBE4FE0910601D0
S11302F09E9FF0011124E05BFE4F11969C91818139
S1130300981720F0809143018823E1F18AE491E079
S11303100E940907C82FE0910601EF3FF9F08E17FC
S1130320E9F08E2F9DE0E99FF0011124E05BFE4F80
S11303304091C3015091C4016091C5017091C601FF
S11303404583568367837087928191FD07C04AE491
S113035051E060E571E090E00E94F2068DE0C89FF4
S1130360F0011124E05BFE4F458156816781708561
S11303704093C3015093C4016093C5017093C601B7
S1130380C0930601CF9108950F920FB6F8940F927F
S11303901F9211242F923F924F925F926F927F92FD
S11303A08F929F92AF92BF92CF92DF92EF92FF9281
S11303B00F931F932F933F934F935F936F937F9369
S11303C08F939F93AF93BF93CF93DF93EF93FF9359
S11303D0ADB7BEB7B093C401A093C3017894CFB7AF
S11303E0F89480914201811105C081E0809343011A
S11303F00E946801CFBFCFB7F894E09106012E2F79
S113040030E08DE0E89FF0011124E05BFE4F828133
S113041080FF40C09DE0929FF001939FF00D112456
S1130420E05BFE4F8E7F82838091C3019091C40173
S1130430A091C501B091C6018DBF9EBF8DE0829F82
S1130440F001839FF00D1124E05BFE4F81859285BE
S1130450AA2797FDA095BA2F8093BF019093C0015E
S1130460A093C101B093C20143855485662757FD0B
S11304706095762F4093BB015093BC016093BD01FE
S11304807093BE01082E0F92092E0F92952F842F80
S1130490CFBF2FC0CFBF8091C3019091C401A09161
S11304A0C501B091C601F8948DBF9EBFFF91EF9135
S11304B0DF91CF91BF91AF919F918F917F916F9178
S11304C05F914F913F912F911F910F91FF90EF906A
S11304D0DF90CF90BF90AF909F908F907F906F9060
S11304E05F904F903F902F901F900F9078940FBE85
S11304F00F900895CF93CFB7F89440910601242F1D
S113050030E0F901EE0FFF1FEE0FFF1FEE5DFE4F0F
S1130510DC01CB010197A109B10980839183A283F6
S1130520B38381E090E002C0880F991F4A95E2F7F7
S11305304091200150912101842B952B909321010E
S1130540809320018DE0829FF001839FF00D1124A0
S1130550E05BFE4F828182608283CFBF0E94C40130
S1130560CF9108950F920FB6F8940F921F92112411
S11305702F923F924F925F926F927F928F929F92AF
S1130580AF92BF92CF92DF92EF92FF920F931F939D
S11305902F933F934F935F936F937F938F939F9387
S11305A0AF93BF93CF93DF93EF93FF93ADB7BEB7F2
S11305B0B093C401A093C3017894CFB7F894809109
S11305C04201811104C0109243010E946801CFBF0F
S11305D0CFB7F894E09106012E2F30E08DE0E89F2C
S11305E0F0011124E05BFE4F828180FF40C09DE05A
S11305F0929FF001939FF00D1124E05BFE4F8E7FDC
S113060082838091C3019091C401A091C501B091EE
S1130610C6018DBF9EBF8DE0829FF001839FF00DC8
S11306201124E05BFE4F81859285AA2797FDA09552
S1130630BA2F8093BF019093C001A093C101B093DE
S1130640C20143855485662757FD6095762F4093F4
S1130650BB015093BC016093BD017093BE01082E91
S11306600F92092E0F92952F842FCFBF2FC0CFBF8B
S11306708091C3019091C401A091C501B091C601BC
S1130680F8948DBF9EBFFF91EF91DF91CF91BF9101
S1130690AF919F918F917F916F915F914F913F9116
S11306A02F911F910F91FF90EF90DF90CF90BF900B
S11306B0AF909F908F907F906F905F904F903F90FE
S11306C02F901F900F9078940FBE0F9008950F9263
S11306D00FB6F8940F921F9211242F923F924F92CB
S11306E05F926F927F928F929F92AF92BF92CF92BE
S11306F0DF92EF92FF920F931F932F933F934F93A9
S11307005F936F937F938F939F93AF93BF93CF9395
S1130710DF93EF93FF93ADB7BEB7B093C401A0933B
S1130720C3017894CFB7F89480914201811104C039
S1130730109243010E946801CFBFCFB7F894E091B3
S113074006012E2F30E08DE0E89FF0011124E05BDC
S1130750FE4F828180FF40C09DE0929FF001939FF5
S1130760F00D1124E05BFE4F8E7F82838091C301E4
S11307709091C401A091C501B091C6018DBF9EBFE7
S11307808DE0829FF001839FF00D1124E05BFE4F0A
S113079081859285AA2797FDA095BA2F8093BF01E2
S11307A09093C001A093C101B093C20143855485C5
S11307B0662757FD6095762F4093BB015093BC018B
S11307C06093BD017093BE01082E0F92092E0F9203
S11307D0952F842FCFBF2FC0CFBF8091C30190919D
S11307E0C401A091C501B091C601F8948DBF9EBF0C
S11307F0FF91EF91DF91CF91BF91AF919F918F9135
S11308007F916F915F914F913F912F911F910F9124
S1130810FF90EF90DF90CF90BF90AF909F908F901C
S11308207F906F905F904F903F902F901F900F900C
S113083078940FBE0F9018951FB7F89480914601D5
S113084090914701A0914801B09149010196A11DE1
S1130850B11D8093460190934701A0934801B09342
S113086049018091B901882309F45EC000E0C1E028
S1130870D0E00F2EFDE0FF2EF02D802F90E0FC0144
S1130880EE0FFF1FEE0FFF1FEE5DFE4F4081518103
S113089062817381411551056105710581F0FC0187
S11308A0EE0FFF1FEE0FFF1FEE5DFE4F415051098B
S11308B06109710940835183628373832FC020913E
S11308C0200130912101A901002E02C055954795C0
S11308D00A94E2F740FF22C0AE01002E02C0440F8A
S11308E0551F0A94E2F740955095242335233093FD
S11308F0210120932001F89EF001F99EF00D1124AE
S1130900E05BFE4F22812D7F22834AE451E060E5C3
S113091071E00E94F2061FBF0E9467030F5F80917F
S1130920B901081708F4A9CF1FBF18950F931F9397
S113093000914601109147012091480130914901ED
S1130940602F712F822F932F1F910F91089583E0B1
S11309508093B0001092B200E0E7F0E08081816003
S11309608083089584E08093B10078940895CF93B0
S1130970C82F0E94A704C093BA016C2F6F5F6093C5
S1130980B901109242014AE451E087EC91E00E94DF
S11309902807CF910895F89440E050E067E870E0AC
S11309A08FEF90E00E94B2000E94B20478940E94FB
S11309B0C401089505E010E08FEC91E00E94C105A8
S11309C0E80161E087E00E94010C6AEF70E080E0DA
S11309D090E00E947A0260E087E00E94010C6AEFD6
S11309E070E080E090E00E947A02219751F7E4CF12
S11309F005E010E081EE91E00E94C105E80161E0AC
S1130A0086E00E94010C6AEF70E080E090E00E94B2
S1130A107A0260E086E00E94010C6AEF70E080E0F8
S1130A2090E00E947A02219751F7E4CFCF92DF92AF
S1130A30EF92FF92CF93DF93EC01C880D980EA80D4
S1130A40FB800E9496049B01AC012C193D094E09C0
S1130A505F0969017A0135EFC31631E0D306E10479
S1130A60F10438F0688379838A839B8321E030E042
S1130A7002C020E030E0822F932FDF91CF91FF90CE
S1130A80EF90DF90CF90089583EF91E00E941605D8
S1130A90892B21F08FEC91E00E94E905089587EFFE
S1130AA091E00E941605892B21F081EE91E00E94CD
S1130AB0E905089561E086E00E94BF0B61E087E0EC
S1130AC00E94BF0B82E00E94B70443E050E06FE451
S1130AD075E080E00E948E0A43E050E064E475E033
S1130AE081E00E948E0A41E060E070E081EE91E0D6
S1130AF00E94A00541E060E070E08FEC91E00E946C
S1130B00A00540E050E068EF74E080E090E00E94CF
S1130B10B20040E050E06AED74E081E090E00E94B1
S1130B20B2000E94CB0408950E94550B0E945A05FE
S1130B3084E398E0892B19F00E943408FDCFFFCF9D
S1130B40CF93CFB7F894FC0142831382411103C0C1
S1130B50718360830BC0672B31F021E030E0FC012E
S1130B603183208303C0FC0111821082AC01445FF5
S1130B705F4F6091B90104960E942807CFBFCF91BF
S1130B800895CF93CFB7F894FC01208131812115CA
S1130B90310529F0215031093183208317C0209178
S1130BA006013DE0239FF0011124E05BFE4F3281FA
S1130BB032603283AC01445F5F4F60E571E0822FA5
S1130BC090E00E941B06CFBF0E94C401CFBFCF910B
S1130BD008951F93CF93DF93EC011FB7F8940C96FD
S1130BE00E9409078F3FA1F09DE0899FF001112425
S1130BF0E05BFE4F92819D7F92834AE451E060E581
S1130C0071E090E00E94F2061FBF0E94B2020EC083
S1130C108A819B81892B29F081E090E099838883E4
S1130C2005C0888199810196998388831FBFDF91CC
S1130C30CF911F9108953F924F925F926F927F924E
S1130C408F929F92AF92BF92CF92DF92EF92FF92D8
S1130C500F931F93CF93DF936C018B01FA016FB64F
S1130C60F8945280748085818715C0F4252D30E076
S1130C704380C42DD0E08DE08C9D70018D9DF00CDF
S1130C801124E60EF71E40E00F2EFDE08F2EF02D0E
S1130C9099249394312CA72CB12C09C06FBE90C019
S1130CA0C90101966A2D7B2D0E94340C9C01C21748
S1130CB0D30709F458C0442309F459C089015414D2
S1130CC058F44A94442D50E040175107C8F18FEF6F
S1130CD0481264C0E90135C0442019F0742C7A9498
S1130CE018C07A9416C0C081D181DE01A40FB51F4B
S1130CF04C91872D90E00196648170E00E94480C2D
S1130D00C80FD91F4883772011F07A9402C07480E9
S1130D107A94472D50E00417150729F7C081D18133
S1130D20DE01A00FB11F4C91872D90E001966481E4
S1130D3070E00E94480CC80FD91F4883E90101C024
S1130D40E901838190E00196648170E00E94480C7F
S1130D50838380819181C80FD91FC88285818F5F69
S1130D6085836FBE2DC08E01442359F3A8CFA08183
S1130D70B181A20FB31F8C91D801889EA00DB11D23
S1130D801124492D11969C91D70111968C918917A4
S1130D9008F0432D442309F483CF89CFC081D18146
S1130DA0DE01A40FB51F4C91842D90E0019664815F
S1130DB070E00E94480CC80FD91F48834A9482CF20
S1130DC0DF91CF911F910F91FF90EF90DF90CF9023
S1130DD0BF90AF909F908F907F906F905F904F9057
S1130DE03F9008950E941B0608952FB7F894DC01E4
S1130DF015963C91311103C02FBF8FEF08952FBF7B
S1130E00FC0122810190F081E02DE20FF11D80812F
S1130E100895CF93DF93FC01DFB7F8944581442311
S1130E2089F0228130E0A081B181A20FB31FCC915F
S1130E30C9010196648170E00E94480C828341508C
S1130E40458301C0CFEFDFBF8C2FDF91CF91089591
S1130E50DA013FB7F89412961C92129713961C92DB
S1130E60139711969C938E9314966C9314971596DE
S1130E701C921597662361F080E090E02FEFED91CE
S1130E80FC911197E80FF91F208301968617B8F398
S1130E903FBF0895FC0184859585FC01E05CFF4F0C
S1130EA020813181FC01EE5BFF4F80819181281B01
S1130EB0390B2F733327822F932F0895FC018485D8
S1130EC09585FC01E05CFF4F40815181FC01EE5BA4
S1130ED0FF4F208131814217530759F0FC01EE5B2B
S1130EE0FF4F20813181FC01E20FF31F208130E0AC
S1130EF002C02FEF3FEF822F932F0895FC018485CA
S1130F009585FC01E05CFF4F40815181FC01EE5B63
S1130F10FF4F208131814217530791F0FC01EE5BB2
S1130F20FF4F20813181DC01A20FB31F2C918081FE
S1130F30918101968F7399279183808330E002C059
S1130F402FEF3FEF822F932F0895FC0181A1882377
S1130F5029F0A489B5898C9186FFFBCF11A208954D
S1130F60DC011E968D919C911F97FC01E05CFF4F64
S1130F70408151814F5F5F4F4F735527FC01EE5BFA
S1130F80FF4F2081318124173507D9F3FC01E05C40
S1130F90FF4F20813181FC01E20FF31F60831E9615
S1130FA0ED91FC911F97E05CFF4F5183408356966F
S1130FB0ED91FC915797408121E030E0C9015F96A3
S1130FC00C905F9702C0880F991F0A94E2F7842B54
S1130FD0808381E091968C9391975496ED91FC9146
S1130FE0559780818064808381E090E0089508951E
S1130FF01F920F920FB60F9211242F933F934F938A
S11310008F939F93AF93BF93EF93FF938091C0000F
S113101082FD1AC04091C6008091A1029091A20263
S113102001968F7399272091A3023091A40282170D
S1131030930761F0E1EAF2E0A081B181AF59BD4FBD
S11310404C939183808302C08091C600FF91EF91FD
S1131050BF91AF919F918F914F913F912F910F909D
S11310600FBE0F901F9018958BEF91E00E944A07D6
S1131070892B11F00E94F70708951F920F920FB663
S11310800F9211242F933F938F939F93AF93BF930A
S1131090EF93FF9320915D0230915E0280915F0295
S11310A0909160022817390731F4E1ECF0E0808177
S11310B08F7D808310C0EFE5F2E0A081B181A35E53
S11310C0BD4F2C918081918101968F7399279183D3
S11310D080832093C600FF91EF91BF91AF919F91C0
S11310E08F913F912F910F900FBE0F901F901895E5
S11310F08F929F92AF92BF92CF92DF92EF92FF9224
S11311000F931F93CF93DF93CDB7DEB7FC01138208
S1131110128288EE93E0A0E0B0E084839583A683F6
S1131120B78384E191E091838083758764875787CF
S11311304687318B208B138B028BF58AE48AD78AFE
S1131140C68AB18EA08E938E828E8F85848F888975
S1131150858F8989868F8A89878F8B8980A3DF9180
S1131160CF911F910F91FF90EF90DF90CF90BF90A0
S1131170AF909F908F900895CF92DF92EF92FF925D
S1131180CF93DF93EC016A017B01411581EE58078F
S11311906105710509F1EC89FD8981E090E008A001
S11311A002C0880F991F0A94E2F7808360E079E017
S11311B08DE390E0A70196010E945C0CDA01C9015D
S11311C00197A109B109B695A795979587959C01B3
S11311D0211580E13807A8F0EC89FD89108260E8C8
S11311E074E88EE190E0A70196010E945C0CDA019C
S11311F0C9010197A109B109B695A7959795879556
S11312009C01E889F9893083EA89FB89208319A242
S1131210EE89FF89408181E090E09C010C8C02C042
S1131220220F331F0A94E2F7242B2083EE89FF89CF
S113123040819C010D8C02C0220F331F0A94E2F7F7
S1131240242B2083EE89FF8940819C010E8C02C0EF
S1131250220F331F0A94E2F7242B2083EE89FF899F
S113126020810F8C02C0880F991F0A94E2F78095A1
S113127082238083DF91CF91FF90EF90DF90CF9016
S113128008958F929F92AF92BF92CF92DF92EF9286
S1131290FF920F931F9381E08F9385E08F9387E0F4
S11312A08F9383E08F9384E08F930F2EF6EC8F2E31
S11312B0912CF02D0F2EF2ECAF2EB12CF02D0F2E21
S11312C0F1ECCF2ED12CF02D0F2EF0ECEF2EF12CD3
S11312D0F02D04EC10E025EC30E04DE152E061E645
S11312E072E08BEF91E00E9478080F900F900F90BE
S11312F00F900F901F910F91FF90EF90DF90CF9080
S1131300BF90AF909F908F900895CF92DF92EF920D
S1131310FF920F931F93CF93DF937C016B01EA013C
S1131320209791F000E010E0D6016D916D01D70196
S1131330ED91FC910190F081E02DC7010995080F12
S1131340191F219789F702C000E010E0802F912F28
S1131350DF91CF911F910F91FF90EF90DF90CF908D
S113136008956115710599F0E62FF72FDF010D90AF
S11313700020E9F71197AD014E1B5F0BDC01ED91E5
S1131380FC910280F381E02D09959C0102C020E0CC
S113139030E0822F932F0895DC01ED91FC910190B0
S11313A0F081E02D099508950F931F93CF93DF9358
S11313B0EC016DE00E94CC098C016AE0CE010E9430
S11313C0CC099C01200F311F822F932FDF91CF91E5
S11313D01F910F9108954F925F926F927F929F9207
S11313E0AF92BF92CF92DF92EF92FF920F931F932F
S11313F0CF93DF93CDB7DEB7A1970FB6F894DEBFD6
S11314000FBECDBF5C016A017B01922E19A281E05F
S1131410821720F00F2EFAE09F2EF02D8E010F5D23
S11314201F4F492C512C612C712CC701B601A3010B
S113143092010E945C0C8C2D929E80191124015003
S113144011098A3010F4805D01C0895CD8018C9345
S1131450C22ED32EE42EF52EC114D104E104F104DE
S113146021F701151105A9F0E02FF12FDF010D90EF
S11314700020E9F71197AD014E1B5F0BD501ED91EB
S1131480FC910280F381E02DB801C50109959C010E
S113149002C020E030E0822F932FA1960FB6F8947B
S11314A0DEBF0FBECDBFDF91CF911F910F91FF9093
S11314B0EF90DF90CF90BF90AF909F907F906F9010
S11314C05F904F9008952115310549F4DC01ED91A9
S11314D0FC910190F081E02D642F099508950E94FC
S11314E0EB0908959A01AB0160E070E00E94630A81
S11314F008950F931F93CF93DF93EC010E94720A18
S11315008C01CE010E94D4099C01200F311F822F2F
S1131510932FDF91CF911F910F910895823000F5A1
S1131520E82FF0E0EE0FFF1FEB55FD4F7183608352
S1131530882319F08130A1F408C0E9E6F0E0808145
S11315408C7F482B4083E89A0895E9E6F0E0808197
S1131550440F551F440F551F837F482B4083E99A3E
S113156008951F920F920FB60F9211242F933F9359
S11315704F935F936F937F938F939F93AF93BF9397
S1131580EF93FF938091A5029091A602892B29F0F5
S1131590E091A502F091A6020995FF91EF91BF9108
S11315A0AF919F918F917F916F915F914F913F91F7
S11315B02F910F900FBE0F901F9018951F920F92AE
S11315C00FB60F9211242F933F934F935F936F9312
S11315D07F938F939F93AF93BF93EF93FF938091E8
S11315E0A7029091A802892B29F0E091A702F0911B
S11315F0A8020995FF91EF91BF91AF919F918F91AF
S11316007F916F915F914F913F912F910F900FBEFA
S11316100F901F9018951F920F920FB60F921124DE
S11316202F933F938F939F93AF93BF938091A9027E
S11316309091AA02A091AB02B091AC023091B10298
S1131640232F2D5F2D3720F40196A11DB11D05C058
S1131650232F2A570296A11DB11D2093B102809316
S1131660A9029093AA02A093AB02B093AC0280911A
S1131670AD029091AE02A091AF02B091B00201967A
S1131680A11DB11D8093AD029093AE02A093AF0251
S1131690B093B002BF91AF919F918F913F912F91E1
S11316A00F900FBE0F901F901895789484B58260A8
S11316B084BD84B5816084BD85B5826085BD85B5F2
S11316C0816085BDEEE6F0E0808181608083E1E8A1
S11316D0F0E01082808182608083808181608083D9
S11316E0E0E8F0E0808181608083E1EBF0E08081DC
S11316F084608083E0EBF0E0808181608083EAE7AE
S1131700F0E0808184608083808182608083808136
S1131710816080838081806880831092C1000895F5
S1131720833069F028F48130B1F0823039F517C084
S11317308630C9F08730E9F0843001F506C0E0E86E
S1131740F0E080818F7780830895E0E8F0E0808185
S11317508F7D8083089584B58F7784BD089584B583
S11317608F7D84BD0895E0EBF0E080818F778083E6
S11317700895E0EBF0E080818F7D80830895CF931E
S1131780DF9390E0FC01E458FF4F4491FC01E057E3
S1131790FF4F8491882391F190E0880F991FFC01F9
S11317A0E255FF4F25913491A22FB32F8C559F4FB3
S11317B0FC0185919491C82FD92F61110BC08FB76B
S11317C0F8949C91409594239C93E8814E234883FC
S11317D08FBF14C0623061F48FB7F8942C91942FAA
S11317E0909592239C93E8814E2B48838FBF06C02B
S11317F08FB7F894EC914E2B4C938FBFDF91CF9120
S113180008951F93CF93DF93C62F282F30E0F9015B
S1131810E859FF4F8491F901E458FF4FD491F9013D
S1131820E057FF4F14911123D9F081110E94900BBE
S1131830212F30E0F901EE0FFF1FEC55FF4F85918A
S11318409491A82FB92F8FB7F894C11105C0EC91CA
S1131850D095DE23DC9303C0EC91DE2BDC938FBFA9
S1131860DF91CF911F910895AA1BBB1B51E107C0C3
S1131870AA1FBB1FA617B70710F0A61BB70B881F1C
S1131880991F5A95A9F780959095BC01CD010895AB
S113189097FB072E16F4009407D077FD09D00E9419
S11318A0340C07FC05D03EF4909581959F4F089524
S11318B0709561957F4F0895A1E21A2EAA1BBB1B58
S11318C0FD010DC0AA1FBB1FEE1FFF1FA217B30708
S11318D0E407F50720F0A21BB30BE40BF50B661F1E
S11318E0771F881F991F1A9469F7609570958095E2
S11318F090959B01AC01BD01CF010895EE0FFF1F30
S11319000590F491E02D09940F931F93CF93DF93E7
S1131910689F8001699F100D789F100D1124C801E4
S11319200E94A20CC82FD92F209731F0A80160E0A3
S113193070E08C2F0E94DA0DCE01DF91CF911F91C0
S11319400F9108950F931F93CF93DF9382309105E6
S113195010F482E090E0E091B402F091B50220E04E
S113196030E0C0E0D0E023C04081518148175907DE
S1131970A8F04817590761F482819381209719F0E0
S11319809B838A832EC09093B5028093B40229C0AE
S11319902115310529F04217530710F0A90102C09F
S11319A0BE01DF0102811381EF019A01F801309732
S11319B0D9F62115310509F1281B390B24303105DD
S11319C090F412968D919C9113976115710521F0F5
S11319D0FB019383828304C09093B5028093B40285
S11319E0FD01329644C0FD01E20FF31F81939193F0
S11319F0225031092D933C933AC02091B202309188
S1131A00B302232B41F4209102013091030130935E
S1131A10B3022093B20220910001309101012115FB
S1131A20310541F42DB73EB74091040150910501B1
S1131A30241B350BE091B202F091B302E217F307D5
S1131A40A0F42E1B3F0B2817390778F0AC014E5F2A
S1131A505F4F2417350748F04E0F5F1F5093B302B2
S1131A604093B2028193919302C0E0E0F0E0CF0191
S1131A70DF91CF911F910F910895EF92FF920F93F1
S1131A801F93CF93DF93009709F48FC0DC01129763
S1131A9013961C921E921297E090B402F090B50235
S1131AA0E114F10489F42D913C911197280F391F09
S1131AB08091B2029091B3028217930789F5B09393
S1131AC0B302A093B20271C0E70120E030E001C08C
S1131AD0EA01CA17DB0738F44A815B819E0141158C
S1131AE05105B1F722C0BC0162507109FB01D383D7
S1131AF0C28300811181AC01400F511F4C175D0757
S1131B0061F448815981400F511F4E5F5F4F5183EB
S1131B1040834A815B81538342832115310529F433
S1131B20B093B502A093B40240C0F901B383A28379
S1131B30E90169917991C60FD71FAC17BD0779F4F4
S1131B40DC015E914E91460F571F4E5F5F4F5183EC
S1131B50408312968D919C91139793838283A0E086
S1131B60B0E002C0D7017C01F70182819381009724
S1131B70C9F7C701029620813181820F931F2091FA
S1131B80B2023091B3022817390779F4109729F477
S1131B901092B5021092B40204C013961C921E92C5
S1131BA01297F092B302E092B202CDB7DEB7E6E04C
S1131BB00C94ED0DDC0101C06D9341505040E0F7F1
S1131BC008952A88398848885F846E847D848C844B
S1131BD09B84AA84B984C884DF80EE80FD800C8154
S1131BE01B81AA81B981CE0FD11D0FB6F894DEBF37
S10F1BF00FBECDBFED010895F894FFCFA7
S1131BFC0000B6022000FF324552524F523A2000E8
S1131C0C00000000B00785094A077E075E07A50798
S9030000FC
